{
	"contracts/exampleStrings.sol": {
		"exampleStrings": {
			"abi": [
				{
					"inputs": [
						{
							"internalType": "string",
							"name": "_myString",
							"type": "string"
						}
					],
					"name": "compareTwo",
					"outputs": [
						{
							"internalType": "bool",
							"name": "",
							"type": "bool"
						}
					],
					"stateMutability": "view",
					"type": "function"
				},
				{
					"inputs": [],
					"name": "myBytes",
					"outputs": [
						{
							"internalType": "bytes",
							"name": "",
							"type": "bytes"
						}
					],
					"stateMutability": "view",
					"type": "function"
				},
				{
					"inputs": [],
					"name": "myString",
					"outputs": [
						{
							"internalType": "string",
							"name": "",
							"type": "string"
						}
					],
					"stateMutability": "view",
					"type": "function"
				},
				{
					"inputs": [
						{
							"internalType": "string",
							"name": "_myString",
							"type": "string"
						}
					],
					"name": "setstring",
					"outputs": [],
					"stateMutability": "nonpayable",
					"type": "function"
				}
			],
			"devdoc": {
				"kind": "dev",
				"methods": {},
				"version": 1
			},
			"evm": {
				"assembly": "    /* \"contracts/exampleStrings.sol\":60:634  contract exampleStrings{... */\n  mstore(0x40, 0x80)\n    /* \"contracts/exampleStrings.sol\":90:128  string public myString = \"hello world\" */\n  mload(0x40)\n  dup1\n  0x40\n  add\n  0x40\n  mstore\n  dup1\n  0x0b\n  dup2\n  mstore\n  0x20\n  add\n  0x68656c6c6f20776f726c64000000000000000000000000000000000000000000\n  dup2\n  mstore\n  pop\n  0x00\n  swap1\n  dup2\n  tag_1\n  swap2\n  swap1\n  tag_2\n  jump\t// in\ntag_1:\n  pop\n    /* \"contracts/exampleStrings.sol\":135:171  bytes public myBytes = \"hello world\" */\n  mload(0x40)\n  dup1\n  0x40\n  add\n  0x40\n  mstore\n  dup1\n  0x0b\n  dup2\n  mstore\n  0x20\n  add\n  0x68656c6c6f20776f726c64000000000000000000000000000000000000000000\n  dup2\n  mstore\n  pop\n  0x01\n  swap1\n  dup2\n  tag_3\n  swap2\n  swap1\n  tag_4\n  jump\t// in\ntag_3:\n  pop\n    /* \"contracts/exampleStrings.sol\":60:634  contract exampleStrings{... */\n  callvalue\n  dup1\n  iszero\n  tag_5\n  jumpi\n  0x00\n  dup1\n  revert\ntag_5:\n  pop\n  jump(tag_6)\n    /* \"#utility.yul\":7:106   */\ntag_7:\n    /* \"#utility.yul\":59:65   */\n  0x00\n    /* \"#utility.yul\":93:98   */\n  dup2\n    /* \"#utility.yul\":87:99   */\n  mload\n    /* \"#utility.yul\":77:99   */\n  swap1\n  pop\n    /* \"#utility.yul\":7:106   */\n  swap2\n  swap1\n  pop\n  jump\t// out\n    /* \"#utility.yul\":112:292   */\ntag_8:\n    /* \"#utility.yul\":160:237   */\n  0x4e487b7100000000000000000000000000000000000000000000000000000000\n    /* \"#utility.yul\":157:158   */\n  0x00\n    /* \"#utility.yul\":150:238   */\n  mstore\n    /* \"#utility.yul\":257:261   */\n  0x41\n    /* \"#utility.yul\":254:255   */\n  0x04\n    /* \"#utility.yul\":247:262   */\n  mstore\n    /* \"#utility.yul\":281:285   */\n  0x24\n    /* \"#utility.yul\":278:279   */\n  0x00\n    /* \"#utility.yul\":271:286   */\n  revert\n    /* \"#utility.yul\":298:478   */\ntag_9:\n    /* \"#utility.yul\":346:423   */\n  0x4e487b7100000000000000000000000000000000000000000000000000000000\n    /* \"#utility.yul\":343:344   */\n  0x00\n    /* \"#utility.yul\":336:424   */\n  mstore\n    /* \"#utility.yul\":443:447   */\n  0x22\n    /* \"#utility.yul\":440:441   */\n  0x04\n    /* \"#utility.yul\":433:448   */\n  mstore\n    /* \"#utility.yul\":467:471   */\n  0x24\n    /* \"#utility.yul\":464:465   */\n  0x00\n    /* \"#utility.yul\":457:472   */\n  revert\n    /* \"#utility.yul\":484:804   */\ntag_10:\n    /* \"#utility.yul\":528:534   */\n  0x00\n    /* \"#utility.yul\":565:566   */\n  0x02\n    /* \"#utility.yul\":559:563   */\n  dup3\n    /* \"#utility.yul\":555:567   */\n  div\n    /* \"#utility.yul\":545:567   */\n  swap1\n  pop\n    /* \"#utility.yul\":612:613   */\n  0x01\n    /* \"#utility.yul\":606:610   */\n  dup3\n    /* \"#utility.yul\":602:614   */\n  and\n    /* \"#utility.yul\":633:651   */\n  dup1\n    /* \"#utility.yul\":623:704   */\n  tag_34\n  jumpi\n    /* \"#utility.yul\":689:693   */\n  0x7f\n    /* \"#utility.yul\":681:687   */\n  dup3\n    /* \"#utility.yul\":677:694   */\n  and\n    /* \"#utility.yul\":667:694   */\n  swap2\n  pop\n    /* \"#utility.yul\":623:704   */\ntag_34:\n    /* \"#utility.yul\":751:753   */\n  0x20\n    /* \"#utility.yul\":743:749   */\n  dup3\n    /* \"#utility.yul\":740:754   */\n  lt\n    /* \"#utility.yul\":720:738   */\n  dup2\n    /* \"#utility.yul\":717:755   */\n  sub\n    /* \"#utility.yul\":714:798   */\n  tag_35\n  jumpi\n    /* \"#utility.yul\":770:788   */\n  tag_36\n  tag_9\n  jump\t// in\ntag_36:\n    /* \"#utility.yul\":714:798   */\ntag_35:\n    /* \"#utility.yul\":535:804   */\n  pop\n    /* \"#utility.yul\":484:804   */\n  swap2\n  swap1\n  pop\n  jump\t// out\n    /* \"#utility.yul\":810:951   */\ntag_11:\n    /* \"#utility.yul\":859:863   */\n  0x00\n    /* \"#utility.yul\":882:885   */\n  dup2\n    /* \"#utility.yul\":874:885   */\n  swap1\n  pop\n    /* \"#utility.yul\":905:908   */\n  dup2\n    /* \"#utility.yul\":902:903   */\n  0x00\n    /* \"#utility.yul\":895:909   */\n  mstore\n    /* \"#utility.yul\":939:943   */\n  0x20\n    /* \"#utility.yul\":936:937   */\n  0x00\n    /* \"#utility.yul\":926:944   */\n  keccak256\n    /* \"#utility.yul\":918:944   */\n  swap1\n  pop\n    /* \"#utility.yul\":810:951   */\n  swap2\n  swap1\n  pop\n  jump\t// out\n    /* \"#utility.yul\":957:1050   */\ntag_12:\n    /* \"#utility.yul\":994:1000   */\n  0x00\n    /* \"#utility.yul\":1041:1043   */\n  0x20\n    /* \"#utility.yul\":1036:1038   */\n  0x1f\n    /* \"#utility.yul\":1029:1034   */\n  dup4\n    /* \"#utility.yul\":1025:1039   */\n  add\n    /* \"#utility.yul\":1021:1044   */\n  div\n    /* \"#utility.yul\":1011:1044   */\n  swap1\n  pop\n    /* \"#utility.yul\":957:1050   */\n  swap2\n  swap1\n  pop\n  jump\t// out\n    /* \"#utility.yul\":1056:1163   */\ntag_13:\n    /* \"#utility.yul\":1100:1108   */\n  0x00\n    /* \"#utility.yul\":1150:1155   */\n  dup3\n    /* \"#utility.yul\":1144:1148   */\n  dup3\n    /* \"#utility.yul\":1140:1156   */\n  shl\n    /* \"#utility.yul\":1119:1156   */\n  swap1\n  pop\n    /* \"#utility.yul\":1056:1163   */\n  swap3\n  swap2\n  pop\n  pop\n  jump\t// out\n    /* \"#utility.yul\":1169:1562   */\ntag_14:\n    /* \"#utility.yul\":1238:1244   */\n  0x00\n    /* \"#utility.yul\":1288:1289   */\n  0x08\n    /* \"#utility.yul\":1276:1286   */\n  dup4\n    /* \"#utility.yul\":1272:1290   */\n  mul\n    /* \"#utility.yul\":1311:1408   */\n  tag_41\n    /* \"#utility.yul\":1341:1407   */\n  0xffffffffffffffffffffffffffffffffffffffffffffffffffffffffffffffff\n    /* \"#utility.yul\":1330:1339   */\n  dup3\n    /* \"#utility.yul\":1311:1408   */\n  tag_13\n  jump\t// in\ntag_41:\n    /* \"#utility.yul\":1429:1468   */\n  tag_42\n    /* \"#utility.yul\":1459:1467   */\n  dup7\n    /* \"#utility.yul\":1448:1457   */\n  dup4\n    /* \"#utility.yul\":1429:1468   */\n  tag_13\n  jump\t// in\ntag_42:\n    /* \"#utility.yul\":1417:1468   */\n  swap6\n  pop\n    /* \"#utility.yul\":1501:1505   */\n  dup1\n    /* \"#utility.yul\":1497:1506   */\n  not\n    /* \"#utility.yul\":1490:1495   */\n  dup5\n    /* \"#utility.yul\":1486:1507   */\n  and\n    /* \"#utility.yul\":1477:1507   */\n  swap4\n  pop\n    /* \"#utility.yul\":1550:1554   */\n  dup1\n    /* \"#utility.yul\":1540:1548   */\n  dup7\n    /* \"#utility.yul\":1536:1555   */\n  and\n    /* \"#utility.yul\":1529:1534   */\n  dup5\n    /* \"#utility.yul\":1526:1556   */\n  or\n    /* \"#utility.yul\":1516:1556   */\n  swap3\n  pop\n    /* \"#utility.yul\":1245:1562   */\n  pop\n  pop\n    /* \"#utility.yul\":1169:1562   */\n  swap4\n  swap3\n  pop\n  pop\n  pop\n  jump\t// out\n    /* \"#utility.yul\":1568:1645   */\ntag_15:\n    /* \"#utility.yul\":1605:1612   */\n  0x00\n    /* \"#utility.yul\":1634:1639   */\n  dup2\n    /* \"#utility.yul\":1623:1639   */\n  swap1\n  pop\n    /* \"#utility.yul\":1568:1645   */\n  swap2\n  swap1\n  pop\n  jump\t// out\n    /* \"#utility.yul\":1651:1711   */\ntag_16:\n    /* \"#utility.yul\":1679:1682   */\n  0x00\n    /* \"#utility.yul\":1700:1705   */\n  dup2\n    /* \"#utility.yul\":1693:1705   */\n  swap1\n  pop\n    /* \"#utility.yul\":1651:1711   */\n  swap2\n  swap1\n  pop\n  jump\t// out\n    /* \"#utility.yul\":1717:1859   */\ntag_17:\n    /* \"#utility.yul\":1767:1776   */\n  0x00\n    /* \"#utility.yul\":1800:1853   */\n  tag_46\n    /* \"#utility.yul\":1818:1852   */\n  tag_47\n    /* \"#utility.yul\":1827:1851   */\n  tag_48\n    /* \"#utility.yul\":1845:1850   */\n  dup5\n    /* \"#utility.yul\":1827:1851   */\n  tag_15\n  jump\t// in\ntag_48:\n    /* \"#utility.yul\":1818:1852   */\n  tag_16\n  jump\t// in\ntag_47:\n    /* \"#utility.yul\":1800:1853   */\n  tag_15\n  jump\t// in\ntag_46:\n    /* \"#utility.yul\":1787:1853   */\n  swap1\n  pop\n    /* \"#utility.yul\":1717:1859   */\n  swap2\n  swap1\n  pop\n  jump\t// out\n    /* \"#utility.yul\":1865:1940   */\ntag_18:\n    /* \"#utility.yul\":1908:1911   */\n  0x00\n    /* \"#utility.yul\":1929:1934   */\n  dup2\n    /* \"#utility.yul\":1922:1934   */\n  swap1\n  pop\n    /* \"#utility.yul\":1865:1940   */\n  swap2\n  swap1\n  pop\n  jump\t// out\n    /* \"#utility.yul\":1946:2215   */\ntag_19:\n    /* \"#utility.yul\":2056:2095   */\n  tag_51\n    /* \"#utility.yul\":2087:2094   */\n  dup4\n    /* \"#utility.yul\":2056:2095   */\n  tag_17\n  jump\t// in\ntag_51:\n    /* \"#utility.yul\":2117:2208   */\n  tag_52\n    /* \"#utility.yul\":2166:2207   */\n  tag_53\n    /* \"#utility.yul\":2190:2206   */\n  dup3\n    /* \"#utility.yul\":2166:2207   */\n  tag_18\n  jump\t// in\ntag_53:\n    /* \"#utility.yul\":2158:2164   */\n  dup5\n    /* \"#utility.yul\":2151:2155   */\n  dup5\n    /* \"#utility.yul\":2145:2156   */\n  sload\n    /* \"#utility.yul\":2117:2208   */\n  tag_14\n  jump\t// in\ntag_52:\n    /* \"#utility.yul\":2111:2115   */\n  dup3\n    /* \"#utility.yul\":2104:2209   */\n  sstore\n    /* \"#utility.yul\":2022:2215   */\n  pop\n    /* \"#utility.yul\":1946:2215   */\n  pop\n  pop\n  pop\n  jump\t// out\n    /* \"#utility.yul\":2221:2294   */\ntag_20:\n    /* \"#utility.yul\":2266:2269   */\n  0x00\n    /* \"#utility.yul\":2221:2294   */\n  swap1\n  jump\t// out\n    /* \"#utility.yul\":2300:2489   */\ntag_21:\n    /* \"#utility.yul\":2377:2409   */\n  tag_56\n  tag_20\n  jump\t// in\ntag_56:\n    /* \"#utility.yul\":2418:2483   */\n  tag_57\n    /* \"#utility.yul\":2476:2482   */\n  dup2\n    /* \"#utility.yul\":2468:2474   */\n  dup5\n    /* \"#utility.yul\":2462:2466   */\n  dup5\n    /* \"#utility.yul\":2418:2483   */\n  tag_19\n  jump\t// in\ntag_57:\n    /* \"#utility.yul\":2353:2489   */\n  pop\n    /* \"#utility.yul\":2300:2489   */\n  pop\n  pop\n  jump\t// out\n    /* \"#utility.yul\":2495:2681   */\ntag_22:\n    /* \"#utility.yul\":2555:2675   */\ntag_59:\n    /* \"#utility.yul\":2572:2575   */\n  dup2\n    /* \"#utility.yul\":2565:2570   */\n  dup2\n    /* \"#utility.yul\":2562:2576   */\n  lt\n    /* \"#utility.yul\":2555:2675   */\n  iszero\n  tag_61\n  jumpi\n    /* \"#utility.yul\":2626:2665   */\n  tag_62\n    /* \"#utility.yul\":2663:2664   */\n  0x00\n    /* \"#utility.yul\":2656:2661   */\n  dup3\n    /* \"#utility.yul\":2626:2665   */\n  tag_21\n  jump\t// in\ntag_62:\n    /* \"#utility.yul\":2599:2600   */\n  0x01\n    /* \"#utility.yul\":2592:2597   */\n  dup2\n    /* \"#utility.yul\":2588:2601   */\n  add\n    /* \"#utility.yul\":2579:2601   */\n  swap1\n  pop\n    /* \"#utility.yul\":2555:2675   */\n  jump(tag_59)\ntag_61:\n    /* \"#utility.yul\":2495:2681   */\n  pop\n  pop\n  jump\t// out\n    /* \"#utility.yul\":2687:3230   */\ntag_23:\n    /* \"#utility.yul\":2788:2790   */\n  0x1f\n    /* \"#utility.yul\":2783:2786   */\n  dup3\n    /* \"#utility.yul\":2780:2791   */\n  gt\n    /* \"#utility.yul\":2777:3223   */\n  iszero\n  tag_64\n  jumpi\n    /* \"#utility.yul\":2822:2860   */\n  tag_65\n    /* \"#utility.yul\":2854:2859   */\n  dup2\n    /* \"#utility.yul\":2822:2860   */\n  tag_11\n  jump\t// in\ntag_65:\n    /* \"#utility.yul\":2906:2935   */\n  tag_66\n    /* \"#utility.yul\":2924:2934   */\n  dup5\n    /* \"#utility.yul\":2906:2935   */\n  tag_12\n  jump\t// in\ntag_66:\n    /* \"#utility.yul\":2896:2904   */\n  dup2\n    /* \"#utility.yul\":2892:2936   */\n  add\n    /* \"#utility.yul\":3089:3091   */\n  0x20\n    /* \"#utility.yul\":3077:3087   */\n  dup6\n    /* \"#utility.yul\":3074:3092   */\n  lt\n    /* \"#utility.yul\":3071:3120   */\n  iszero\n  tag_67\n  jumpi\n    /* \"#utility.yul\":3110:3118   */\n  dup2\n    /* \"#utility.yul\":3095:3118   */\n  swap1\n  pop\n    /* \"#utility.yul\":3071:3120   */\ntag_67:\n    /* \"#utility.yul\":3133:3213   */\n  tag_68\n    /* \"#utility.yul\":3189:3211   */\n  tag_69\n    /* \"#utility.yul\":3207:3210   */\n  dup6\n    /* \"#utility.yul\":3189:3211   */\n  tag_12\n  jump\t// in\ntag_69:\n    /* \"#utility.yul\":3179:3187   */\n  dup4\n    /* \"#utility.yul\":3175:3212   */\n  add\n    /* \"#utility.yul\":3162:3173   */\n  dup3\n    /* \"#utility.yul\":3133:3213   */\n  tag_22\n  jump\t// in\ntag_68:\n    /* \"#utility.yul\":2792:3223   */\n  pop\n  pop\n    /* \"#utility.yul\":2777:3223   */\ntag_64:\n    /* \"#utility.yul\":2687:3230   */\n  pop\n  pop\n  pop\n  jump\t// out\n    /* \"#utility.yul\":3236:3353   */\ntag_24:\n    /* \"#utility.yul\":3290:3298   */\n  0x00\n    /* \"#utility.yul\":3340:3345   */\n  dup3\n    /* \"#utility.yul\":3334:3338   */\n  dup3\n    /* \"#utility.yul\":3330:3346   */\n  shr\n    /* \"#utility.yul\":3309:3346   */\n  swap1\n  pop\n    /* \"#utility.yul\":3236:3353   */\n  swap3\n  swap2\n  pop\n  pop\n  jump\t// out\n    /* \"#utility.yul\":3359:3528   */\ntag_25:\n    /* \"#utility.yul\":3403:3409   */\n  0x00\n    /* \"#utility.yul\":3436:3487   */\n  tag_72\n    /* \"#utility.yul\":3484:3485   */\n  0x00\n    /* \"#utility.yul\":3480:3486   */\n  not\n    /* \"#utility.yul\":3472:3477   */\n  dup5\n    /* \"#utility.yul\":3469:3470   */\n  0x08\n    /* \"#utility.yul\":3465:3478   */\n  mul\n    /* \"#utility.yul\":3436:3487   */\n  tag_24\n  jump\t// in\ntag_72:\n    /* \"#utility.yul\":3432:3488   */\n  not\n    /* \"#utility.yul\":3517:3521   */\n  dup1\n    /* \"#utility.yul\":3511:3515   */\n  dup4\n    /* \"#utility.yul\":3507:3522   */\n  and\n    /* \"#utility.yul\":3497:3522   */\n  swap2\n  pop\n    /* \"#utility.yul\":3410:3528   */\n  pop\n    /* \"#utility.yul\":3359:3528   */\n  swap3\n  swap2\n  pop\n  pop\n  jump\t// out\n    /* \"#utility.yul\":3533:3828   */\ntag_26:\n    /* \"#utility.yul\":3609:3613   */\n  0x00\n    /* \"#utility.yul\":3755:3784   */\n  tag_74\n    /* \"#utility.yul\":3780:3783   */\n  dup4\n    /* \"#utility.yul\":3774:3778   */\n  dup4\n    /* \"#utility.yul\":3755:3784   */\n  tag_25\n  jump\t// in\ntag_74:\n    /* \"#utility.yul\":3747:3784   */\n  swap2\n  pop\n    /* \"#utility.yul\":3817:3820   */\n  dup3\n    /* \"#utility.yul\":3814:3815   */\n  0x02\n    /* \"#utility.yul\":3810:3821   */\n  mul\n    /* \"#utility.yul\":3804:3808   */\n  dup3\n    /* \"#utility.yul\":3801:3822   */\n  or\n    /* \"#utility.yul\":3793:3822   */\n  swap1\n  pop\n    /* \"#utility.yul\":3533:3828   */\n  swap3\n  swap2\n  pop\n  pop\n  jump\t// out\n    /* \"#utility.yul\":3833:5228   */\ntag_2:\n    /* \"#utility.yul\":3950:3987   */\n  tag_76\n    /* \"#utility.yul\":3983:3986   */\n  dup3\n    /* \"#utility.yul\":3950:3987   */\n  tag_7\n  jump\t// in\ntag_76:\n    /* \"#utility.yul\":4052:4070   */\n  0xffffffffffffffff\n    /* \"#utility.yul\":4044:4050   */\n  dup2\n    /* \"#utility.yul\":4041:4071   */\n  gt\n    /* \"#utility.yul\":4038:4094   */\n  iszero\n  tag_77\n  jumpi\n    /* \"#utility.yul\":4074:4092   */\n  tag_78\n  tag_8\n  jump\t// in\ntag_78:\n    /* \"#utility.yul\":4038:4094   */\ntag_77:\n    /* \"#utility.yul\":4118:4156   */\n  tag_79\n    /* \"#utility.yul\":4150:4154   */\n  dup3\n    /* \"#utility.yul\":4144:4155   */\n  sload\n    /* \"#utility.yul\":4118:4156   */\n  tag_10\n  jump\t// in\ntag_79:\n    /* \"#utility.yul\":4203:4270   */\n  tag_80\n    /* \"#utility.yul\":4263:4269   */\n  dup3\n    /* \"#utility.yul\":4255:4261   */\n  dup3\n    /* \"#utility.yul\":4249:4253   */\n  dup6\n    /* \"#utility.yul\":4203:4270   */\n  tag_23\n  jump\t// in\ntag_80:\n    /* \"#utility.yul\":4297:4298   */\n  0x00\n    /* \"#utility.yul\":4321:4325   */\n  0x20\n    /* \"#utility.yul\":4308:4325   */\n  swap1\n  pop\n    /* \"#utility.yul\":4353:4355   */\n  0x1f\n    /* \"#utility.yul\":4345:4351   */\n  dup4\n    /* \"#utility.yul\":4342:4356   */\n  gt\n    /* \"#utility.yul\":4370:4371   */\n  0x01\n    /* \"#utility.yul\":4365:4983   */\n  dup2\n  eq\n  tag_82\n  jumpi\n    /* \"#utility.yul\":5027:5028   */\n  0x00\n    /* \"#utility.yul\":5044:5050   */\n  dup5\n    /* \"#utility.yul\":5041:5118   */\n  iszero\n  tag_83\n  jumpi\n    /* \"#utility.yul\":5093:5102   */\n  dup3\n    /* \"#utility.yul\":5088:5091   */\n  dup8\n    /* \"#utility.yul\":5084:5103   */\n  add\n    /* \"#utility.yul\":5078:5104   */\n  mload\n    /* \"#utility.yul\":5069:5104   */\n  swap1\n  pop\n    /* \"#utility.yul\":5041:5118   */\ntag_83:\n    /* \"#utility.yul\":5144:5211   */\n  tag_84\n    /* \"#utility.yul\":5204:5210   */\n  dup6\n    /* \"#utility.yul\":5197:5202   */\n  dup3\n    /* \"#utility.yul\":5144:5211   */\n  tag_26\n  jump\t// in\ntag_84:\n    /* \"#utility.yul\":5138:5142   */\n  dup7\n    /* \"#utility.yul\":5131:5212   */\n  sstore\n    /* \"#utility.yul\":5000:5222   */\n  pop\n    /* \"#utility.yul\":4335:5222   */\n  jump(tag_81)\n    /* \"#utility.yul\":4365:4983   */\ntag_82:\n    /* \"#utility.yul\":4417:4421   */\n  0x1f\n    /* \"#utility.yul\":4413:4422   */\n  not\n    /* \"#utility.yul\":4405:4411   */\n  dup5\n    /* \"#utility.yul\":4401:4423   */\n  and\n    /* \"#utility.yul\":4451:4488   */\n  tag_85\n    /* \"#utility.yul\":4483:4487   */\n  dup7\n    /* \"#utility.yul\":4451:4488   */\n  tag_11\n  jump\t// in\ntag_85:\n    /* \"#utility.yul\":4510:4511   */\n  0x00\n    /* \"#utility.yul\":4524:4732   */\ntag_86:\n    /* \"#utility.yul\":4538:4545   */\n  dup3\n    /* \"#utility.yul\":4535:4536   */\n  dup2\n    /* \"#utility.yul\":4532:4546   */\n  lt\n    /* \"#utility.yul\":4524:4732   */\n  iszero\n  tag_88\n  jumpi\n    /* \"#utility.yul\":4617:4626   */\n  dup5\n    /* \"#utility.yul\":4612:4615   */\n  dup10\n    /* \"#utility.yul\":4608:4627   */\n  add\n    /* \"#utility.yul\":4602:4628   */\n  mload\n    /* \"#utility.yul\":4594:4600   */\n  dup3\n    /* \"#utility.yul\":4587:4629   */\n  sstore\n    /* \"#utility.yul\":4668:4669   */\n  0x01\n    /* \"#utility.yul\":4660:4666   */\n  dup3\n    /* \"#utility.yul\":4656:4670   */\n  add\n    /* \"#utility.yul\":4646:4670   */\n  swap2\n  pop\n    /* \"#utility.yul\":4715:4717   */\n  0x20\n    /* \"#utility.yul\":4704:4713   */\n  dup6\n    /* \"#utility.yul\":4700:4718   */\n  add\n    /* \"#utility.yul\":4687:4718   */\n  swap5\n  pop\n    /* \"#utility.yul\":4561:4565   */\n  0x20\n    /* \"#utility.yul\":4558:4559   */\n  dup2\n    /* \"#utility.yul\":4554:4566   */\n  add\n    /* \"#utility.yul\":4549:4566   */\n  swap1\n  pop\n    /* \"#utility.yul\":4524:4732   */\n  jump(tag_86)\ntag_88:\n    /* \"#utility.yul\":4760:4766   */\n  dup7\n    /* \"#utility.yul\":4751:4758   */\n  dup4\n    /* \"#utility.yul\":4748:4767   */\n  lt\n    /* \"#utility.yul\":4745:4924   */\n  iszero\n  tag_89\n  jumpi\n    /* \"#utility.yul\":4818:4827   */\n  dup5\n    /* \"#utility.yul\":4813:4816   */\n  dup10\n    /* \"#utility.yul\":4809:4828   */\n  add\n    /* \"#utility.yul\":4803:4829   */\n  mload\n    /* \"#utility.yul\":4861:4909   */\n  tag_90\n    /* \"#utility.yul\":4903:4907   */\n  0x1f\n    /* \"#utility.yul\":4895:4901   */\n  dup10\n    /* \"#utility.yul\":4891:4908   */\n  and\n    /* \"#utility.yul\":4880:4889   */\n  dup3\n    /* \"#utility.yul\":4861:4909   */\n  tag_25\n  jump\t// in\ntag_90:\n    /* \"#utility.yul\":4853:4859   */\n  dup4\n    /* \"#utility.yul\":4846:4910   */\n  sstore\n    /* \"#utility.yul\":4768:4924   */\n  pop\n    /* \"#utility.yul\":4745:4924   */\ntag_89:\n    /* \"#utility.yul\":4970:4971   */\n  0x01\n    /* \"#utility.yul\":4966:4967   */\n  0x02\n    /* \"#utility.yul\":4958:4964   */\n  dup9\n    /* \"#utility.yul\":4954:4968   */\n  mul\n    /* \"#utility.yul\":4950:4972   */\n  add\n    /* \"#utility.yul\":4944:4948   */\n  dup9\n    /* \"#utility.yul\":4937:4973   */\n  sstore\n    /* \"#utility.yul\":4372:4983   */\n  pop\n  pop\n  pop\n    /* \"#utility.yul\":4335:5222   */\ntag_81:\n  pop\n    /* \"#utility.yul\":3925:5228   */\n  pop\n  pop\n  pop\n    /* \"#utility.yul\":3833:5228   */\n  pop\n  pop\n  jump\t// out\n    /* \"#utility.yul\":5234:5374   */\ntag_27:\n    /* \"#utility.yul\":5282:5286   */\n  0x00\n    /* \"#utility.yul\":5305:5308   */\n  dup2\n    /* \"#utility.yul\":5297:5308   */\n  swap1\n  pop\n    /* \"#utility.yul\":5328:5331   */\n  dup2\n    /* \"#utility.yul\":5325:5326   */\n  0x00\n    /* \"#utility.yul\":5318:5332   */\n  mstore\n    /* \"#utility.yul\":5362:5366   */\n  0x20\n    /* \"#utility.yul\":5359:5360   */\n  0x00\n    /* \"#utility.yul\":5349:5367   */\n  keccak256\n    /* \"#utility.yul\":5341:5367   */\n  swap1\n  pop\n    /* \"#utility.yul\":5234:5374   */\n  swap2\n  swap1\n  pop\n  jump\t// out\n    /* \"#utility.yul\":5380:5921   */\ntag_28:\n    /* \"#utility.yul\":5480:5482   */\n  0x1f\n    /* \"#utility.yul\":5475:5478   */\n  dup3\n    /* \"#utility.yul\":5472:5483   */\n  gt\n    /* \"#utility.yul\":5469:5914   */\n  iszero\n  tag_93\n  jumpi\n    /* \"#utility.yul\":5514:5551   */\n  tag_94\n    /* \"#utility.yul\":5545:5550   */\n  dup2\n    /* \"#utility.yul\":5514:5551   */\n  tag_27\n  jump\t// in\ntag_94:\n    /* \"#utility.yul\":5597:5626   */\n  tag_95\n    /* \"#utility.yul\":5615:5625   */\n  dup5\n    /* \"#utility.yul\":5597:5626   */\n  tag_12\n  jump\t// in\ntag_95:\n    /* \"#utility.yul\":5587:5595   */\n  dup2\n    /* \"#utility.yul\":5583:5627   */\n  add\n    /* \"#utility.yul\":5780:5782   */\n  0x20\n    /* \"#utility.yul\":5768:5778   */\n  dup6\n    /* \"#utility.yul\":5765:5783   */\n  lt\n    /* \"#utility.yul\":5762:5811   */\n  iszero\n  tag_96\n  jumpi\n    /* \"#utility.yul\":5801:5809   */\n  dup2\n    /* \"#utility.yul\":5786:5809   */\n  swap1\n  pop\n    /* \"#utility.yul\":5762:5811   */\ntag_96:\n    /* \"#utility.yul\":5824:5904   */\n  tag_97\n    /* \"#utility.yul\":5880:5902   */\n  tag_98\n    /* \"#utility.yul\":5898:5901   */\n  dup6\n    /* \"#utility.yul\":5880:5902   */\n  tag_12\n  jump\t// in\ntag_98:\n    /* \"#utility.yul\":5870:5878   */\n  dup4\n    /* \"#utility.yul\":5866:5903   */\n  add\n    /* \"#utility.yul\":5853:5864   */\n  dup3\n    /* \"#utility.yul\":5824:5904   */\n  tag_22\n  jump\t// in\ntag_97:\n    /* \"#utility.yul\":5484:5914   */\n  pop\n  pop\n    /* \"#utility.yul\":5469:5914   */\ntag_93:\n    /* \"#utility.yul\":5380:5921   */\n  pop\n  pop\n  pop\n  jump\t// out\n    /* \"#utility.yul\":5927:7319   */\ntag_4:\n    /* \"#utility.yul\":6043:6080   */\n  tag_100\n    /* \"#utility.yul\":6076:6079   */\n  dup3\n    /* \"#utility.yul\":6043:6080   */\n  tag_7\n  jump\t// in\ntag_100:\n    /* \"#utility.yul\":6145:6163   */\n  0xffffffffffffffff\n    /* \"#utility.yul\":6137:6143   */\n  dup2\n    /* \"#utility.yul\":6134:6164   */\n  gt\n    /* \"#utility.yul\":6131:6187   */\n  iszero\n  tag_101\n  jumpi\n    /* \"#utility.yul\":6167:6185   */\n  tag_102\n  tag_8\n  jump\t// in\ntag_102:\n    /* \"#utility.yul\":6131:6187   */\ntag_101:\n    /* \"#utility.yul\":6211:6249   */\n  tag_103\n    /* \"#utility.yul\":6243:6247   */\n  dup3\n    /* \"#utility.yul\":6237:6248   */\n  sload\n    /* \"#utility.yul\":6211:6249   */\n  tag_10\n  jump\t// in\ntag_103:\n    /* \"#utility.yul\":6296:6362   */\n  tag_104\n    /* \"#utility.yul\":6355:6361   */\n  dup3\n    /* \"#utility.yul\":6347:6353   */\n  dup3\n    /* \"#utility.yul\":6341:6345   */\n  dup6\n    /* \"#utility.yul\":6296:6362   */\n  tag_28\n  jump\t// in\ntag_104:\n    /* \"#utility.yul\":6389:6390   */\n  0x00\n    /* \"#utility.yul\":6413:6417   */\n  0x20\n    /* \"#utility.yul\":6400:6417   */\n  swap1\n  pop\n    /* \"#utility.yul\":6445:6447   */\n  0x1f\n    /* \"#utility.yul\":6437:6443   */\n  dup4\n    /* \"#utility.yul\":6434:6448   */\n  gt\n    /* \"#utility.yul\":6462:6463   */\n  0x01\n    /* \"#utility.yul\":6457:7074   */\n  dup2\n  eq\n  tag_106\n  jumpi\n    /* \"#utility.yul\":7118:7119   */\n  0x00\n    /* \"#utility.yul\":7135:7141   */\n  dup5\n    /* \"#utility.yul\":7132:7209   */\n  iszero\n  tag_107\n  jumpi\n    /* \"#utility.yul\":7184:7193   */\n  dup3\n    /* \"#utility.yul\":7179:7182   */\n  dup8\n    /* \"#utility.yul\":7175:7194   */\n  add\n    /* \"#utility.yul\":7169:7195   */\n  mload\n    /* \"#utility.yul\":7160:7195   */\n  swap1\n  pop\n    /* \"#utility.yul\":7132:7209   */\ntag_107:\n    /* \"#utility.yul\":7235:7302   */\n  tag_108\n    /* \"#utility.yul\":7295:7301   */\n  dup6\n    /* \"#utility.yul\":7288:7293   */\n  dup3\n    /* \"#utility.yul\":7235:7302   */\n  tag_26\n  jump\t// in\ntag_108:\n    /* \"#utility.yul\":7229:7233   */\n  dup7\n    /* \"#utility.yul\":7222:7303   */\n  sstore\n    /* \"#utility.yul\":7091:7313   */\n  pop\n    /* \"#utility.yul\":6427:7313   */\n  jump(tag_105)\n    /* \"#utility.yul\":6457:7074   */\ntag_106:\n    /* \"#utility.yul\":6509:6513   */\n  0x1f\n    /* \"#utility.yul\":6505:6514   */\n  not\n    /* \"#utility.yul\":6497:6503   */\n  dup5\n    /* \"#utility.yul\":6493:6515   */\n  and\n    /* \"#utility.yul\":6543:6579   */\n  tag_109\n    /* \"#utility.yul\":6574:6578   */\n  dup7\n    /* \"#utility.yul\":6543:6579   */\n  tag_27\n  jump\t// in\ntag_109:\n    /* \"#utility.yul\":6601:6602   */\n  0x00\n    /* \"#utility.yul\":6615:6823   */\ntag_110:\n    /* \"#utility.yul\":6629:6636   */\n  dup3\n    /* \"#utility.yul\":6626:6627   */\n  dup2\n    /* \"#utility.yul\":6623:6637   */\n  lt\n    /* \"#utility.yul\":6615:6823   */\n  iszero\n  tag_112\n  jumpi\n    /* \"#utility.yul\":6708:6717   */\n  dup5\n    /* \"#utility.yul\":6703:6706   */\n  dup10\n    /* \"#utility.yul\":6699:6718   */\n  add\n    /* \"#utility.yul\":6693:6719   */\n  mload\n    /* \"#utility.yul\":6685:6691   */\n  dup3\n    /* \"#utility.yul\":6678:6720   */\n  sstore\n    /* \"#utility.yul\":6759:6760   */\n  0x01\n    /* \"#utility.yul\":6751:6757   */\n  dup3\n    /* \"#utility.yul\":6747:6761   */\n  add\n    /* \"#utility.yul\":6737:6761   */\n  swap2\n  pop\n    /* \"#utility.yul\":6806:6808   */\n  0x20\n    /* \"#utility.yul\":6795:6804   */\n  dup6\n    /* \"#utility.yul\":6791:6809   */\n  add\n    /* \"#utility.yul\":6778:6809   */\n  swap5\n  pop\n    /* \"#utility.yul\":6652:6656   */\n  0x20\n    /* \"#utility.yul\":6649:6650   */\n  dup2\n    /* \"#utility.yul\":6645:6657   */\n  add\n    /* \"#utility.yul\":6640:6657   */\n  swap1\n  pop\n    /* \"#utility.yul\":6615:6823   */\n  jump(tag_110)\ntag_112:\n    /* \"#utility.yul\":6851:6857   */\n  dup7\n    /* \"#utility.yul\":6842:6849   */\n  dup4\n    /* \"#utility.yul\":6839:6858   */\n  lt\n    /* \"#utility.yul\":6836:7015   */\n  iszero\n  tag_113\n  jumpi\n    /* \"#utility.yul\":6909:6918   */\n  dup5\n    /* \"#utility.yul\":6904:6907   */\n  dup10\n    /* \"#utility.yul\":6900:6919   */\n  add\n    /* \"#utility.yul\":6894:6920   */\n  mload\n    /* \"#utility.yul\":6952:7000   */\n  tag_114\n    /* \"#utility.yul\":6994:6998   */\n  0x1f\n    /* \"#utility.yul\":6986:6992   */\n  dup10\n    /* \"#utility.yul\":6982:6999   */\n  and\n    /* \"#utility.yul\":6971:6980   */\n  dup3\n    /* \"#utility.yul\":6952:7000   */\n  tag_25\n  jump\t// in\ntag_114:\n    /* \"#utility.yul\":6944:6950   */\n  dup4\n    /* \"#utility.yul\":6937:7001   */\n  sstore\n    /* \"#utility.yul\":6859:7015   */\n  pop\n    /* \"#utility.yul\":6836:7015   */\ntag_113:\n    /* \"#utility.yul\":7061:7062   */\n  0x01\n    /* \"#utility.yul\":7057:7058   */\n  0x02\n    /* \"#utility.yul\":7049:7055   */\n  dup9\n    /* \"#utility.yul\":7045:7059   */\n  mul\n    /* \"#utility.yul\":7041:7063   */\n  add\n    /* \"#utility.yul\":7035:7039   */\n  dup9\n    /* \"#utility.yul\":7028:7064   */\n  sstore\n    /* \"#utility.yul\":6464:7074   */\n  pop\n  pop\n  pop\n    /* \"#utility.yul\":6427:7313   */\ntag_105:\n  pop\n    /* \"#utility.yul\":6018:7319   */\n  pop\n  pop\n  pop\n    /* \"#utility.yul\":5927:7319   */\n  pop\n  pop\n  jump\t// out\n    /* \"contracts/exampleStrings.sol\":60:634  contract exampleStrings{... */\ntag_6:\n  dataSize(sub_0)\n  dup1\n  dataOffset(sub_0)\n  0x00\n  codecopy\n  0x00\n  return\nstop\n\nsub_0: assembly {\n        /* \"contracts/exampleStrings.sol\":60:634  contract exampleStrings{... */\n      mstore(0x40, 0x80)\n      callvalue\n      dup1\n      iszero\n      tag_1\n      jumpi\n      0x00\n      dup1\n      revert\n    tag_1:\n      pop\n      jumpi(tag_2, lt(calldatasize, 0x04))\n      shr(0xe0, calldataload(0x00))\n      dup1\n      0x492bfa18\n      eq\n      tag_3\n      jumpi\n      dup1\n      0x5537f99e\n      eq\n      tag_4\n      jumpi\n      dup1\n      0x6ee67a4a\n      eq\n      tag_5\n      jumpi\n      dup1\n      0x712f4602\n      eq\n      tag_6\n      jumpi\n    tag_2:\n      0x00\n      dup1\n      revert\n        /* \"contracts/exampleStrings.sol\":90:128  string public myString = \"hello world\" */\n    tag_3:\n      tag_7\n      tag_8\n      jump\t// in\n    tag_7:\n      mload(0x40)\n      tag_9\n      swap2\n      swap1\n      tag_10\n      jump\t// in\n    tag_9:\n      mload(0x40)\n      dup1\n      swap2\n      sub\n      swap1\n      return\n        /* \"contracts/exampleStrings.sol\":180:270  function setstring (string memory _myString) public {... */\n    tag_4:\n      tag_11\n      0x04\n      dup1\n      calldatasize\n      sub\n      dup2\n      add\n      swap1\n      tag_12\n      swap2\n      swap1\n      tag_13\n      jump\t// in\n    tag_12:\n      tag_14\n      jump\t// in\n    tag_11:\n      stop\n        /* \"contracts/exampleStrings.sol\":278:631  function compareTwo (string memory _myString) public view returns(bool) {... */\n    tag_5:\n      tag_15\n      0x04\n      dup1\n      calldatasize\n      sub\n      dup2\n      add\n      swap1\n      tag_16\n      swap2\n      swap1\n      tag_13\n      jump\t// in\n    tag_16:\n      tag_17\n      jump\t// in\n    tag_15:\n      mload(0x40)\n      tag_18\n      swap2\n      swap1\n      tag_19\n      jump\t// in\n    tag_18:\n      mload(0x40)\n      dup1\n      swap2\n      sub\n      swap1\n      return\n        /* \"contracts/exampleStrings.sol\":135:171  bytes public myBytes = \"hello world\" */\n    tag_6:\n      tag_20\n      tag_21\n      jump\t// in\n    tag_20:\n      mload(0x40)\n      tag_22\n      swap2\n      swap1\n      tag_23\n      jump\t// in\n    tag_22:\n      mload(0x40)\n      dup1\n      swap2\n      sub\n      swap1\n      return\n        /* \"contracts/exampleStrings.sol\":90:128  string public myString = \"hello world\" */\n    tag_8:\n      0x00\n      dup1\n      sload\n      tag_24\n      swap1\n      tag_25\n      jump\t// in\n    tag_24:\n      dup1\n      0x1f\n      add\n      0x20\n      dup1\n      swap2\n      div\n      mul\n      0x20\n      add\n      mload(0x40)\n      swap1\n      dup2\n      add\n      0x40\n      mstore\n      dup1\n      swap3\n      swap2\n      swap1\n      dup2\n      dup2\n      mstore\n      0x20\n      add\n      dup3\n      dup1\n      sload\n      tag_26\n      swap1\n      tag_25\n      jump\t// in\n    tag_26:\n      dup1\n      iszero\n      tag_27\n      jumpi\n      dup1\n      0x1f\n      lt\n      tag_28\n      jumpi\n      0x0100\n      dup1\n      dup4\n      sload\n      div\n      mul\n      dup4\n      mstore\n      swap2\n      0x20\n      add\n      swap2\n      jump(tag_27)\n    tag_28:\n      dup3\n      add\n      swap2\n      swap1\n      0x00\n      mstore\n      keccak256(0x00, 0x20)\n      swap1\n    tag_29:\n      dup2\n      sload\n      dup2\n      mstore\n      swap1\n      0x01\n      add\n      swap1\n      0x20\n      add\n      dup1\n      dup4\n      gt\n      tag_29\n      jumpi\n      dup3\n      swap1\n      sub\n      0x1f\n      and\n      dup3\n      add\n      swap2\n    tag_27:\n      pop\n      pop\n      pop\n      pop\n      pop\n      dup2\n      jump\t// out\n        /* \"contracts/exampleStrings.sol\":180:270  function setstring (string memory _myString) public {... */\n    tag_14:\n        /* \"contracts/exampleStrings.sol\":253:262  _myString */\n      dup1\n        /* \"contracts/exampleStrings.sol\":243:251  myString */\n      0x00\n        /* \"contracts/exampleStrings.sol\":243:262  myString =_myString */\n      swap1\n      dup2\n      tag_31\n      swap2\n      swap1\n      tag_32\n      jump\t// in\n    tag_31:\n      pop\n        /* \"contracts/exampleStrings.sol\":180:270  function setstring (string memory _myString) public {... */\n      pop\n      jump\t// out\n        /* \"contracts/exampleStrings.sol\":278:631  function compareTwo (string memory _myString) public view returns(bool) {... */\n    tag_17:\n        /* \"contracts/exampleStrings.sol\":344:348  bool */\n      0x00\n        /* \"contracts/exampleStrings.sol\":434:443  _myString */\n      dup2\n        /* \"contracts/exampleStrings.sol\":417:444  abi.encodePacked(_myString) */\n      add(0x20, mload(0x40))\n      tag_34\n      swap2\n      swap1\n      tag_35\n      jump\t// in\n    tag_34:\n      mload(0x40)\n      0x20\n      dup2\n      dup4\n      sub\n      sub\n      dup2\n      mstore\n      swap1\n      0x40\n      mstore\n        /* \"contracts/exampleStrings.sol\":407:445  keccak256(abi.encodePacked(_myString)) */\n      dup1\n      mload\n      swap1\n      0x20\n      add\n      keccak256\n        /* \"contracts/exampleStrings.sol\":395:403  myString */\n      0x00\n        /* \"contracts/exampleStrings.sol\":378:404  abi.encodePacked(myString) */\n      add(0x20, mload(0x40))\n      tag_36\n      swap2\n      swap1\n      tag_37\n      jump\t// in\n    tag_36:\n      mload(0x40)\n      0x20\n      dup2\n      dup4\n      sub\n      sub\n      dup2\n      mstore\n      swap1\n      0x40\n      mstore\n        /* \"contracts/exampleStrings.sol\":368:405  keccak256(abi.encodePacked(myString)) */\n      dup1\n      mload\n      swap1\n      0x20\n      add\n      keccak256\n        /* \"contracts/exampleStrings.sol\":368:445  keccak256(abi.encodePacked(myString))==keccak256(abi.encodePacked(_myString)) */\n      eq\n        /* \"contracts/exampleStrings.sol\":361:445  return keccak256(abi.encodePacked(myString))==keccak256(abi.encodePacked(_myString)) */\n      swap1\n      pop\n        /* \"contracts/exampleStrings.sol\":278:631  function compareTwo (string memory _myString) public view returns(bool) {... */\n      swap2\n      swap1\n      pop\n      jump\t// out\n        /* \"contracts/exampleStrings.sol\":135:171  bytes public myBytes = \"hello world\" */\n    tag_21:\n      0x01\n      dup1\n      sload\n      tag_38\n      swap1\n      tag_25\n      jump\t// in\n    tag_38:\n      dup1\n      0x1f\n      add\n      0x20\n      dup1\n      swap2\n      div\n      mul\n      0x20\n      add\n      mload(0x40)\n      swap1\n      dup2\n      add\n      0x40\n      mstore\n      dup1\n      swap3\n      swap2\n      swap1\n      dup2\n      dup2\n      mstore\n      0x20\n      add\n      dup3\n      dup1\n      sload\n      tag_39\n      swap1\n      tag_25\n      jump\t// in\n    tag_39:\n      dup1\n      iszero\n      tag_40\n      jumpi\n      dup1\n      0x1f\n      lt\n      tag_41\n      jumpi\n      0x0100\n      dup1\n      dup4\n      sload\n      div\n      mul\n      dup4\n      mstore\n      swap2\n      0x20\n      add\n      swap2\n      jump(tag_40)\n    tag_41:\n      dup3\n      add\n      swap2\n      swap1\n      0x00\n      mstore\n      keccak256(0x00, 0x20)\n      swap1\n    tag_42:\n      dup2\n      sload\n      dup2\n      mstore\n      swap1\n      0x01\n      add\n      swap1\n      0x20\n      add\n      dup1\n      dup4\n      gt\n      tag_42\n      jumpi\n      dup3\n      swap1\n      sub\n      0x1f\n      and\n      dup3\n      add\n      swap2\n    tag_40:\n      pop\n      pop\n      pop\n      pop\n      pop\n      dup2\n      jump\t// out\n        /* \"#utility.yul\":7:106   */\n    tag_43:\n        /* \"#utility.yul\":59:65   */\n      0x00\n        /* \"#utility.yul\":93:98   */\n      dup2\n        /* \"#utility.yul\":87:99   */\n      mload\n        /* \"#utility.yul\":77:99   */\n      swap1\n      pop\n        /* \"#utility.yul\":7:106   */\n      swap2\n      swap1\n      pop\n      jump\t// out\n        /* \"#utility.yul\":112:281   */\n    tag_44:\n        /* \"#utility.yul\":196:207   */\n      0x00\n        /* \"#utility.yul\":230:236   */\n      dup3\n        /* \"#utility.yul\":225:228   */\n      dup3\n        /* \"#utility.yul\":218:237   */\n      mstore\n        /* \"#utility.yul\":270:274   */\n      0x20\n        /* \"#utility.yul\":265:268   */\n      dup3\n        /* \"#utility.yul\":261:275   */\n      add\n        /* \"#utility.yul\":246:275   */\n      swap1\n      pop\n        /* \"#utility.yul\":112:281   */\n      swap3\n      swap2\n      pop\n      pop\n      jump\t// out\n        /* \"#utility.yul\":287:426   */\n    tag_45:\n        /* \"#utility.yul\":376:382   */\n      dup3\n        /* \"#utility.yul\":371:374   */\n      dup2\n        /* \"#utility.yul\":366:369   */\n      dup4\n        /* \"#utility.yul\":360:383   */\n      mcopy\n        /* \"#utility.yul\":417:418   */\n      0x00\n        /* \"#utility.yul\":408:414   */\n      dup4\n        /* \"#utility.yul\":403:406   */\n      dup4\n        /* \"#utility.yul\":399:415   */\n      add\n        /* \"#utility.yul\":392:419   */\n      mstore\n        /* \"#utility.yul\":287:426   */\n      pop\n      pop\n      pop\n      jump\t// out\n        /* \"#utility.yul\":432:534   */\n    tag_46:\n        /* \"#utility.yul\":473:479   */\n      0x00\n        /* \"#utility.yul\":524:526   */\n      0x1f\n        /* \"#utility.yul\":520:527   */\n      not\n        /* \"#utility.yul\":515:517   */\n      0x1f\n        /* \"#utility.yul\":508:513   */\n      dup4\n        /* \"#utility.yul\":504:518   */\n      add\n        /* \"#utility.yul\":500:528   */\n      and\n        /* \"#utility.yul\":490:528   */\n      swap1\n      pop\n        /* \"#utility.yul\":432:534   */\n      swap2\n      swap1\n      pop\n      jump\t// out\n        /* \"#utility.yul\":540:917   */\n    tag_47:\n        /* \"#utility.yul\":628:631   */\n      0x00\n        /* \"#utility.yul\":656:695   */\n      tag_91\n        /* \"#utility.yul\":689:694   */\n      dup3\n        /* \"#utility.yul\":656:695   */\n      tag_43\n      jump\t// in\n    tag_91:\n        /* \"#utility.yul\":711:782   */\n      tag_92\n        /* \"#utility.yul\":775:781   */\n      dup2\n        /* \"#utility.yul\":770:773   */\n      dup6\n        /* \"#utility.yul\":711:782   */\n      tag_44\n      jump\t// in\n    tag_92:\n        /* \"#utility.yul\":704:782   */\n      swap4\n      pop\n        /* \"#utility.yul\":791:856   */\n      tag_93\n        /* \"#utility.yul\":849:855   */\n      dup2\n        /* \"#utility.yul\":844:847   */\n      dup6\n        /* \"#utility.yul\":837:841   */\n      0x20\n        /* \"#utility.yul\":830:835   */\n      dup7\n        /* \"#utility.yul\":826:842   */\n      add\n        /* \"#utility.yul\":791:856   */\n      tag_45\n      jump\t// in\n    tag_93:\n        /* \"#utility.yul\":881:910   */\n      tag_94\n        /* \"#utility.yul\":903:909   */\n      dup2\n        /* \"#utility.yul\":881:910   */\n      tag_46\n      jump\t// in\n    tag_94:\n        /* \"#utility.yul\":876:879   */\n      dup5\n        /* \"#utility.yul\":872:911   */\n      add\n        /* \"#utility.yul\":865:911   */\n      swap2\n      pop\n        /* \"#utility.yul\":632:917   */\n      pop\n        /* \"#utility.yul\":540:917   */\n      swap3\n      swap2\n      pop\n      pop\n      jump\t// out\n        /* \"#utility.yul\":923:1236   */\n    tag_10:\n        /* \"#utility.yul\":1036:1040   */\n      0x00\n        /* \"#utility.yul\":1074:1076   */\n      0x20\n        /* \"#utility.yul\":1063:1072   */\n      dup3\n        /* \"#utility.yul\":1059:1077   */\n      add\n        /* \"#utility.yul\":1051:1077   */\n      swap1\n      pop\n        /* \"#utility.yul\":1123:1132   */\n      dup2\n        /* \"#utility.yul\":1117:1121   */\n      dup2\n        /* \"#utility.yul\":1113:1133   */\n      sub\n        /* \"#utility.yul\":1109:1110   */\n      0x00\n        /* \"#utility.yul\":1098:1107   */\n      dup4\n        /* \"#utility.yul\":1094:1111   */\n      add\n        /* \"#utility.yul\":1087:1134   */\n      mstore\n        /* \"#utility.yul\":1151:1229   */\n      tag_96\n        /* \"#utility.yul\":1224:1228   */\n      dup2\n        /* \"#utility.yul\":1215:1221   */\n      dup5\n        /* \"#utility.yul\":1151:1229   */\n      tag_47\n      jump\t// in\n    tag_96:\n        /* \"#utility.yul\":1143:1229   */\n      swap1\n      pop\n        /* \"#utility.yul\":923:1236   */\n      swap3\n      swap2\n      pop\n      pop\n      jump\t// out\n        /* \"#utility.yul\":1242:1317   */\n    tag_48:\n        /* \"#utility.yul\":1275:1281   */\n      0x00\n        /* \"#utility.yul\":1308:1310   */\n      0x40\n        /* \"#utility.yul\":1302:1311   */\n      mload\n        /* \"#utility.yul\":1292:1311   */\n      swap1\n      pop\n        /* \"#utility.yul\":1242:1317   */\n      swap1\n      jump\t// out\n        /* \"#utility.yul\":1323:1440   */\n    tag_49:\n        /* \"#utility.yul\":1432:1433   */\n      0x00\n        /* \"#utility.yul\":1429:1430   */\n      dup1\n        /* \"#utility.yul\":1422:1434   */\n      revert\n        /* \"#utility.yul\":1446:1563   */\n    tag_50:\n        /* \"#utility.yul\":1555:1556   */\n      0x00\n        /* \"#utility.yul\":1552:1553   */\n      dup1\n        /* \"#utility.yul\":1545:1557   */\n      revert\n        /* \"#utility.yul\":1569:1686   */\n    tag_51:\n        /* \"#utility.yul\":1678:1679   */\n      0x00\n        /* \"#utility.yul\":1675:1676   */\n      dup1\n        /* \"#utility.yul\":1668:1680   */\n      revert\n        /* \"#utility.yul\":1692:1809   */\n    tag_52:\n        /* \"#utility.yul\":1801:1802   */\n      0x00\n        /* \"#utility.yul\":1798:1799   */\n      dup1\n        /* \"#utility.yul\":1791:1803   */\n      revert\n        /* \"#utility.yul\":1815:1995   */\n    tag_53:\n        /* \"#utility.yul\":1863:1940   */\n      0x4e487b7100000000000000000000000000000000000000000000000000000000\n        /* \"#utility.yul\":1860:1861   */\n      0x00\n        /* \"#utility.yul\":1853:1941   */\n      mstore\n        /* \"#utility.yul\":1960:1964   */\n      0x41\n        /* \"#utility.yul\":1957:1958   */\n      0x04\n        /* \"#utility.yul\":1950:1965   */\n      mstore\n        /* \"#utility.yul\":1984:1988   */\n      0x24\n        /* \"#utility.yul\":1981:1982   */\n      0x00\n        /* \"#utility.yul\":1974:1989   */\n      revert\n        /* \"#utility.yul\":2001:2282   */\n    tag_54:\n        /* \"#utility.yul\":2084:2111   */\n      tag_104\n        /* \"#utility.yul\":2106:2110   */\n      dup3\n        /* \"#utility.yul\":2084:2111   */\n      tag_46\n      jump\t// in\n    tag_104:\n        /* \"#utility.yul\":2076:2082   */\n      dup2\n        /* \"#utility.yul\":2072:2112   */\n      add\n        /* \"#utility.yul\":2214:2220   */\n      dup2\n        /* \"#utility.yul\":2202:2212   */\n      dup2\n        /* \"#utility.yul\":2199:2221   */\n      lt\n        /* \"#utility.yul\":2178:2196   */\n      0xffffffffffffffff\n        /* \"#utility.yul\":2166:2176   */\n      dup3\n        /* \"#utility.yul\":2163:2197   */\n      gt\n        /* \"#utility.yul\":2160:2222   */\n      or\n        /* \"#utility.yul\":2157:2245   */\n      iszero\n      tag_105\n      jumpi\n        /* \"#utility.yul\":2225:2243   */\n      tag_106\n      tag_53\n      jump\t// in\n    tag_106:\n        /* \"#utility.yul\":2157:2245   */\n    tag_105:\n        /* \"#utility.yul\":2265:2275   */\n      dup1\n        /* \"#utility.yul\":2261:2263   */\n      0x40\n        /* \"#utility.yul\":2254:2276   */\n      mstore\n        /* \"#utility.yul\":2044:2282   */\n      pop\n        /* \"#utility.yul\":2001:2282   */\n      pop\n      pop\n      jump\t// out\n        /* \"#utility.yul\":2288:2417   */\n    tag_55:\n        /* \"#utility.yul\":2322:2328   */\n      0x00\n        /* \"#utility.yul\":2349:2369   */\n      tag_108\n      tag_48\n      jump\t// in\n    tag_108:\n        /* \"#utility.yul\":2339:2369   */\n      swap1\n      pop\n        /* \"#utility.yul\":2378:2411   */\n      tag_109\n        /* \"#utility.yul\":2406:2410   */\n      dup3\n        /* \"#utility.yul\":2398:2404   */\n      dup3\n        /* \"#utility.yul\":2378:2411   */\n      tag_54\n      jump\t// in\n    tag_109:\n        /* \"#utility.yul\":2288:2417   */\n      swap2\n      swap1\n      pop\n      jump\t// out\n        /* \"#utility.yul\":2423:2731   */\n    tag_56:\n        /* \"#utility.yul\":2485:2489   */\n      0x00\n        /* \"#utility.yul\":2575:2593   */\n      0xffffffffffffffff\n        /* \"#utility.yul\":2567:2573   */\n      dup3\n        /* \"#utility.yul\":2564:2594   */\n      gt\n        /* \"#utility.yul\":2561:2617   */\n      iszero\n      tag_111\n      jumpi\n        /* \"#utility.yul\":2597:2615   */\n      tag_112\n      tag_53\n      jump\t// in\n    tag_112:\n        /* \"#utility.yul\":2561:2617   */\n    tag_111:\n        /* \"#utility.yul\":2635:2664   */\n      tag_113\n        /* \"#utility.yul\":2657:2663   */\n      dup3\n        /* \"#utility.yul\":2635:2664   */\n      tag_46\n      jump\t// in\n    tag_113:\n        /* \"#utility.yul\":2627:2664   */\n      swap1\n      pop\n        /* \"#utility.yul\":2719:2723   */\n      0x20\n        /* \"#utility.yul\":2713:2717   */\n      dup2\n        /* \"#utility.yul\":2709:2724   */\n      add\n        /* \"#utility.yul\":2701:2724   */\n      swap1\n      pop\n        /* \"#utility.yul\":2423:2731   */\n      swap2\n      swap1\n      pop\n      jump\t// out\n        /* \"#utility.yul\":2737:2885   */\n    tag_57:\n        /* \"#utility.yul\":2835:2841   */\n      dup3\n        /* \"#utility.yul\":2830:2833   */\n      dup2\n        /* \"#utility.yul\":2825:2828   */\n      dup4\n        /* \"#utility.yul\":2812:2842   */\n      calldatacopy\n        /* \"#utility.yul\":2876:2877   */\n      0x00\n        /* \"#utility.yul\":2867:2873   */\n      dup4\n        /* \"#utility.yul\":2862:2865   */\n      dup4\n        /* \"#utility.yul\":2858:2874   */\n      add\n        /* \"#utility.yul\":2851:2878   */\n      mstore\n        /* \"#utility.yul\":2737:2885   */\n      pop\n      pop\n      pop\n      jump\t// out\n        /* \"#utility.yul\":2891:3316   */\n    tag_58:\n        /* \"#utility.yul\":2969:2974   */\n      0x00\n        /* \"#utility.yul\":2994:3060   */\n      tag_116\n        /* \"#utility.yul\":3010:3059   */\n      tag_117\n        /* \"#utility.yul\":3052:3058   */\n      dup5\n        /* \"#utility.yul\":3010:3059   */\n      tag_56\n      jump\t// in\n    tag_117:\n        /* \"#utility.yul\":2994:3060   */\n      tag_55\n      jump\t// in\n    tag_116:\n        /* \"#utility.yul\":2985:3060   */\n      swap1\n      pop\n        /* \"#utility.yul\":3083:3089   */\n      dup3\n        /* \"#utility.yul\":3076:3081   */\n      dup2\n        /* \"#utility.yul\":3069:3090   */\n      mstore\n        /* \"#utility.yul\":3121:3125   */\n      0x20\n        /* \"#utility.yul\":3114:3119   */\n      dup2\n        /* \"#utility.yul\":3110:3126   */\n      add\n        /* \"#utility.yul\":3159:3162   */\n      dup5\n        /* \"#utility.yul\":3150:3156   */\n      dup5\n        /* \"#utility.yul\":3145:3148   */\n      dup5\n        /* \"#utility.yul\":3141:3157   */\n      add\n        /* \"#utility.yul\":3138:3163   */\n      gt\n        /* \"#utility.yul\":3135:3247   */\n      iszero\n      tag_118\n      jumpi\n        /* \"#utility.yul\":3166:3245   */\n      tag_119\n      tag_52\n      jump\t// in\n    tag_119:\n        /* \"#utility.yul\":3135:3247   */\n    tag_118:\n        /* \"#utility.yul\":3256:3310   */\n      tag_120\n        /* \"#utility.yul\":3303:3309   */\n      dup5\n        /* \"#utility.yul\":3298:3301   */\n      dup3\n        /* \"#utility.yul\":3293:3296   */\n      dup6\n        /* \"#utility.yul\":3256:3310   */\n      tag_57\n      jump\t// in\n    tag_120:\n        /* \"#utility.yul\":2975:3316   */\n      pop\n        /* \"#utility.yul\":2891:3316   */\n      swap4\n      swap3\n      pop\n      pop\n      pop\n      jump\t// out\n        /* \"#utility.yul\":3336:3676   */\n    tag_59:\n        /* \"#utility.yul\":3392:3397   */\n      0x00\n        /* \"#utility.yul\":3441:3444   */\n      dup3\n        /* \"#utility.yul\":3434:3438   */\n      0x1f\n        /* \"#utility.yul\":3426:3432   */\n      dup4\n        /* \"#utility.yul\":3422:3439   */\n      add\n        /* \"#utility.yul\":3418:3445   */\n      slt\n        /* \"#utility.yul\":3408:3530   */\n      tag_122\n      jumpi\n        /* \"#utility.yul\":3449:3528   */\n      tag_123\n      tag_51\n      jump\t// in\n    tag_123:\n        /* \"#utility.yul\":3408:3530   */\n    tag_122:\n        /* \"#utility.yul\":3566:3572   */\n      dup2\n        /* \"#utility.yul\":3553:3573   */\n      calldataload\n        /* \"#utility.yul\":3591:3670   */\n      tag_124\n        /* \"#utility.yul\":3666:3669   */\n      dup5\n        /* \"#utility.yul\":3658:3664   */\n      dup3\n        /* \"#utility.yul\":3651:3655   */\n      0x20\n        /* \"#utility.yul\":3643:3649   */\n      dup7\n        /* \"#utility.yul\":3639:3656   */\n      add\n        /* \"#utility.yul\":3591:3670   */\n      tag_58\n      jump\t// in\n    tag_124:\n        /* \"#utility.yul\":3582:3670   */\n      swap2\n      pop\n        /* \"#utility.yul\":3398:3676   */\n      pop\n        /* \"#utility.yul\":3336:3676   */\n      swap3\n      swap2\n      pop\n      pop\n      jump\t// out\n        /* \"#utility.yul\":3682:4191   */\n    tag_13:\n        /* \"#utility.yul\":3751:3757   */\n      0x00\n        /* \"#utility.yul\":3800:3802   */\n      0x20\n        /* \"#utility.yul\":3788:3797   */\n      dup3\n        /* \"#utility.yul\":3779:3786   */\n      dup5\n        /* \"#utility.yul\":3775:3798   */\n      sub\n        /* \"#utility.yul\":3771:3803   */\n      slt\n        /* \"#utility.yul\":3768:3887   */\n      iszero\n      tag_126\n      jumpi\n        /* \"#utility.yul\":3806:3885   */\n      tag_127\n      tag_49\n      jump\t// in\n    tag_127:\n        /* \"#utility.yul\":3768:3887   */\n    tag_126:\n        /* \"#utility.yul\":3954:3955   */\n      0x00\n        /* \"#utility.yul\":3943:3952   */\n      dup3\n        /* \"#utility.yul\":3939:3956   */\n      add\n        /* \"#utility.yul\":3926:3957   */\n      calldataload\n        /* \"#utility.yul\":3984:4002   */\n      0xffffffffffffffff\n        /* \"#utility.yul\":3976:3982   */\n      dup2\n        /* \"#utility.yul\":3973:4003   */\n      gt\n        /* \"#utility.yul\":3970:4087   */\n      iszero\n      tag_128\n      jumpi\n        /* \"#utility.yul\":4006:4085   */\n      tag_129\n      tag_50\n      jump\t// in\n    tag_129:\n        /* \"#utility.yul\":3970:4087   */\n    tag_128:\n        /* \"#utility.yul\":4111:4174   */\n      tag_130\n        /* \"#utility.yul\":4166:4173   */\n      dup5\n        /* \"#utility.yul\":4157:4163   */\n      dup3\n        /* \"#utility.yul\":4146:4155   */\n      dup6\n        /* \"#utility.yul\":4142:4164   */\n      add\n        /* \"#utility.yul\":4111:4174   */\n      tag_59\n      jump\t// in\n    tag_130:\n        /* \"#utility.yul\":4101:4174   */\n      swap2\n      pop\n        /* \"#utility.yul\":3897:4184   */\n      pop\n        /* \"#utility.yul\":3682:4191   */\n      swap3\n      swap2\n      pop\n      pop\n      jump\t// out\n        /* \"#utility.yul\":4197:4287   */\n    tag_60:\n        /* \"#utility.yul\":4231:4238   */\n      0x00\n        /* \"#utility.yul\":4274:4279   */\n      dup2\n        /* \"#utility.yul\":4267:4280   */\n      iszero\n        /* \"#utility.yul\":4260:4281   */\n      iszero\n        /* \"#utility.yul\":4249:4281   */\n      swap1\n      pop\n        /* \"#utility.yul\":4197:4287   */\n      swap2\n      swap1\n      pop\n      jump\t// out\n        /* \"#utility.yul\":4293:4402   */\n    tag_61:\n        /* \"#utility.yul\":4374:4395   */\n      tag_133\n        /* \"#utility.yul\":4389:4394   */\n      dup2\n        /* \"#utility.yul\":4374:4395   */\n      tag_60\n      jump\t// in\n    tag_133:\n        /* \"#utility.yul\":4369:4372   */\n      dup3\n        /* \"#utility.yul\":4362:4396   */\n      mstore\n        /* \"#utility.yul\":4293:4402   */\n      pop\n      pop\n      jump\t// out\n        /* \"#utility.yul\":4408:4618   */\n    tag_19:\n        /* \"#utility.yul\":4495:4499   */\n      0x00\n        /* \"#utility.yul\":4533:4535   */\n      0x20\n        /* \"#utility.yul\":4522:4531   */\n      dup3\n        /* \"#utility.yul\":4518:4536   */\n      add\n        /* \"#utility.yul\":4510:4536   */\n      swap1\n      pop\n        /* \"#utility.yul\":4546:4611   */\n      tag_135\n        /* \"#utility.yul\":4608:4609   */\n      0x00\n        /* \"#utility.yul\":4597:4606   */\n      dup4\n        /* \"#utility.yul\":4593:4610   */\n      add\n        /* \"#utility.yul\":4584:4590   */\n      dup5\n        /* \"#utility.yul\":4546:4611   */\n      tag_61\n      jump\t// in\n    tag_135:\n        /* \"#utility.yul\":4408:4618   */\n      swap3\n      swap2\n      pop\n      pop\n      jump\t// out\n        /* \"#utility.yul\":4624:4722   */\n    tag_62:\n        /* \"#utility.yul\":4675:4681   */\n      0x00\n        /* \"#utility.yul\":4709:4714   */\n      dup2\n        /* \"#utility.yul\":4703:4715   */\n      mload\n        /* \"#utility.yul\":4693:4715   */\n      swap1\n      pop\n        /* \"#utility.yul\":4624:4722   */\n      swap2\n      swap1\n      pop\n      jump\t// out\n        /* \"#utility.yul\":4728:4896   */\n    tag_63:\n        /* \"#utility.yul\":4811:4822   */\n      0x00\n        /* \"#utility.yul\":4845:4851   */\n      dup3\n        /* \"#utility.yul\":4840:4843   */\n      dup3\n        /* \"#utility.yul\":4833:4852   */\n      mstore\n        /* \"#utility.yul\":4885:4889   */\n      0x20\n        /* \"#utility.yul\":4880:4883   */\n      dup3\n        /* \"#utility.yul\":4876:4890   */\n      add\n        /* \"#utility.yul\":4861:4890   */\n      swap1\n      pop\n        /* \"#utility.yul\":4728:4896   */\n      swap3\n      swap2\n      pop\n      pop\n      jump\t// out\n        /* \"#utility.yul\":4902:5275   */\n    tag_64:\n        /* \"#utility.yul\":4988:4991   */\n      0x00\n        /* \"#utility.yul\":5016:5054   */\n      tag_139\n        /* \"#utility.yul\":5048:5053   */\n      dup3\n        /* \"#utility.yul\":5016:5054   */\n      tag_62\n      jump\t// in\n    tag_139:\n        /* \"#utility.yul\":5070:5140   */\n      tag_140\n        /* \"#utility.yul\":5133:5139   */\n      dup2\n        /* \"#utility.yul\":5128:5131   */\n      dup6\n        /* \"#utility.yul\":5070:5140   */\n      tag_63\n      jump\t// in\n    tag_140:\n        /* \"#utility.yul\":5063:5140   */\n      swap4\n      pop\n        /* \"#utility.yul\":5149:5214   */\n      tag_141\n        /* \"#utility.yul\":5207:5213   */\n      dup2\n        /* \"#utility.yul\":5202:5205   */\n      dup6\n        /* \"#utility.yul\":5195:5199   */\n      0x20\n        /* \"#utility.yul\":5188:5193   */\n      dup7\n        /* \"#utility.yul\":5184:5200   */\n      add\n        /* \"#utility.yul\":5149:5214   */\n      tag_45\n      jump\t// in\n    tag_141:\n        /* \"#utility.yul\":5239:5268   */\n      tag_142\n        /* \"#utility.yul\":5261:5267   */\n      dup2\n        /* \"#utility.yul\":5239:5268   */\n      tag_46\n      jump\t// in\n    tag_142:\n        /* \"#utility.yul\":5234:5237   */\n      dup5\n        /* \"#utility.yul\":5230:5269   */\n      add\n        /* \"#utility.yul\":5223:5269   */\n      swap2\n      pop\n        /* \"#utility.yul\":4992:5275   */\n      pop\n        /* \"#utility.yul\":4902:5275   */\n      swap3\n      swap2\n      pop\n      pop\n      jump\t// out\n        /* \"#utility.yul\":5281:5590   */\n    tag_23:\n        /* \"#utility.yul\":5392:5396   */\n      0x00\n        /* \"#utility.yul\":5430:5432   */\n      0x20\n        /* \"#utility.yul\":5419:5428   */\n      dup3\n        /* \"#utility.yul\":5415:5433   */\n      add\n        /* \"#utility.yul\":5407:5433   */\n      swap1\n      pop\n        /* \"#utility.yul\":5479:5488   */\n      dup2\n        /* \"#utility.yul\":5473:5477   */\n      dup2\n        /* \"#utility.yul\":5469:5489   */\n      sub\n        /* \"#utility.yul\":5465:5466   */\n      0x00\n        /* \"#utility.yul\":5454:5463   */\n      dup4\n        /* \"#utility.yul\":5450:5467   */\n      add\n        /* \"#utility.yul\":5443:5490   */\n      mstore\n        /* \"#utility.yul\":5507:5583   */\n      tag_144\n        /* \"#utility.yul\":5578:5582   */\n      dup2\n        /* \"#utility.yul\":5569:5575   */\n      dup5\n        /* \"#utility.yul\":5507:5583   */\n      tag_64\n      jump\t// in\n    tag_144:\n        /* \"#utility.yul\":5499:5583   */\n      swap1\n      pop\n        /* \"#utility.yul\":5281:5590   */\n      swap3\n      swap2\n      pop\n      pop\n      jump\t// out\n        /* \"#utility.yul\":5596:5776   */\n    tag_65:\n        /* \"#utility.yul\":5644:5721   */\n      0x4e487b7100000000000000000000000000000000000000000000000000000000\n        /* \"#utility.yul\":5641:5642   */\n      0x00\n        /* \"#utility.yul\":5634:5722   */\n      mstore\n        /* \"#utility.yul\":5741:5745   */\n      0x22\n        /* \"#utility.yul\":5738:5739   */\n      0x04\n        /* \"#utility.yul\":5731:5746   */\n      mstore\n        /* \"#utility.yul\":5765:5769   */\n      0x24\n        /* \"#utility.yul\":5762:5763   */\n      0x00\n        /* \"#utility.yul\":5755:5770   */\n      revert\n        /* \"#utility.yul\":5782:6102   */\n    tag_25:\n        /* \"#utility.yul\":5826:5832   */\n      0x00\n        /* \"#utility.yul\":5863:5864   */\n      0x02\n        /* \"#utility.yul\":5857:5861   */\n      dup3\n        /* \"#utility.yul\":5853:5865   */\n      div\n        /* \"#utility.yul\":5843:5865   */\n      swap1\n      pop\n        /* \"#utility.yul\":5910:5911   */\n      0x01\n        /* \"#utility.yul\":5904:5908   */\n      dup3\n        /* \"#utility.yul\":5900:5912   */\n      and\n        /* \"#utility.yul\":5931:5949   */\n      dup1\n        /* \"#utility.yul\":5921:6002   */\n      tag_147\n      jumpi\n        /* \"#utility.yul\":5987:5991   */\n      0x7f\n        /* \"#utility.yul\":5979:5985   */\n      dup3\n        /* \"#utility.yul\":5975:5992   */\n      and\n        /* \"#utility.yul\":5965:5992   */\n      swap2\n      pop\n        /* \"#utility.yul\":5921:6002   */\n    tag_147:\n        /* \"#utility.yul\":6049:6051   */\n      0x20\n        /* \"#utility.yul\":6041:6047   */\n      dup3\n        /* \"#utility.yul\":6038:6052   */\n      lt\n        /* \"#utility.yul\":6018:6036   */\n      dup2\n        /* \"#utility.yul\":6015:6053   */\n      sub\n        /* \"#utility.yul\":6012:6096   */\n      tag_148\n      jumpi\n        /* \"#utility.yul\":6068:6086   */\n      tag_149\n      tag_65\n      jump\t// in\n    tag_149:\n        /* \"#utility.yul\":6012:6096   */\n    tag_148:\n        /* \"#utility.yul\":5833:6102   */\n      pop\n        /* \"#utility.yul\":5782:6102   */\n      swap2\n      swap1\n      pop\n      jump\t// out\n        /* \"#utility.yul\":6108:6249   */\n    tag_66:\n        /* \"#utility.yul\":6157:6161   */\n      0x00\n        /* \"#utility.yul\":6180:6183   */\n      dup2\n        /* \"#utility.yul\":6172:6183   */\n      swap1\n      pop\n        /* \"#utility.yul\":6203:6206   */\n      dup2\n        /* \"#utility.yul\":6200:6201   */\n      0x00\n        /* \"#utility.yul\":6193:6207   */\n      mstore\n        /* \"#utility.yul\":6237:6241   */\n      0x20\n        /* \"#utility.yul\":6234:6235   */\n      0x00\n        /* \"#utility.yul\":6224:6242   */\n      keccak256\n        /* \"#utility.yul\":6216:6242   */\n      swap1\n      pop\n        /* \"#utility.yul\":6108:6249   */\n      swap2\n      swap1\n      pop\n      jump\t// out\n        /* \"#utility.yul\":6255:6348   */\n    tag_67:\n        /* \"#utility.yul\":6292:6298   */\n      0x00\n        /* \"#utility.yul\":6339:6341   */\n      0x20\n        /* \"#utility.yul\":6334:6336   */\n      0x1f\n        /* \"#utility.yul\":6327:6332   */\n      dup4\n        /* \"#utility.yul\":6323:6337   */\n      add\n        /* \"#utility.yul\":6319:6342   */\n      div\n        /* \"#utility.yul\":6309:6342   */\n      swap1\n      pop\n        /* \"#utility.yul\":6255:6348   */\n      swap2\n      swap1\n      pop\n      jump\t// out\n        /* \"#utility.yul\":6354:6461   */\n    tag_68:\n        /* \"#utility.yul\":6398:6406   */\n      0x00\n        /* \"#utility.yul\":6448:6453   */\n      dup3\n        /* \"#utility.yul\":6442:6446   */\n      dup3\n        /* \"#utility.yul\":6438:6454   */\n      shl\n        /* \"#utility.yul\":6417:6454   */\n      swap1\n      pop\n        /* \"#utility.yul\":6354:6461   */\n      swap3\n      swap2\n      pop\n      pop\n      jump\t// out\n        /* \"#utility.yul\":6467:6860   */\n    tag_69:\n        /* \"#utility.yul\":6536:6542   */\n      0x00\n        /* \"#utility.yul\":6586:6587   */\n      0x08\n        /* \"#utility.yul\":6574:6584   */\n      dup4\n        /* \"#utility.yul\":6570:6588   */\n      mul\n        /* \"#utility.yul\":6609:6706   */\n      tag_154\n        /* \"#utility.yul\":6639:6705   */\n      0xffffffffffffffffffffffffffffffffffffffffffffffffffffffffffffffff\n        /* \"#utility.yul\":6628:6637   */\n      dup3\n        /* \"#utility.yul\":6609:6706   */\n      tag_68\n      jump\t// in\n    tag_154:\n        /* \"#utility.yul\":6727:6766   */\n      tag_155\n        /* \"#utility.yul\":6757:6765   */\n      dup7\n        /* \"#utility.yul\":6746:6755   */\n      dup4\n        /* \"#utility.yul\":6727:6766   */\n      tag_68\n      jump\t// in\n    tag_155:\n        /* \"#utility.yul\":6715:6766   */\n      swap6\n      pop\n        /* \"#utility.yul\":6799:6803   */\n      dup1\n        /* \"#utility.yul\":6795:6804   */\n      not\n        /* \"#utility.yul\":6788:6793   */\n      dup5\n        /* \"#utility.yul\":6784:6805   */\n      and\n        /* \"#utility.yul\":6775:6805   */\n      swap4\n      pop\n        /* \"#utility.yul\":6848:6852   */\n      dup1\n        /* \"#utility.yul\":6838:6846   */\n      dup7\n        /* \"#utility.yul\":6834:6853   */\n      and\n        /* \"#utility.yul\":6827:6832   */\n      dup5\n        /* \"#utility.yul\":6824:6854   */\n      or\n        /* \"#utility.yul\":6814:6854   */\n      swap3\n      pop\n        /* \"#utility.yul\":6543:6860   */\n      pop\n      pop\n        /* \"#utility.yul\":6467:6860   */\n      swap4\n      swap3\n      pop\n      pop\n      pop\n      jump\t// out\n        /* \"#utility.yul\":6866:6943   */\n    tag_70:\n        /* \"#utility.yul\":6903:6910   */\n      0x00\n        /* \"#utility.yul\":6932:6937   */\n      dup2\n        /* \"#utility.yul\":6921:6937   */\n      swap1\n      pop\n        /* \"#utility.yul\":6866:6943   */\n      swap2\n      swap1\n      pop\n      jump\t// out\n        /* \"#utility.yul\":6949:7009   */\n    tag_71:\n        /* \"#utility.yul\":6977:6980   */\n      0x00\n        /* \"#utility.yul\":6998:7003   */\n      dup2\n        /* \"#utility.yul\":6991:7003   */\n      swap1\n      pop\n        /* \"#utility.yul\":6949:7009   */\n      swap2\n      swap1\n      pop\n      jump\t// out\n        /* \"#utility.yul\":7015:7157   */\n    tag_72:\n        /* \"#utility.yul\":7065:7074   */\n      0x00\n        /* \"#utility.yul\":7098:7151   */\n      tag_159\n        /* \"#utility.yul\":7116:7150   */\n      tag_160\n        /* \"#utility.yul\":7125:7149   */\n      tag_161\n        /* \"#utility.yul\":7143:7148   */\n      dup5\n        /* \"#utility.yul\":7125:7149   */\n      tag_70\n      jump\t// in\n    tag_161:\n        /* \"#utility.yul\":7116:7150   */\n      tag_71\n      jump\t// in\n    tag_160:\n        /* \"#utility.yul\":7098:7151   */\n      tag_70\n      jump\t// in\n    tag_159:\n        /* \"#utility.yul\":7085:7151   */\n      swap1\n      pop\n        /* \"#utility.yul\":7015:7157   */\n      swap2\n      swap1\n      pop\n      jump\t// out\n        /* \"#utility.yul\":7163:7238   */\n    tag_73:\n        /* \"#utility.yul\":7206:7209   */\n      0x00\n        /* \"#utility.yul\":7227:7232   */\n      dup2\n        /* \"#utility.yul\":7220:7232   */\n      swap1\n      pop\n        /* \"#utility.yul\":7163:7238   */\n      swap2\n      swap1\n      pop\n      jump\t// out\n        /* \"#utility.yul\":7244:7513   */\n    tag_74:\n        /* \"#utility.yul\":7354:7393   */\n      tag_164\n        /* \"#utility.yul\":7385:7392   */\n      dup4\n        /* \"#utility.yul\":7354:7393   */\n      tag_72\n      jump\t// in\n    tag_164:\n        /* \"#utility.yul\":7415:7506   */\n      tag_165\n        /* \"#utility.yul\":7464:7505   */\n      tag_166\n        /* \"#utility.yul\":7488:7504   */\n      dup3\n        /* \"#utility.yul\":7464:7505   */\n      tag_73\n      jump\t// in\n    tag_166:\n        /* \"#utility.yul\":7456:7462   */\n      dup5\n        /* \"#utility.yul\":7449:7453   */\n      dup5\n        /* \"#utility.yul\":7443:7454   */\n      sload\n        /* \"#utility.yul\":7415:7506   */\n      tag_69\n      jump\t// in\n    tag_165:\n        /* \"#utility.yul\":7409:7413   */\n      dup3\n        /* \"#utility.yul\":7402:7507   */\n      sstore\n        /* \"#utility.yul\":7320:7513   */\n      pop\n        /* \"#utility.yul\":7244:7513   */\n      pop\n      pop\n      pop\n      jump\t// out\n        /* \"#utility.yul\":7519:7592   */\n    tag_75:\n        /* \"#utility.yul\":7564:7567   */\n      0x00\n        /* \"#utility.yul\":7519:7592   */\n      swap1\n      jump\t// out\n        /* \"#utility.yul\":7598:7787   */\n    tag_76:\n        /* \"#utility.yul\":7675:7707   */\n      tag_169\n      tag_75\n      jump\t// in\n    tag_169:\n        /* \"#utility.yul\":7716:7781   */\n      tag_170\n        /* \"#utility.yul\":7774:7780   */\n      dup2\n        /* \"#utility.yul\":7766:7772   */\n      dup5\n        /* \"#utility.yul\":7760:7764   */\n      dup5\n        /* \"#utility.yul\":7716:7781   */\n      tag_74\n      jump\t// in\n    tag_170:\n        /* \"#utility.yul\":7651:7787   */\n      pop\n        /* \"#utility.yul\":7598:7787   */\n      pop\n      pop\n      jump\t// out\n        /* \"#utility.yul\":7793:7979   */\n    tag_77:\n        /* \"#utility.yul\":7853:7973   */\n    tag_172:\n        /* \"#utility.yul\":7870:7873   */\n      dup2\n        /* \"#utility.yul\":7863:7868   */\n      dup2\n        /* \"#utility.yul\":7860:7874   */\n      lt\n        /* \"#utility.yul\":7853:7973   */\n      iszero\n      tag_174\n      jumpi\n        /* \"#utility.yul\":7924:7963   */\n      tag_175\n        /* \"#utility.yul\":7961:7962   */\n      0x00\n        /* \"#utility.yul\":7954:7959   */\n      dup3\n        /* \"#utility.yul\":7924:7963   */\n      tag_76\n      jump\t// in\n    tag_175:\n        /* \"#utility.yul\":7897:7898   */\n      0x01\n        /* \"#utility.yul\":7890:7895   */\n      dup2\n        /* \"#utility.yul\":7886:7899   */\n      add\n        /* \"#utility.yul\":7877:7899   */\n      swap1\n      pop\n        /* \"#utility.yul\":7853:7973   */\n      jump(tag_172)\n    tag_174:\n        /* \"#utility.yul\":7793:7979   */\n      pop\n      pop\n      jump\t// out\n        /* \"#utility.yul\":7985:8528   */\n    tag_78:\n        /* \"#utility.yul\":8086:8088   */\n      0x1f\n        /* \"#utility.yul\":8081:8084   */\n      dup3\n        /* \"#utility.yul\":8078:8089   */\n      gt\n        /* \"#utility.yul\":8075:8521   */\n      iszero\n      tag_177\n      jumpi\n        /* \"#utility.yul\":8120:8158   */\n      tag_178\n        /* \"#utility.yul\":8152:8157   */\n      dup2\n        /* \"#utility.yul\":8120:8158   */\n      tag_66\n      jump\t// in\n    tag_178:\n        /* \"#utility.yul\":8204:8233   */\n      tag_179\n        /* \"#utility.yul\":8222:8232   */\n      dup5\n        /* \"#utility.yul\":8204:8233   */\n      tag_67\n      jump\t// in\n    tag_179:\n        /* \"#utility.yul\":8194:8202   */\n      dup2\n        /* \"#utility.yul\":8190:8234   */\n      add\n        /* \"#utility.yul\":8387:8389   */\n      0x20\n        /* \"#utility.yul\":8375:8385   */\n      dup6\n        /* \"#utility.yul\":8372:8390   */\n      lt\n        /* \"#utility.yul\":8369:8418   */\n      iszero\n      tag_180\n      jumpi\n        /* \"#utility.yul\":8408:8416   */\n      dup2\n        /* \"#utility.yul\":8393:8416   */\n      swap1\n      pop\n        /* \"#utility.yul\":8369:8418   */\n    tag_180:\n        /* \"#utility.yul\":8431:8511   */\n      tag_181\n        /* \"#utility.yul\":8487:8509   */\n      tag_182\n        /* \"#utility.yul\":8505:8508   */\n      dup6\n        /* \"#utility.yul\":8487:8509   */\n      tag_67\n      jump\t// in\n    tag_182:\n        /* \"#utility.yul\":8477:8485   */\n      dup4\n        /* \"#utility.yul\":8473:8510   */\n      add\n        /* \"#utility.yul\":8460:8471   */\n      dup3\n        /* \"#utility.yul\":8431:8511   */\n      tag_77\n      jump\t// in\n    tag_181:\n        /* \"#utility.yul\":8090:8521   */\n      pop\n      pop\n        /* \"#utility.yul\":8075:8521   */\n    tag_177:\n        /* \"#utility.yul\":7985:8528   */\n      pop\n      pop\n      pop\n      jump\t// out\n        /* \"#utility.yul\":8534:8651   */\n    tag_79:\n        /* \"#utility.yul\":8588:8596   */\n      0x00\n        /* \"#utility.yul\":8638:8643   */\n      dup3\n        /* \"#utility.yul\":8632:8636   */\n      dup3\n        /* \"#utility.yul\":8628:8644   */\n      shr\n        /* \"#utility.yul\":8607:8644   */\n      swap1\n      pop\n        /* \"#utility.yul\":8534:8651   */\n      swap3\n      swap2\n      pop\n      pop\n      jump\t// out\n        /* \"#utility.yul\":8657:8826   */\n    tag_80:\n        /* \"#utility.yul\":8701:8707   */\n      0x00\n        /* \"#utility.yul\":8734:8785   */\n      tag_185\n        /* \"#utility.yul\":8782:8783   */\n      0x00\n        /* \"#utility.yul\":8778:8784   */\n      not\n        /* \"#utility.yul\":8770:8775   */\n      dup5\n        /* \"#utility.yul\":8767:8768   */\n      0x08\n        /* \"#utility.yul\":8763:8776   */\n      mul\n        /* \"#utility.yul\":8734:8785   */\n      tag_79\n      jump\t// in\n    tag_185:\n        /* \"#utility.yul\":8730:8786   */\n      not\n        /* \"#utility.yul\":8815:8819   */\n      dup1\n        /* \"#utility.yul\":8809:8813   */\n      dup4\n        /* \"#utility.yul\":8805:8820   */\n      and\n        /* \"#utility.yul\":8795:8820   */\n      swap2\n      pop\n        /* \"#utility.yul\":8708:8826   */\n      pop\n        /* \"#utility.yul\":8657:8826   */\n      swap3\n      swap2\n      pop\n      pop\n      jump\t// out\n        /* \"#utility.yul\":8831:9126   */\n    tag_81:\n        /* \"#utility.yul\":8907:8911   */\n      0x00\n        /* \"#utility.yul\":9053:9082   */\n      tag_187\n        /* \"#utility.yul\":9078:9081   */\n      dup4\n        /* \"#utility.yul\":9072:9076   */\n      dup4\n        /* \"#utility.yul\":9053:9082   */\n      tag_80\n      jump\t// in\n    tag_187:\n        /* \"#utility.yul\":9045:9082   */\n      swap2\n      pop\n        /* \"#utility.yul\":9115:9118   */\n      dup3\n        /* \"#utility.yul\":9112:9113   */\n      0x02\n        /* \"#utility.yul\":9108:9119   */\n      mul\n        /* \"#utility.yul\":9102:9106   */\n      dup3\n        /* \"#utility.yul\":9099:9120   */\n      or\n        /* \"#utility.yul\":9091:9120   */\n      swap1\n      pop\n        /* \"#utility.yul\":8831:9126   */\n      swap3\n      swap2\n      pop\n      pop\n      jump\t// out\n        /* \"#utility.yul\":9131:10526   */\n    tag_32:\n        /* \"#utility.yul\":9248:9285   */\n      tag_189\n        /* \"#utility.yul\":9281:9284   */\n      dup3\n        /* \"#utility.yul\":9248:9285   */\n      tag_43\n      jump\t// in\n    tag_189:\n        /* \"#utility.yul\":9350:9368   */\n      0xffffffffffffffff\n        /* \"#utility.yul\":9342:9348   */\n      dup2\n        /* \"#utility.yul\":9339:9369   */\n      gt\n        /* \"#utility.yul\":9336:9392   */\n      iszero\n      tag_190\n      jumpi\n        /* \"#utility.yul\":9372:9390   */\n      tag_191\n      tag_53\n      jump\t// in\n    tag_191:\n        /* \"#utility.yul\":9336:9392   */\n    tag_190:\n        /* \"#utility.yul\":9416:9454   */\n      tag_192\n        /* \"#utility.yul\":9448:9452   */\n      dup3\n        /* \"#utility.yul\":9442:9453   */\n      sload\n        /* \"#utility.yul\":9416:9454   */\n      tag_25\n      jump\t// in\n    tag_192:\n        /* \"#utility.yul\":9501:9568   */\n      tag_193\n        /* \"#utility.yul\":9561:9567   */\n      dup3\n        /* \"#utility.yul\":9553:9559   */\n      dup3\n        /* \"#utility.yul\":9547:9551   */\n      dup6\n        /* \"#utility.yul\":9501:9568   */\n      tag_78\n      jump\t// in\n    tag_193:\n        /* \"#utility.yul\":9595:9596   */\n      0x00\n        /* \"#utility.yul\":9619:9623   */\n      0x20\n        /* \"#utility.yul\":9606:9623   */\n      swap1\n      pop\n        /* \"#utility.yul\":9651:9653   */\n      0x1f\n        /* \"#utility.yul\":9643:9649   */\n      dup4\n        /* \"#utility.yul\":9640:9654   */\n      gt\n        /* \"#utility.yul\":9668:9669   */\n      0x01\n        /* \"#utility.yul\":9663:10281   */\n      dup2\n      eq\n      tag_195\n      jumpi\n        /* \"#utility.yul\":10325:10326   */\n      0x00\n        /* \"#utility.yul\":10342:10348   */\n      dup5\n        /* \"#utility.yul\":10339:10416   */\n      iszero\n      tag_196\n      jumpi\n        /* \"#utility.yul\":10391:10400   */\n      dup3\n        /* \"#utility.yul\":10386:10389   */\n      dup8\n        /* \"#utility.yul\":10382:10401   */\n      add\n        /* \"#utility.yul\":10376:10402   */\n      mload\n        /* \"#utility.yul\":10367:10402   */\n      swap1\n      pop\n        /* \"#utility.yul\":10339:10416   */\n    tag_196:\n        /* \"#utility.yul\":10442:10509   */\n      tag_197\n        /* \"#utility.yul\":10502:10508   */\n      dup6\n        /* \"#utility.yul\":10495:10500   */\n      dup3\n        /* \"#utility.yul\":10442:10509   */\n      tag_81\n      jump\t// in\n    tag_197:\n        /* \"#utility.yul\":10436:10440   */\n      dup7\n        /* \"#utility.yul\":10429:10510   */\n      sstore\n        /* \"#utility.yul\":10298:10520   */\n      pop\n        /* \"#utility.yul\":9633:10520   */\n      jump(tag_194)\n        /* \"#utility.yul\":9663:10281   */\n    tag_195:\n        /* \"#utility.yul\":9715:9719   */\n      0x1f\n        /* \"#utility.yul\":9711:9720   */\n      not\n        /* \"#utility.yul\":9703:9709   */\n      dup5\n        /* \"#utility.yul\":9699:9721   */\n      and\n        /* \"#utility.yul\":9749:9786   */\n      tag_198\n        /* \"#utility.yul\":9781:9785   */\n      dup7\n        /* \"#utility.yul\":9749:9786   */\n      tag_66\n      jump\t// in\n    tag_198:\n        /* \"#utility.yul\":9808:9809   */\n      0x00\n        /* \"#utility.yul\":9822:10030   */\n    tag_199:\n        /* \"#utility.yul\":9836:9843   */\n      dup3\n        /* \"#utility.yul\":9833:9834   */\n      dup2\n        /* \"#utility.yul\":9830:9844   */\n      lt\n        /* \"#utility.yul\":9822:10030   */\n      iszero\n      tag_201\n      jumpi\n        /* \"#utility.yul\":9915:9924   */\n      dup5\n        /* \"#utility.yul\":9910:9913   */\n      dup10\n        /* \"#utility.yul\":9906:9925   */\n      add\n        /* \"#utility.yul\":9900:9926   */\n      mload\n        /* \"#utility.yul\":9892:9898   */\n      dup3\n        /* \"#utility.yul\":9885:9927   */\n      sstore\n        /* \"#utility.yul\":9966:9967   */\n      0x01\n        /* \"#utility.yul\":9958:9964   */\n      dup3\n        /* \"#utility.yul\":9954:9968   */\n      add\n        /* \"#utility.yul\":9944:9968   */\n      swap2\n      pop\n        /* \"#utility.yul\":10013:10015   */\n      0x20\n        /* \"#utility.yul\":10002:10011   */\n      dup6\n        /* \"#utility.yul\":9998:10016   */\n      add\n        /* \"#utility.yul\":9985:10016   */\n      swap5\n      pop\n        /* \"#utility.yul\":9859:9863   */\n      0x20\n        /* \"#utility.yul\":9856:9857   */\n      dup2\n        /* \"#utility.yul\":9852:9864   */\n      add\n        /* \"#utility.yul\":9847:9864   */\n      swap1\n      pop\n        /* \"#utility.yul\":9822:10030   */\n      jump(tag_199)\n    tag_201:\n        /* \"#utility.yul\":10058:10064   */\n      dup7\n        /* \"#utility.yul\":10049:10056   */\n      dup4\n        /* \"#utility.yul\":10046:10065   */\n      lt\n        /* \"#utility.yul\":10043:10222   */\n      iszero\n      tag_202\n      jumpi\n        /* \"#utility.yul\":10116:10125   */\n      dup5\n        /* \"#utility.yul\":10111:10114   */\n      dup10\n        /* \"#utility.yul\":10107:10126   */\n      add\n        /* \"#utility.yul\":10101:10127   */\n      mload\n        /* \"#utility.yul\":10159:10207   */\n      tag_203\n        /* \"#utility.yul\":10201:10205   */\n      0x1f\n        /* \"#utility.yul\":10193:10199   */\n      dup10\n        /* \"#utility.yul\":10189:10206   */\n      and\n        /* \"#utility.yul\":10178:10187   */\n      dup3\n        /* \"#utility.yul\":10159:10207   */\n      tag_80\n      jump\t// in\n    tag_203:\n        /* \"#utility.yul\":10151:10157   */\n      dup4\n        /* \"#utility.yul\":10144:10208   */\n      sstore\n        /* \"#utility.yul\":10066:10222   */\n      pop\n        /* \"#utility.yul\":10043:10222   */\n    tag_202:\n        /* \"#utility.yul\":10268:10269   */\n      0x01\n        /* \"#utility.yul\":10264:10265   */\n      0x02\n        /* \"#utility.yul\":10256:10262   */\n      dup9\n        /* \"#utility.yul\":10252:10266   */\n      mul\n        /* \"#utility.yul\":10248:10270   */\n      add\n        /* \"#utility.yul\":10242:10246   */\n      dup9\n        /* \"#utility.yul\":10235:10271   */\n      sstore\n        /* \"#utility.yul\":9670:10281   */\n      pop\n      pop\n      pop\n        /* \"#utility.yul\":9633:10520   */\n    tag_194:\n      pop\n        /* \"#utility.yul\":9223:10526   */\n      pop\n      pop\n      pop\n        /* \"#utility.yul\":9131:10526   */\n      pop\n      pop\n      jump\t// out\n        /* \"#utility.yul\":10532:10680   */\n    tag_82:\n        /* \"#utility.yul\":10634:10645   */\n      0x00\n        /* \"#utility.yul\":10671:10674   */\n      dup2\n        /* \"#utility.yul\":10656:10674   */\n      swap1\n      pop\n        /* \"#utility.yul\":10532:10680   */\n      swap3\n      swap2\n      pop\n      pop\n      jump\t// out\n        /* \"#utility.yul\":10686:11076   */\n    tag_83:\n        /* \"#utility.yul\":10792:10795   */\n      0x00\n        /* \"#utility.yul\":10820:10859   */\n      tag_206\n        /* \"#utility.yul\":10853:10858   */\n      dup3\n        /* \"#utility.yul\":10820:10859   */\n      tag_43\n      jump\t// in\n    tag_206:\n        /* \"#utility.yul\":10875:10964   */\n      tag_207\n        /* \"#utility.yul\":10957:10963   */\n      dup2\n        /* \"#utility.yul\":10952:10955   */\n      dup6\n        /* \"#utility.yul\":10875:10964   */\n      tag_82\n      jump\t// in\n    tag_207:\n        /* \"#utility.yul\":10868:10964   */\n      swap4\n      pop\n        /* \"#utility.yul\":10973:11038   */\n      tag_208\n        /* \"#utility.yul\":11031:11037   */\n      dup2\n        /* \"#utility.yul\":11026:11029   */\n      dup6\n        /* \"#utility.yul\":11019:11023   */\n      0x20\n        /* \"#utility.yul\":11012:11017   */\n      dup7\n        /* \"#utility.yul\":11008:11024   */\n      add\n        /* \"#utility.yul\":10973:11038   */\n      tag_45\n      jump\t// in\n    tag_208:\n        /* \"#utility.yul\":11063:11069   */\n      dup1\n        /* \"#utility.yul\":11058:11061   */\n      dup5\n        /* \"#utility.yul\":11054:11070   */\n      add\n        /* \"#utility.yul\":11047:11070   */\n      swap2\n      pop\n        /* \"#utility.yul\":10796:11076   */\n      pop\n        /* \"#utility.yul\":10686:11076   */\n      swap3\n      swap2\n      pop\n      pop\n      jump\t// out\n        /* \"#utility.yul\":11082:11357   */\n    tag_35:\n        /* \"#utility.yul\":11214:11217   */\n      0x00\n        /* \"#utility.yul\":11236:11331   */\n      tag_210\n        /* \"#utility.yul\":11327:11330   */\n      dup3\n        /* \"#utility.yul\":11318:11324   */\n      dup5\n        /* \"#utility.yul\":11236:11331   */\n      tag_83\n      jump\t// in\n    tag_210:\n        /* \"#utility.yul\":11229:11331   */\n      swap2\n      pop\n        /* \"#utility.yul\":11348:11351   */\n      dup2\n        /* \"#utility.yul\":11341:11351   */\n      swap1\n      pop\n        /* \"#utility.yul\":11082:11357   */\n      swap3\n      swap2\n      pop\n      pop\n      jump\t// out\n        /* \"#utility.yul\":11387:12261   */\n    tag_84:\n        /* \"#utility.yul\":11490:11493   */\n      0x00\n        /* \"#utility.yul\":11527:11532   */\n      dup2\n        /* \"#utility.yul\":11521:11533   */\n      sload\n        /* \"#utility.yul\":11556:11592   */\n      tag_212\n        /* \"#utility.yul\":11582:11591   */\n      dup2\n        /* \"#utility.yul\":11556:11592   */\n      tag_25\n      jump\t// in\n    tag_212:\n        /* \"#utility.yul\":11608:11697   */\n      tag_213\n        /* \"#utility.yul\":11690:11696   */\n      dup2\n        /* \"#utility.yul\":11685:11688   */\n      dup7\n        /* \"#utility.yul\":11608:11697   */\n      tag_82\n      jump\t// in\n    tag_213:\n        /* \"#utility.yul\":11601:11697   */\n      swap5\n      pop\n        /* \"#utility.yul\":11728:11729   */\n      0x01\n        /* \"#utility.yul\":11717:11726   */\n      dup3\n        /* \"#utility.yul\":11713:11730   */\n      and\n        /* \"#utility.yul\":11744:11745   */\n      0x00\n        /* \"#utility.yul\":11739:11905   */\n      dup2\n      eq\n      tag_215\n      jumpi\n        /* \"#utility.yul\":11919:11920   */\n      0x01\n        /* \"#utility.yul\":11914:12255   */\n      dup2\n      eq\n      tag_216\n      jumpi\n        /* \"#utility.yul\":11706:12255   */\n      jump(tag_214)\n        /* \"#utility.yul\":11739:11905   */\n    tag_215:\n        /* \"#utility.yul\":11823:11827   */\n      0xff\n        /* \"#utility.yul\":11819:11828   */\n      not\n        /* \"#utility.yul\":11808:11817   */\n      dup4\n        /* \"#utility.yul\":11804:11829   */\n      and\n        /* \"#utility.yul\":11799:11802   */\n      dup7\n        /* \"#utility.yul\":11792:11830   */\n      mstore\n        /* \"#utility.yul\":11885:11891   */\n      dup2\n        /* \"#utility.yul\":11878:11892   */\n      iszero\n        /* \"#utility.yul\":11871:11893   */\n      iszero\n        /* \"#utility.yul\":11863:11869   */\n      dup3\n        /* \"#utility.yul\":11859:11894   */\n      mul\n        /* \"#utility.yul\":11854:11857   */\n      dup7\n        /* \"#utility.yul\":11850:11895   */\n      add\n        /* \"#utility.yul\":11843:11895   */\n      swap4\n      pop\n        /* \"#utility.yul\":11739:11905   */\n      jump(tag_214)\n        /* \"#utility.yul\":11914:12255   */\n    tag_216:\n        /* \"#utility.yul\":11981:12019   */\n      tag_217\n        /* \"#utility.yul\":12013:12018   */\n      dup6\n        /* \"#utility.yul\":11981:12019   */\n      tag_66\n      jump\t// in\n    tag_217:\n        /* \"#utility.yul\":12041:12042   */\n      0x00\n        /* \"#utility.yul\":12055:12209   */\n    tag_218:\n        /* \"#utility.yul\":12069:12075   */\n      dup4\n        /* \"#utility.yul\":12066:12067   */\n      dup2\n        /* \"#utility.yul\":12063:12076   */\n      lt\n        /* \"#utility.yul\":12055:12209   */\n      iszero\n      tag_220\n      jumpi\n        /* \"#utility.yul\":12143:12150   */\n      dup2\n        /* \"#utility.yul\":12137:12151   */\n      sload\n        /* \"#utility.yul\":12133:12134   */\n      dup2\n        /* \"#utility.yul\":12128:12131   */\n      dup10\n        /* \"#utility.yul\":12124:12135   */\n      add\n        /* \"#utility.yul\":12117:12152   */\n      mstore\n        /* \"#utility.yul\":12193:12194   */\n      0x01\n        /* \"#utility.yul\":12184:12191   */\n      dup3\n        /* \"#utility.yul\":12180:12195   */\n      add\n        /* \"#utility.yul\":12169:12195   */\n      swap2\n      pop\n        /* \"#utility.yul\":12091:12095   */\n      0x20\n        /* \"#utility.yul\":12088:12089   */\n      dup2\n        /* \"#utility.yul\":12084:12096   */\n      add\n        /* \"#utility.yul\":12079:12096   */\n      swap1\n      pop\n        /* \"#utility.yul\":12055:12209   */\n      jump(tag_218)\n    tag_220:\n        /* \"#utility.yul\":12238:12244   */\n      dup4\n        /* \"#utility.yul\":12233:12236   */\n      dup9\n        /* \"#utility.yul\":12229:12245   */\n      add\n        /* \"#utility.yul\":12222:12245   */\n      swap6\n      pop\n        /* \"#utility.yul\":11921:12255   */\n      pop\n      pop\n        /* \"#utility.yul\":11706:12255   */\n    tag_214:\n      pop\n        /* \"#utility.yul\":11494:12261   */\n      pop\n      pop\n        /* \"#utility.yul\":11387:12261   */\n      swap3\n      swap2\n      pop\n      pop\n      jump\t// out\n        /* \"#utility.yul\":12267:12536   */\n    tag_37:\n        /* \"#utility.yul\":12396:12399   */\n      0x00\n        /* \"#utility.yul\":12418:12510   */\n      tag_222\n        /* \"#utility.yul\":12506:12509   */\n      dup3\n        /* \"#utility.yul\":12497:12503   */\n      dup5\n        /* \"#utility.yul\":12418:12510   */\n      tag_84\n      jump\t// in\n    tag_222:\n        /* \"#utility.yul\":12411:12510   */\n      swap2\n      pop\n        /* \"#utility.yul\":12527:12530   */\n      dup2\n        /* \"#utility.yul\":12520:12530   */\n      swap1\n      pop\n        /* \"#utility.yul\":12267:12536   */\n      swap3\n      swap2\n      pop\n      pop\n      jump\t// out\n\n    auxdata: 0xa264697066735822122042476f847591eb0c7acec54fd9b51b1a7cf56a029ee5def0905db4c5c6696d1064736f6c634300081a0033\n}\n",
				"bytecode": {
					"linkReferences": {},
					"object": "60806040526040518060400160405280600b81526020017f68656c6c6f20776f726c640000000000000000000000000000000000000000008152505f908161004791906102d8565b506040518060400160405280600b81526020017f68656c6c6f20776f726c640000000000000000000000000000000000000000008152506001908161008c91906103ff565b50348015610098575f80fd5b506104ce565b5f81519050919050565b7f4e487b71000000000000000000000000000000000000000000000000000000005f52604160045260245ffd5b7f4e487b71000000000000000000000000000000000000000000000000000000005f52602260045260245ffd5b5f600282049050600182168061011957607f821691505b60208210810361012c5761012b6100d5565b5b50919050565b5f819050815f5260205f209050919050565b5f6020601f8301049050919050565b5f82821b905092915050565b5f6008830261018e7fffffffffffffffffffffffffffffffffffffffffffffffffffffffffffffffff82610153565b6101988683610153565b95508019841693508086168417925050509392505050565b5f819050919050565b5f819050919050565b5f6101dc6101d76101d2846101b0565b6101b9565b6101b0565b9050919050565b5f819050919050565b6101f5836101c2565b610209610201826101e3565b84845461015f565b825550505050565b5f90565b61021d610211565b6102288184846101ec565b505050565b5b8181101561024b576102405f82610215565b60018101905061022e565b5050565b601f8211156102905761026181610132565b61026a84610144565b81016020851015610279578190505b61028d61028585610144565b83018261022d565b50505b505050565b5f82821c905092915050565b5f6102b05f1984600802610295565b1980831691505092915050565b5f6102c883836102a1565b9150826002028217905092915050565b6102e18261009e565b67ffffffffffffffff8111156102fa576102f96100a8565b5b6103048254610102565b61030f82828561024f565b5f60209050601f831160018114610340575f841561032e578287015190505b61033885826102bd565b86555061039f565b601f19841661034e86610132565b5f5b8281101561037557848901518255600182019150602085019450602081019050610350565b86831015610392578489015161038e601f8916826102a1565b8355505b6001600288020188555050505b505050505050565b5f819050815f5260205f209050919050565b601f8211156103fa576103cb816103a7565b6103d484610144565b810160208510156103e3578190505b6103f76103ef85610144565b83018261022d565b50505b505050565b6104088261009e565b67ffffffffffffffff811115610421576104206100a8565b5b61042b8254610102565b6104368282856103b9565b5f60209050601f831160018114610467575f8415610455578287015190505b61045f85826102bd565b8655506104c6565b601f198416610475866103a7565b5f5b8281101561049c57848901518255600182019150602085019450602081019050610477565b868310156104b957848901516104b5601f8916826102a1565b8355505b6001600288020188555050505b505050505050565b6108fd806104db5f395ff3fe608060405234801561000f575f80fd5b506004361061004a575f3560e01c8063492bfa181461004e5780635537f99e1461006c5780636ee67a4a14610088578063712f4602146100b8575b5f80fd5b6100566100d6565b60405161006391906102c6565b60405180910390f35b61008660048036038101906100819190610423565b610161565b005b6100a2600480360381019061009d9190610423565b610173565b6040516100af9190610484565b60405180910390f35b6100c06101ca565b6040516100cd91906104ef565b60405180910390f35b5f80546100e29061053c565b80601f016020809104026020016040519081016040528092919081815260200182805461010e9061053c565b80156101595780601f1061013057610100808354040283529160200191610159565b820191905f5260205f20905b81548152906001019060200180831161013c57829003601f168201915b505050505081565b805f908161016f9190610712565b5050565b5f81604051602001610185919061081b565b604051602081830303815290604052805190602001205f6040516020016101ac91906108b1565b60405160208183030381529060405280519060200120149050919050565b600180546101d79061053c565b80601f01602080910402602001604051908101604052809291908181526020018280546102039061053c565b801561024e5780601f106102255761010080835404028352916020019161024e565b820191905f5260205f20905b81548152906001019060200180831161023157829003601f168201915b505050505081565b5f81519050919050565b5f82825260208201905092915050565b8281835e5f83830152505050565b5f601f19601f8301169050919050565b5f61029882610256565b6102a28185610260565b93506102b2818560208601610270565b6102bb8161027e565b840191505092915050565b5f6020820190508181035f8301526102de818461028e565b905092915050565b5f604051905090565b5f80fd5b5f80fd5b5f80fd5b5f80fd5b7f4e487b71000000000000000000000000000000000000000000000000000000005f52604160045260245ffd5b6103358261027e565b810181811067ffffffffffffffff82111715610354576103536102ff565b5b80604052505050565b5f6103666102e6565b9050610372828261032c565b919050565b5f67ffffffffffffffff821115610391576103906102ff565b5b61039a8261027e565b9050602081019050919050565b828183375f83830152505050565b5f6103c76103c284610377565b61035d565b9050828152602081018484840111156103e3576103e26102fb565b5b6103ee8482856103a7565b509392505050565b5f82601f83011261040a576104096102f7565b5b813561041a8482602086016103b5565b91505092915050565b5f60208284031215610438576104376102ef565b5b5f82013567ffffffffffffffff811115610455576104546102f3565b5b610461848285016103f6565b91505092915050565b5f8115159050919050565b61047e8161046a565b82525050565b5f6020820190506104975f830184610475565b92915050565b5f81519050919050565b5f82825260208201905092915050565b5f6104c18261049d565b6104cb81856104a7565b93506104db818560208601610270565b6104e48161027e565b840191505092915050565b5f6020820190508181035f83015261050781846104b7565b905092915050565b7f4e487b71000000000000000000000000000000000000000000000000000000005f52602260045260245ffd5b5f600282049050600182168061055357607f821691505b6020821081036105665761056561050f565b5b50919050565b5f819050815f5260205f209050919050565b5f6020601f8301049050919050565b5f82821b905092915050565b5f600883026105c87fffffffffffffffffffffffffffffffffffffffffffffffffffffffffffffffff8261058d565b6105d2868361058d565b95508019841693508086168417925050509392505050565b5f819050919050565b5f819050919050565b5f61061661061161060c846105ea565b6105f3565b6105ea565b9050919050565b5f819050919050565b61062f836105fc565b61064361063b8261061d565b848454610599565b825550505050565b5f90565b61065761064b565b610662818484610626565b505050565b5b818110156106855761067a5f8261064f565b600181019050610668565b5050565b601f8211156106ca5761069b8161056c565b6106a48461057e565b810160208510156106b3578190505b6106c76106bf8561057e565b830182610667565b50505b505050565b5f82821c905092915050565b5f6106ea5f19846008026106cf565b1980831691505092915050565b5f61070283836106db565b9150826002028217905092915050565b61071b82610256565b67ffffffffffffffff811115610734576107336102ff565b5b61073e825461053c565b610749828285610689565b5f60209050601f83116001811461077a575f8415610768578287015190505b61077285826106f7565b8655506107d9565b601f1984166107888661056c565b5f5b828110156107af5784890151825560018201915060208501945060208101905061078a565b868310156107cc57848901516107c8601f8916826106db565b8355505b6001600288020188555050505b505050505050565b5f81905092915050565b5f6107f582610256565b6107ff81856107e1565b935061080f818560208601610270565b80840191505092915050565b5f61082682846107eb565b915081905092915050565b5f815461083d8161053c565b61084781866107e1565b9450600182165f81146108615760018114610876576108a8565b60ff19831686528115158202860193506108a8565b61087f8561056c565b5f5b838110156108a057815481890152600182019150602081019050610881565b838801955050505b50505092915050565b5f6108bc8284610831565b91508190509291505056fea264697066735822122042476f847591eb0c7acec54fd9b51b1a7cf56a029ee5def0905db4c5c6696d1064736f6c634300081a0033",
					"opcodes": "PUSH1 0x80 PUSH1 0x40 MSTORE PUSH1 0x40 MLOAD DUP1 PUSH1 0x40 ADD PUSH1 0x40 MSTORE DUP1 PUSH1 0xB DUP2 MSTORE PUSH1 0x20 ADD PUSH32 0x68656C6C6F20776F726C64000000000000000000000000000000000000000000 DUP2 MSTORE POP PUSH0 SWAP1 DUP2 PUSH2 0x47 SWAP2 SWAP1 PUSH2 0x2D8 JUMP JUMPDEST POP PUSH1 0x40 MLOAD DUP1 PUSH1 0x40 ADD PUSH1 0x40 MSTORE DUP1 PUSH1 0xB DUP2 MSTORE PUSH1 0x20 ADD PUSH32 0x68656C6C6F20776F726C64000000000000000000000000000000000000000000 DUP2 MSTORE POP PUSH1 0x1 SWAP1 DUP2 PUSH2 0x8C SWAP2 SWAP1 PUSH2 0x3FF JUMP JUMPDEST POP CALLVALUE DUP1 ISZERO PUSH2 0x98 JUMPI PUSH0 DUP1 REVERT JUMPDEST POP PUSH2 0x4CE JUMP JUMPDEST PUSH0 DUP2 MLOAD SWAP1 POP SWAP2 SWAP1 POP JUMP JUMPDEST PUSH32 0x4E487B7100000000000000000000000000000000000000000000000000000000 PUSH0 MSTORE PUSH1 0x41 PUSH1 0x4 MSTORE PUSH1 0x24 PUSH0 REVERT JUMPDEST PUSH32 0x4E487B7100000000000000000000000000000000000000000000000000000000 PUSH0 MSTORE PUSH1 0x22 PUSH1 0x4 MSTORE PUSH1 0x24 PUSH0 REVERT JUMPDEST PUSH0 PUSH1 0x2 DUP3 DIV SWAP1 POP PUSH1 0x1 DUP3 AND DUP1 PUSH2 0x119 JUMPI PUSH1 0x7F DUP3 AND SWAP2 POP JUMPDEST PUSH1 0x20 DUP3 LT DUP2 SUB PUSH2 0x12C JUMPI PUSH2 0x12B PUSH2 0xD5 JUMP JUMPDEST JUMPDEST POP SWAP2 SWAP1 POP JUMP JUMPDEST PUSH0 DUP2 SWAP1 POP DUP2 PUSH0 MSTORE PUSH1 0x20 PUSH0 KECCAK256 SWAP1 POP SWAP2 SWAP1 POP JUMP JUMPDEST PUSH0 PUSH1 0x20 PUSH1 0x1F DUP4 ADD DIV SWAP1 POP SWAP2 SWAP1 POP JUMP JUMPDEST PUSH0 DUP3 DUP3 SHL SWAP1 POP SWAP3 SWAP2 POP POP JUMP JUMPDEST PUSH0 PUSH1 0x8 DUP4 MUL PUSH2 0x18E PUSH32 0xFFFFFFFFFFFFFFFFFFFFFFFFFFFFFFFFFFFFFFFFFFFFFFFFFFFFFFFFFFFFFFFF DUP3 PUSH2 0x153 JUMP JUMPDEST PUSH2 0x198 DUP7 DUP4 PUSH2 0x153 JUMP JUMPDEST SWAP6 POP DUP1 NOT DUP5 AND SWAP4 POP DUP1 DUP7 AND DUP5 OR SWAP3 POP POP POP SWAP4 SWAP3 POP POP POP JUMP JUMPDEST PUSH0 DUP2 SWAP1 POP SWAP2 SWAP1 POP JUMP JUMPDEST PUSH0 DUP2 SWAP1 POP SWAP2 SWAP1 POP JUMP JUMPDEST PUSH0 PUSH2 0x1DC PUSH2 0x1D7 PUSH2 0x1D2 DUP5 PUSH2 0x1B0 JUMP JUMPDEST PUSH2 0x1B9 JUMP JUMPDEST PUSH2 0x1B0 JUMP JUMPDEST SWAP1 POP SWAP2 SWAP1 POP JUMP JUMPDEST PUSH0 DUP2 SWAP1 POP SWAP2 SWAP1 POP JUMP JUMPDEST PUSH2 0x1F5 DUP4 PUSH2 0x1C2 JUMP JUMPDEST PUSH2 0x209 PUSH2 0x201 DUP3 PUSH2 0x1E3 JUMP JUMPDEST DUP5 DUP5 SLOAD PUSH2 0x15F JUMP JUMPDEST DUP3 SSTORE POP POP POP POP JUMP JUMPDEST PUSH0 SWAP1 JUMP JUMPDEST PUSH2 0x21D PUSH2 0x211 JUMP JUMPDEST PUSH2 0x228 DUP2 DUP5 DUP5 PUSH2 0x1EC JUMP JUMPDEST POP POP POP JUMP JUMPDEST JUMPDEST DUP2 DUP2 LT ISZERO PUSH2 0x24B JUMPI PUSH2 0x240 PUSH0 DUP3 PUSH2 0x215 JUMP JUMPDEST PUSH1 0x1 DUP2 ADD SWAP1 POP PUSH2 0x22E JUMP JUMPDEST POP POP JUMP JUMPDEST PUSH1 0x1F DUP3 GT ISZERO PUSH2 0x290 JUMPI PUSH2 0x261 DUP2 PUSH2 0x132 JUMP JUMPDEST PUSH2 0x26A DUP5 PUSH2 0x144 JUMP JUMPDEST DUP2 ADD PUSH1 0x20 DUP6 LT ISZERO PUSH2 0x279 JUMPI DUP2 SWAP1 POP JUMPDEST PUSH2 0x28D PUSH2 0x285 DUP6 PUSH2 0x144 JUMP JUMPDEST DUP4 ADD DUP3 PUSH2 0x22D JUMP JUMPDEST POP POP JUMPDEST POP POP POP JUMP JUMPDEST PUSH0 DUP3 DUP3 SHR SWAP1 POP SWAP3 SWAP2 POP POP JUMP JUMPDEST PUSH0 PUSH2 0x2B0 PUSH0 NOT DUP5 PUSH1 0x8 MUL PUSH2 0x295 JUMP JUMPDEST NOT DUP1 DUP4 AND SWAP2 POP POP SWAP3 SWAP2 POP POP JUMP JUMPDEST PUSH0 PUSH2 0x2C8 DUP4 DUP4 PUSH2 0x2A1 JUMP JUMPDEST SWAP2 POP DUP3 PUSH1 0x2 MUL DUP3 OR SWAP1 POP SWAP3 SWAP2 POP POP JUMP JUMPDEST PUSH2 0x2E1 DUP3 PUSH2 0x9E JUMP JUMPDEST PUSH8 0xFFFFFFFFFFFFFFFF DUP2 GT ISZERO PUSH2 0x2FA JUMPI PUSH2 0x2F9 PUSH2 0xA8 JUMP JUMPDEST JUMPDEST PUSH2 0x304 DUP3 SLOAD PUSH2 0x102 JUMP JUMPDEST PUSH2 0x30F DUP3 DUP3 DUP6 PUSH2 0x24F JUMP JUMPDEST PUSH0 PUSH1 0x20 SWAP1 POP PUSH1 0x1F DUP4 GT PUSH1 0x1 DUP2 EQ PUSH2 0x340 JUMPI PUSH0 DUP5 ISZERO PUSH2 0x32E JUMPI DUP3 DUP8 ADD MLOAD SWAP1 POP JUMPDEST PUSH2 0x338 DUP6 DUP3 PUSH2 0x2BD JUMP JUMPDEST DUP7 SSTORE POP PUSH2 0x39F JUMP JUMPDEST PUSH1 0x1F NOT DUP5 AND PUSH2 0x34E DUP7 PUSH2 0x132 JUMP JUMPDEST PUSH0 JUMPDEST DUP3 DUP2 LT ISZERO PUSH2 0x375 JUMPI DUP5 DUP10 ADD MLOAD DUP3 SSTORE PUSH1 0x1 DUP3 ADD SWAP2 POP PUSH1 0x20 DUP6 ADD SWAP5 POP PUSH1 0x20 DUP2 ADD SWAP1 POP PUSH2 0x350 JUMP JUMPDEST DUP7 DUP4 LT ISZERO PUSH2 0x392 JUMPI DUP5 DUP10 ADD MLOAD PUSH2 0x38E PUSH1 0x1F DUP10 AND DUP3 PUSH2 0x2A1 JUMP JUMPDEST DUP4 SSTORE POP JUMPDEST PUSH1 0x1 PUSH1 0x2 DUP9 MUL ADD DUP9 SSTORE POP POP POP JUMPDEST POP POP POP POP POP POP JUMP JUMPDEST PUSH0 DUP2 SWAP1 POP DUP2 PUSH0 MSTORE PUSH1 0x20 PUSH0 KECCAK256 SWAP1 POP SWAP2 SWAP1 POP JUMP JUMPDEST PUSH1 0x1F DUP3 GT ISZERO PUSH2 0x3FA JUMPI PUSH2 0x3CB DUP2 PUSH2 0x3A7 JUMP JUMPDEST PUSH2 0x3D4 DUP5 PUSH2 0x144 JUMP JUMPDEST DUP2 ADD PUSH1 0x20 DUP6 LT ISZERO PUSH2 0x3E3 JUMPI DUP2 SWAP1 POP JUMPDEST PUSH2 0x3F7 PUSH2 0x3EF DUP6 PUSH2 0x144 JUMP JUMPDEST DUP4 ADD DUP3 PUSH2 0x22D JUMP JUMPDEST POP POP JUMPDEST POP POP POP JUMP JUMPDEST PUSH2 0x408 DUP3 PUSH2 0x9E JUMP JUMPDEST PUSH8 0xFFFFFFFFFFFFFFFF DUP2 GT ISZERO PUSH2 0x421 JUMPI PUSH2 0x420 PUSH2 0xA8 JUMP JUMPDEST JUMPDEST PUSH2 0x42B DUP3 SLOAD PUSH2 0x102 JUMP JUMPDEST PUSH2 0x436 DUP3 DUP3 DUP6 PUSH2 0x3B9 JUMP JUMPDEST PUSH0 PUSH1 0x20 SWAP1 POP PUSH1 0x1F DUP4 GT PUSH1 0x1 DUP2 EQ PUSH2 0x467 JUMPI PUSH0 DUP5 ISZERO PUSH2 0x455 JUMPI DUP3 DUP8 ADD MLOAD SWAP1 POP JUMPDEST PUSH2 0x45F DUP6 DUP3 PUSH2 0x2BD JUMP JUMPDEST DUP7 SSTORE POP PUSH2 0x4C6 JUMP JUMPDEST PUSH1 0x1F NOT DUP5 AND PUSH2 0x475 DUP7 PUSH2 0x3A7 JUMP JUMPDEST PUSH0 JUMPDEST DUP3 DUP2 LT ISZERO PUSH2 0x49C JUMPI DUP5 DUP10 ADD MLOAD DUP3 SSTORE PUSH1 0x1 DUP3 ADD SWAP2 POP PUSH1 0x20 DUP6 ADD SWAP5 POP PUSH1 0x20 DUP2 ADD SWAP1 POP PUSH2 0x477 JUMP JUMPDEST DUP7 DUP4 LT ISZERO PUSH2 0x4B9 JUMPI DUP5 DUP10 ADD MLOAD PUSH2 0x4B5 PUSH1 0x1F DUP10 AND DUP3 PUSH2 0x2A1 JUMP JUMPDEST DUP4 SSTORE POP JUMPDEST PUSH1 0x1 PUSH1 0x2 DUP9 MUL ADD DUP9 SSTORE POP POP POP JUMPDEST POP POP POP POP POP POP JUMP JUMPDEST PUSH2 0x8FD DUP1 PUSH2 0x4DB PUSH0 CODECOPY PUSH0 RETURN INVALID PUSH1 0x80 PUSH1 0x40 MSTORE CALLVALUE DUP1 ISZERO PUSH2 0xF JUMPI PUSH0 DUP1 REVERT JUMPDEST POP PUSH1 0x4 CALLDATASIZE LT PUSH2 0x4A JUMPI PUSH0 CALLDATALOAD PUSH1 0xE0 SHR DUP1 PUSH4 0x492BFA18 EQ PUSH2 0x4E JUMPI DUP1 PUSH4 0x5537F99E EQ PUSH2 0x6C JUMPI DUP1 PUSH4 0x6EE67A4A EQ PUSH2 0x88 JUMPI DUP1 PUSH4 0x712F4602 EQ PUSH2 0xB8 JUMPI JUMPDEST PUSH0 DUP1 REVERT JUMPDEST PUSH2 0x56 PUSH2 0xD6 JUMP JUMPDEST PUSH1 0x40 MLOAD PUSH2 0x63 SWAP2 SWAP1 PUSH2 0x2C6 JUMP JUMPDEST PUSH1 0x40 MLOAD DUP1 SWAP2 SUB SWAP1 RETURN JUMPDEST PUSH2 0x86 PUSH1 0x4 DUP1 CALLDATASIZE SUB DUP2 ADD SWAP1 PUSH2 0x81 SWAP2 SWAP1 PUSH2 0x423 JUMP JUMPDEST PUSH2 0x161 JUMP JUMPDEST STOP JUMPDEST PUSH2 0xA2 PUSH1 0x4 DUP1 CALLDATASIZE SUB DUP2 ADD SWAP1 PUSH2 0x9D SWAP2 SWAP1 PUSH2 0x423 JUMP JUMPDEST PUSH2 0x173 JUMP JUMPDEST PUSH1 0x40 MLOAD PUSH2 0xAF SWAP2 SWAP1 PUSH2 0x484 JUMP JUMPDEST PUSH1 0x40 MLOAD DUP1 SWAP2 SUB SWAP1 RETURN JUMPDEST PUSH2 0xC0 PUSH2 0x1CA JUMP JUMPDEST PUSH1 0x40 MLOAD PUSH2 0xCD SWAP2 SWAP1 PUSH2 0x4EF JUMP JUMPDEST PUSH1 0x40 MLOAD DUP1 SWAP2 SUB SWAP1 RETURN JUMPDEST PUSH0 DUP1 SLOAD PUSH2 0xE2 SWAP1 PUSH2 0x53C JUMP JUMPDEST DUP1 PUSH1 0x1F ADD PUSH1 0x20 DUP1 SWAP2 DIV MUL PUSH1 0x20 ADD PUSH1 0x40 MLOAD SWAP1 DUP2 ADD PUSH1 0x40 MSTORE DUP1 SWAP3 SWAP2 SWAP1 DUP2 DUP2 MSTORE PUSH1 0x20 ADD DUP3 DUP1 SLOAD PUSH2 0x10E SWAP1 PUSH2 0x53C JUMP JUMPDEST DUP1 ISZERO PUSH2 0x159 JUMPI DUP1 PUSH1 0x1F LT PUSH2 0x130 JUMPI PUSH2 0x100 DUP1 DUP4 SLOAD DIV MUL DUP4 MSTORE SWAP2 PUSH1 0x20 ADD SWAP2 PUSH2 0x159 JUMP JUMPDEST DUP3 ADD SWAP2 SWAP1 PUSH0 MSTORE PUSH1 0x20 PUSH0 KECCAK256 SWAP1 JUMPDEST DUP2 SLOAD DUP2 MSTORE SWAP1 PUSH1 0x1 ADD SWAP1 PUSH1 0x20 ADD DUP1 DUP4 GT PUSH2 0x13C JUMPI DUP3 SWAP1 SUB PUSH1 0x1F AND DUP3 ADD SWAP2 JUMPDEST POP POP POP POP POP DUP2 JUMP JUMPDEST DUP1 PUSH0 SWAP1 DUP2 PUSH2 0x16F SWAP2 SWAP1 PUSH2 0x712 JUMP JUMPDEST POP POP JUMP JUMPDEST PUSH0 DUP2 PUSH1 0x40 MLOAD PUSH1 0x20 ADD PUSH2 0x185 SWAP2 SWAP1 PUSH2 0x81B JUMP JUMPDEST PUSH1 0x40 MLOAD PUSH1 0x20 DUP2 DUP4 SUB SUB DUP2 MSTORE SWAP1 PUSH1 0x40 MSTORE DUP1 MLOAD SWAP1 PUSH1 0x20 ADD KECCAK256 PUSH0 PUSH1 0x40 MLOAD PUSH1 0x20 ADD PUSH2 0x1AC SWAP2 SWAP1 PUSH2 0x8B1 JUMP JUMPDEST PUSH1 0x40 MLOAD PUSH1 0x20 DUP2 DUP4 SUB SUB DUP2 MSTORE SWAP1 PUSH1 0x40 MSTORE DUP1 MLOAD SWAP1 PUSH1 0x20 ADD KECCAK256 EQ SWAP1 POP SWAP2 SWAP1 POP JUMP JUMPDEST PUSH1 0x1 DUP1 SLOAD PUSH2 0x1D7 SWAP1 PUSH2 0x53C JUMP JUMPDEST DUP1 PUSH1 0x1F ADD PUSH1 0x20 DUP1 SWAP2 DIV MUL PUSH1 0x20 ADD PUSH1 0x40 MLOAD SWAP1 DUP2 ADD PUSH1 0x40 MSTORE DUP1 SWAP3 SWAP2 SWAP1 DUP2 DUP2 MSTORE PUSH1 0x20 ADD DUP3 DUP1 SLOAD PUSH2 0x203 SWAP1 PUSH2 0x53C JUMP JUMPDEST DUP1 ISZERO PUSH2 0x24E JUMPI DUP1 PUSH1 0x1F LT PUSH2 0x225 JUMPI PUSH2 0x100 DUP1 DUP4 SLOAD DIV MUL DUP4 MSTORE SWAP2 PUSH1 0x20 ADD SWAP2 PUSH2 0x24E JUMP JUMPDEST DUP3 ADD SWAP2 SWAP1 PUSH0 MSTORE PUSH1 0x20 PUSH0 KECCAK256 SWAP1 JUMPDEST DUP2 SLOAD DUP2 MSTORE SWAP1 PUSH1 0x1 ADD SWAP1 PUSH1 0x20 ADD DUP1 DUP4 GT PUSH2 0x231 JUMPI DUP3 SWAP1 SUB PUSH1 0x1F AND DUP3 ADD SWAP2 JUMPDEST POP POP POP POP POP DUP2 JUMP JUMPDEST PUSH0 DUP2 MLOAD SWAP1 POP SWAP2 SWAP1 POP JUMP JUMPDEST PUSH0 DUP3 DUP3 MSTORE PUSH1 0x20 DUP3 ADD SWAP1 POP SWAP3 SWAP2 POP POP JUMP JUMPDEST DUP3 DUP2 DUP4 MCOPY PUSH0 DUP4 DUP4 ADD MSTORE POP POP POP JUMP JUMPDEST PUSH0 PUSH1 0x1F NOT PUSH1 0x1F DUP4 ADD AND SWAP1 POP SWAP2 SWAP1 POP JUMP JUMPDEST PUSH0 PUSH2 0x298 DUP3 PUSH2 0x256 JUMP JUMPDEST PUSH2 0x2A2 DUP2 DUP6 PUSH2 0x260 JUMP JUMPDEST SWAP4 POP PUSH2 0x2B2 DUP2 DUP6 PUSH1 0x20 DUP7 ADD PUSH2 0x270 JUMP JUMPDEST PUSH2 0x2BB DUP2 PUSH2 0x27E JUMP JUMPDEST DUP5 ADD SWAP2 POP POP SWAP3 SWAP2 POP POP JUMP JUMPDEST PUSH0 PUSH1 0x20 DUP3 ADD SWAP1 POP DUP2 DUP2 SUB PUSH0 DUP4 ADD MSTORE PUSH2 0x2DE DUP2 DUP5 PUSH2 0x28E JUMP JUMPDEST SWAP1 POP SWAP3 SWAP2 POP POP JUMP JUMPDEST PUSH0 PUSH1 0x40 MLOAD SWAP1 POP SWAP1 JUMP JUMPDEST PUSH0 DUP1 REVERT JUMPDEST PUSH0 DUP1 REVERT JUMPDEST PUSH0 DUP1 REVERT JUMPDEST PUSH0 DUP1 REVERT JUMPDEST PUSH32 0x4E487B7100000000000000000000000000000000000000000000000000000000 PUSH0 MSTORE PUSH1 0x41 PUSH1 0x4 MSTORE PUSH1 0x24 PUSH0 REVERT JUMPDEST PUSH2 0x335 DUP3 PUSH2 0x27E JUMP JUMPDEST DUP2 ADD DUP2 DUP2 LT PUSH8 0xFFFFFFFFFFFFFFFF DUP3 GT OR ISZERO PUSH2 0x354 JUMPI PUSH2 0x353 PUSH2 0x2FF JUMP JUMPDEST JUMPDEST DUP1 PUSH1 0x40 MSTORE POP POP POP JUMP JUMPDEST PUSH0 PUSH2 0x366 PUSH2 0x2E6 JUMP JUMPDEST SWAP1 POP PUSH2 0x372 DUP3 DUP3 PUSH2 0x32C JUMP JUMPDEST SWAP2 SWAP1 POP JUMP JUMPDEST PUSH0 PUSH8 0xFFFFFFFFFFFFFFFF DUP3 GT ISZERO PUSH2 0x391 JUMPI PUSH2 0x390 PUSH2 0x2FF JUMP JUMPDEST JUMPDEST PUSH2 0x39A DUP3 PUSH2 0x27E JUMP JUMPDEST SWAP1 POP PUSH1 0x20 DUP2 ADD SWAP1 POP SWAP2 SWAP1 POP JUMP JUMPDEST DUP3 DUP2 DUP4 CALLDATACOPY PUSH0 DUP4 DUP4 ADD MSTORE POP POP POP JUMP JUMPDEST PUSH0 PUSH2 0x3C7 PUSH2 0x3C2 DUP5 PUSH2 0x377 JUMP JUMPDEST PUSH2 0x35D JUMP JUMPDEST SWAP1 POP DUP3 DUP2 MSTORE PUSH1 0x20 DUP2 ADD DUP5 DUP5 DUP5 ADD GT ISZERO PUSH2 0x3E3 JUMPI PUSH2 0x3E2 PUSH2 0x2FB JUMP JUMPDEST JUMPDEST PUSH2 0x3EE DUP5 DUP3 DUP6 PUSH2 0x3A7 JUMP JUMPDEST POP SWAP4 SWAP3 POP POP POP JUMP JUMPDEST PUSH0 DUP3 PUSH1 0x1F DUP4 ADD SLT PUSH2 0x40A JUMPI PUSH2 0x409 PUSH2 0x2F7 JUMP JUMPDEST JUMPDEST DUP2 CALLDATALOAD PUSH2 0x41A DUP5 DUP3 PUSH1 0x20 DUP7 ADD PUSH2 0x3B5 JUMP JUMPDEST SWAP2 POP POP SWAP3 SWAP2 POP POP JUMP JUMPDEST PUSH0 PUSH1 0x20 DUP3 DUP5 SUB SLT ISZERO PUSH2 0x438 JUMPI PUSH2 0x437 PUSH2 0x2EF JUMP JUMPDEST JUMPDEST PUSH0 DUP3 ADD CALLDATALOAD PUSH8 0xFFFFFFFFFFFFFFFF DUP2 GT ISZERO PUSH2 0x455 JUMPI PUSH2 0x454 PUSH2 0x2F3 JUMP JUMPDEST JUMPDEST PUSH2 0x461 DUP5 DUP3 DUP6 ADD PUSH2 0x3F6 JUMP JUMPDEST SWAP2 POP POP SWAP3 SWAP2 POP POP JUMP JUMPDEST PUSH0 DUP2 ISZERO ISZERO SWAP1 POP SWAP2 SWAP1 POP JUMP JUMPDEST PUSH2 0x47E DUP2 PUSH2 0x46A JUMP JUMPDEST DUP3 MSTORE POP POP JUMP JUMPDEST PUSH0 PUSH1 0x20 DUP3 ADD SWAP1 POP PUSH2 0x497 PUSH0 DUP4 ADD DUP5 PUSH2 0x475 JUMP JUMPDEST SWAP3 SWAP2 POP POP JUMP JUMPDEST PUSH0 DUP2 MLOAD SWAP1 POP SWAP2 SWAP1 POP JUMP JUMPDEST PUSH0 DUP3 DUP3 MSTORE PUSH1 0x20 DUP3 ADD SWAP1 POP SWAP3 SWAP2 POP POP JUMP JUMPDEST PUSH0 PUSH2 0x4C1 DUP3 PUSH2 0x49D JUMP JUMPDEST PUSH2 0x4CB DUP2 DUP6 PUSH2 0x4A7 JUMP JUMPDEST SWAP4 POP PUSH2 0x4DB DUP2 DUP6 PUSH1 0x20 DUP7 ADD PUSH2 0x270 JUMP JUMPDEST PUSH2 0x4E4 DUP2 PUSH2 0x27E JUMP JUMPDEST DUP5 ADD SWAP2 POP POP SWAP3 SWAP2 POP POP JUMP JUMPDEST PUSH0 PUSH1 0x20 DUP3 ADD SWAP1 POP DUP2 DUP2 SUB PUSH0 DUP4 ADD MSTORE PUSH2 0x507 DUP2 DUP5 PUSH2 0x4B7 JUMP JUMPDEST SWAP1 POP SWAP3 SWAP2 POP POP JUMP JUMPDEST PUSH32 0x4E487B7100000000000000000000000000000000000000000000000000000000 PUSH0 MSTORE PUSH1 0x22 PUSH1 0x4 MSTORE PUSH1 0x24 PUSH0 REVERT JUMPDEST PUSH0 PUSH1 0x2 DUP3 DIV SWAP1 POP PUSH1 0x1 DUP3 AND DUP1 PUSH2 0x553 JUMPI PUSH1 0x7F DUP3 AND SWAP2 POP JUMPDEST PUSH1 0x20 DUP3 LT DUP2 SUB PUSH2 0x566 JUMPI PUSH2 0x565 PUSH2 0x50F JUMP JUMPDEST JUMPDEST POP SWAP2 SWAP1 POP JUMP JUMPDEST PUSH0 DUP2 SWAP1 POP DUP2 PUSH0 MSTORE PUSH1 0x20 PUSH0 KECCAK256 SWAP1 POP SWAP2 SWAP1 POP JUMP JUMPDEST PUSH0 PUSH1 0x20 PUSH1 0x1F DUP4 ADD DIV SWAP1 POP SWAP2 SWAP1 POP JUMP JUMPDEST PUSH0 DUP3 DUP3 SHL SWAP1 POP SWAP3 SWAP2 POP POP JUMP JUMPDEST PUSH0 PUSH1 0x8 DUP4 MUL PUSH2 0x5C8 PUSH32 0xFFFFFFFFFFFFFFFFFFFFFFFFFFFFFFFFFFFFFFFFFFFFFFFFFFFFFFFFFFFFFFFF DUP3 PUSH2 0x58D JUMP JUMPDEST PUSH2 0x5D2 DUP7 DUP4 PUSH2 0x58D JUMP JUMPDEST SWAP6 POP DUP1 NOT DUP5 AND SWAP4 POP DUP1 DUP7 AND DUP5 OR SWAP3 POP POP POP SWAP4 SWAP3 POP POP POP JUMP JUMPDEST PUSH0 DUP2 SWAP1 POP SWAP2 SWAP1 POP JUMP JUMPDEST PUSH0 DUP2 SWAP1 POP SWAP2 SWAP1 POP JUMP JUMPDEST PUSH0 PUSH2 0x616 PUSH2 0x611 PUSH2 0x60C DUP5 PUSH2 0x5EA JUMP JUMPDEST PUSH2 0x5F3 JUMP JUMPDEST PUSH2 0x5EA JUMP JUMPDEST SWAP1 POP SWAP2 SWAP1 POP JUMP JUMPDEST PUSH0 DUP2 SWAP1 POP SWAP2 SWAP1 POP JUMP JUMPDEST PUSH2 0x62F DUP4 PUSH2 0x5FC JUMP JUMPDEST PUSH2 0x643 PUSH2 0x63B DUP3 PUSH2 0x61D JUMP JUMPDEST DUP5 DUP5 SLOAD PUSH2 0x599 JUMP JUMPDEST DUP3 SSTORE POP POP POP POP JUMP JUMPDEST PUSH0 SWAP1 JUMP JUMPDEST PUSH2 0x657 PUSH2 0x64B JUMP JUMPDEST PUSH2 0x662 DUP2 DUP5 DUP5 PUSH2 0x626 JUMP JUMPDEST POP POP POP JUMP JUMPDEST JUMPDEST DUP2 DUP2 LT ISZERO PUSH2 0x685 JUMPI PUSH2 0x67A PUSH0 DUP3 PUSH2 0x64F JUMP JUMPDEST PUSH1 0x1 DUP2 ADD SWAP1 POP PUSH2 0x668 JUMP JUMPDEST POP POP JUMP JUMPDEST PUSH1 0x1F DUP3 GT ISZERO PUSH2 0x6CA JUMPI PUSH2 0x69B DUP2 PUSH2 0x56C JUMP JUMPDEST PUSH2 0x6A4 DUP5 PUSH2 0x57E JUMP JUMPDEST DUP2 ADD PUSH1 0x20 DUP6 LT ISZERO PUSH2 0x6B3 JUMPI DUP2 SWAP1 POP JUMPDEST PUSH2 0x6C7 PUSH2 0x6BF DUP6 PUSH2 0x57E JUMP JUMPDEST DUP4 ADD DUP3 PUSH2 0x667 JUMP JUMPDEST POP POP JUMPDEST POP POP POP JUMP JUMPDEST PUSH0 DUP3 DUP3 SHR SWAP1 POP SWAP3 SWAP2 POP POP JUMP JUMPDEST PUSH0 PUSH2 0x6EA PUSH0 NOT DUP5 PUSH1 0x8 MUL PUSH2 0x6CF JUMP JUMPDEST NOT DUP1 DUP4 AND SWAP2 POP POP SWAP3 SWAP2 POP POP JUMP JUMPDEST PUSH0 PUSH2 0x702 DUP4 DUP4 PUSH2 0x6DB JUMP JUMPDEST SWAP2 POP DUP3 PUSH1 0x2 MUL DUP3 OR SWAP1 POP SWAP3 SWAP2 POP POP JUMP JUMPDEST PUSH2 0x71B DUP3 PUSH2 0x256 JUMP JUMPDEST PUSH8 0xFFFFFFFFFFFFFFFF DUP2 GT ISZERO PUSH2 0x734 JUMPI PUSH2 0x733 PUSH2 0x2FF JUMP JUMPDEST JUMPDEST PUSH2 0x73E DUP3 SLOAD PUSH2 0x53C JUMP JUMPDEST PUSH2 0x749 DUP3 DUP3 DUP6 PUSH2 0x689 JUMP JUMPDEST PUSH0 PUSH1 0x20 SWAP1 POP PUSH1 0x1F DUP4 GT PUSH1 0x1 DUP2 EQ PUSH2 0x77A JUMPI PUSH0 DUP5 ISZERO PUSH2 0x768 JUMPI DUP3 DUP8 ADD MLOAD SWAP1 POP JUMPDEST PUSH2 0x772 DUP6 DUP3 PUSH2 0x6F7 JUMP JUMPDEST DUP7 SSTORE POP PUSH2 0x7D9 JUMP JUMPDEST PUSH1 0x1F NOT DUP5 AND PUSH2 0x788 DUP7 PUSH2 0x56C JUMP JUMPDEST PUSH0 JUMPDEST DUP3 DUP2 LT ISZERO PUSH2 0x7AF JUMPI DUP5 DUP10 ADD MLOAD DUP3 SSTORE PUSH1 0x1 DUP3 ADD SWAP2 POP PUSH1 0x20 DUP6 ADD SWAP5 POP PUSH1 0x20 DUP2 ADD SWAP1 POP PUSH2 0x78A JUMP JUMPDEST DUP7 DUP4 LT ISZERO PUSH2 0x7CC JUMPI DUP5 DUP10 ADD MLOAD PUSH2 0x7C8 PUSH1 0x1F DUP10 AND DUP3 PUSH2 0x6DB JUMP JUMPDEST DUP4 SSTORE POP JUMPDEST PUSH1 0x1 PUSH1 0x2 DUP9 MUL ADD DUP9 SSTORE POP POP POP JUMPDEST POP POP POP POP POP POP JUMP JUMPDEST PUSH0 DUP2 SWAP1 POP SWAP3 SWAP2 POP POP JUMP JUMPDEST PUSH0 PUSH2 0x7F5 DUP3 PUSH2 0x256 JUMP JUMPDEST PUSH2 0x7FF DUP2 DUP6 PUSH2 0x7E1 JUMP JUMPDEST SWAP4 POP PUSH2 0x80F DUP2 DUP6 PUSH1 0x20 DUP7 ADD PUSH2 0x270 JUMP JUMPDEST DUP1 DUP5 ADD SWAP2 POP POP SWAP3 SWAP2 POP POP JUMP JUMPDEST PUSH0 PUSH2 0x826 DUP3 DUP5 PUSH2 0x7EB JUMP JUMPDEST SWAP2 POP DUP2 SWAP1 POP SWAP3 SWAP2 POP POP JUMP JUMPDEST PUSH0 DUP2 SLOAD PUSH2 0x83D DUP2 PUSH2 0x53C JUMP JUMPDEST PUSH2 0x847 DUP2 DUP7 PUSH2 0x7E1 JUMP JUMPDEST SWAP5 POP PUSH1 0x1 DUP3 AND PUSH0 DUP2 EQ PUSH2 0x861 JUMPI PUSH1 0x1 DUP2 EQ PUSH2 0x876 JUMPI PUSH2 0x8A8 JUMP JUMPDEST PUSH1 0xFF NOT DUP4 AND DUP7 MSTORE DUP2 ISZERO ISZERO DUP3 MUL DUP7 ADD SWAP4 POP PUSH2 0x8A8 JUMP JUMPDEST PUSH2 0x87F DUP6 PUSH2 0x56C JUMP JUMPDEST PUSH0 JUMPDEST DUP4 DUP2 LT ISZERO PUSH2 0x8A0 JUMPI DUP2 SLOAD DUP2 DUP10 ADD MSTORE PUSH1 0x1 DUP3 ADD SWAP2 POP PUSH1 0x20 DUP2 ADD SWAP1 POP PUSH2 0x881 JUMP JUMPDEST DUP4 DUP9 ADD SWAP6 POP POP POP JUMPDEST POP POP POP SWAP3 SWAP2 POP POP JUMP JUMPDEST PUSH0 PUSH2 0x8BC DUP3 DUP5 PUSH2 0x831 JUMP JUMPDEST SWAP2 POP DUP2 SWAP1 POP SWAP3 SWAP2 POP POP JUMP INVALID LOG2 PUSH5 0x6970667358 0x22 SLT KECCAK256 TIMESTAMP SELFBALANCE PUSH16 0x847591EB0C7ACEC54FD9B51B1A7CF56A MUL SWAP15 0xE5 0xDE CREATE SWAP1 TSTORE 0xB4 0xC5 0xC6 PUSH10 0x6D1064736F6C63430008 BYTE STOP CALLER "
				},
				"gasEstimates": {
					"creation": {
						"codeDepositCost": "460200",
						"executionCost": "infinite",
						"totalCost": "infinite"
					},
					"external": {
						"compareTwo(string)": "infinite",
						"myBytes()": "infinite",
						"myString()": "infinite",
						"setstring(string)": "infinite"
					}
				},
				"methodIdentifiers": {
					"compareTwo(string)": "6ee67a4a",
					"myBytes()": "712f4602",
					"myString()": "492bfa18",
					"setstring(string)": "5537f99e"
				}
			},
			"storageLayout": {
				"storage": [
					{
						"astId": 4,
						"contract": "contracts/exampleStrings.sol:exampleStrings",
						"label": "myString",
						"offset": 0,
						"slot": "0",
						"type": "t_string_storage"
					},
					{
						"astId": 7,
						"contract": "contracts/exampleStrings.sol:exampleStrings",
						"label": "myBytes",
						"offset": 0,
						"slot": "1",
						"type": "t_bytes_storage"
					}
				],
				"types": {
					"t_bytes_storage": {
						"encoding": "bytes",
						"label": "bytes",
						"numberOfBytes": "32"
					},
					"t_string_storage": {
						"encoding": "bytes",
						"label": "string",
						"numberOfBytes": "32"
					}
				}
			},
			"userdoc": {
				"kind": "user",
				"methods": {},
				"version": 1
			}
		}
	}
}