{
	"contracts/blockchainMessenger.sol": {
		"blockchainMessenger": {
			"abi": [
				{
					"inputs": [],
					"stateMutability": "nonpayable",
					"type": "constructor"
				},
				{
					"inputs": [],
					"name": "changeCounter",
					"outputs": [
						{
							"internalType": "uint256",
							"name": "",
							"type": "uint256"
						}
					],
					"stateMutability": "view",
					"type": "function"
				},
				{
					"inputs": [],
					"name": "message",
					"outputs": [
						{
							"internalType": "string",
							"name": "",
							"type": "string"
						}
					],
					"stateMutability": "view",
					"type": "function"
				},
				{
					"inputs": [],
					"name": "owner",
					"outputs": [
						{
							"internalType": "address",
							"name": "",
							"type": "address"
						}
					],
					"stateMutability": "view",
					"type": "function"
				},
				{
					"inputs": [
						{
							"internalType": "string",
							"name": "_newMessage",
							"type": "string"
						}
					],
					"name": "updateMessage",
					"outputs": [],
					"stateMutability": "nonpayable",
					"type": "function"
				}
			],
			"devdoc": {
				"kind": "dev",
				"methods": {},
				"version": 1
			},
			"evm": {
				"assembly": "    /* \"contracts/blockchainMessenger.sol\":60:470  contract blockchainMessenger {... */\n  mstore(0x40, 0x80)\n    /* \"contracts/blockchainMessenger.sol\":201:260  constructor() {... */\n  callvalue\n  dup1\n  iszero\n  tag_1\n  jumpi\n  0x00\n  dup1\n  revert\ntag_1:\n  pop\n    /* \"contracts/blockchainMessenger.sol\":238:248  msg.sender */\n  caller\n    /* \"contracts/blockchainMessenger.sol\":230:235  owner */\n  0x00\n  dup1\n    /* \"contracts/blockchainMessenger.sol\":230:248  owner = msg.sender */\n  0x0100\n  exp\n  dup2\n  sload\n  dup2\n  0xffffffffffffffffffffffffffffffffffffffff\n  mul\n  not\n  and\n  swap1\n  dup4\n  0xffffffffffffffffffffffffffffffffffffffff\n  and\n  mul\n  or\n  swap1\n  sstore\n  pop\n    /* \"contracts/blockchainMessenger.sol\":60:470  contract blockchainMessenger {... */\n  dataSize(sub_0)\n  dup1\n  dataOffset(sub_0)\n  0x00\n  codecopy\n  0x00\n  return\nstop\n\nsub_0: assembly {\n        /* \"contracts/blockchainMessenger.sol\":60:470  contract blockchainMessenger {... */\n      mstore(0x40, 0x80)\n      callvalue\n      dup1\n      iszero\n      tag_1\n      jumpi\n      0x00\n      dup1\n      revert\n    tag_1:\n      pop\n      jumpi(tag_2, lt(calldatasize, 0x04))\n      shr(0xe0, calldataload(0x00))\n      dup1\n      0x1923be24\n      eq\n      tag_3\n      jumpi\n      dup1\n      0x8da5cb5b\n      eq\n      tag_4\n      jumpi\n      dup1\n      0xaaf4389a\n      eq\n      tag_5\n      jumpi\n      dup1\n      0xe21f37ce\n      eq\n      tag_6\n      jumpi\n    tag_2:\n      0x00\n      dup1\n      revert\n        /* \"contracts/blockchainMessenger.sol\":272:467  function updateMessage(string memory _newMessage) public{... */\n    tag_3:\n      tag_7\n      0x04\n      dup1\n      calldatasize\n      sub\n      dup2\n      add\n      swap1\n      tag_8\n      swap2\n      swap1\n      tag_9\n      jump\t// in\n    tag_8:\n      tag_10\n      jump\t// in\n    tag_7:\n      stop\n        /* \"contracts/blockchainMessenger.sol\":100:120  address public owner */\n    tag_4:\n      tag_11\n      tag_12\n      jump\t// in\n    tag_11:\n      mload(0x40)\n      tag_13\n      swap2\n      swap1\n      tag_14\n      jump\t// in\n    tag_13:\n      mload(0x40)\n      dup1\n      swap2\n      sub\n      swap1\n      return\n        /* \"contracts/blockchainMessenger.sol\":163:188  uint public changeCounter */\n    tag_5:\n      tag_15\n      tag_16\n      jump\t// in\n    tag_15:\n      mload(0x40)\n      tag_17\n      swap2\n      swap1\n      tag_18\n      jump\t// in\n    tag_17:\n      mload(0x40)\n      dup1\n      swap2\n      sub\n      swap1\n      return\n        /* \"contracts/blockchainMessenger.sol\":131:152  string public message */\n    tag_6:\n      tag_19\n      tag_20\n      jump\t// in\n    tag_19:\n      mload(0x40)\n      tag_21\n      swap2\n      swap1\n      tag_22\n      jump\t// in\n    tag_21:\n      mload(0x40)\n      dup1\n      swap2\n      sub\n      swap1\n      return\n        /* \"contracts/blockchainMessenger.sol\":272:467  function updateMessage(string memory _newMessage) public{... */\n    tag_10:\n        /* \"contracts/blockchainMessenger.sol\":360:365  owner */\n      0x00\n      dup1\n      sload\n      swap1\n      0x0100\n      exp\n      swap1\n      div\n      0xffffffffffffffffffffffffffffffffffffffff\n      and\n        /* \"contracts/blockchainMessenger.sol\":346:365  msg.sender == owner */\n      0xffffffffffffffffffffffffffffffffffffffff\n      and\n        /* \"contracts/blockchainMessenger.sol\":346:356  msg.sender */\n      caller\n        /* \"contracts/blockchainMessenger.sol\":346:365  msg.sender == owner */\n      0xffffffffffffffffffffffffffffffffffffffff\n      and\n      sub\n        /* \"contracts/blockchainMessenger.sol\":343:456  if(msg.sender == owner){... */\n      tag_24\n      jumpi\n        /* \"contracts/blockchainMessenger.sol\":385:398  changeCounter */\n      0x02\n      0x00\n        /* \"contracts/blockchainMessenger.sol\":385:400  changeCounter++ */\n      dup2\n      sload\n      dup1\n      swap3\n      swap2\n      swap1\n      tag_25\n      swap1\n      tag_26\n      jump\t// in\n    tag_25:\n      swap2\n      swap1\n      pop\n      sstore\n      pop\n        /* \"contracts/blockchainMessenger.sol\":429:440  _newMessage */\n      dup1\n        /* \"contracts/blockchainMessenger.sol\":419:426  message */\n      0x01\n        /* \"contracts/blockchainMessenger.sol\":419:440  message = _newMessage */\n      swap1\n      dup2\n      tag_27\n      swap2\n      swap1\n      tag_28\n      jump\t// in\n    tag_27:\n      pop\n        /* \"contracts/blockchainMessenger.sol\":343:456  if(msg.sender == owner){... */\n    tag_24:\n        /* \"contracts/blockchainMessenger.sol\":272:467  function updateMessage(string memory _newMessage) public{... */\n      pop\n      jump\t// out\n        /* \"contracts/blockchainMessenger.sol\":100:120  address public owner */\n    tag_12:\n      0x00\n      dup1\n      sload\n      swap1\n      0x0100\n      exp\n      swap1\n      div\n      0xffffffffffffffffffffffffffffffffffffffff\n      and\n      dup2\n      jump\t// out\n        /* \"contracts/blockchainMessenger.sol\":163:188  uint public changeCounter */\n    tag_16:\n      sload(0x02)\n      dup2\n      jump\t// out\n        /* \"contracts/blockchainMessenger.sol\":131:152  string public message */\n    tag_20:\n      0x01\n      dup1\n      sload\n      tag_29\n      swap1\n      tag_30\n      jump\t// in\n    tag_29:\n      dup1\n      0x1f\n      add\n      0x20\n      dup1\n      swap2\n      div\n      mul\n      0x20\n      add\n      mload(0x40)\n      swap1\n      dup2\n      add\n      0x40\n      mstore\n      dup1\n      swap3\n      swap2\n      swap1\n      dup2\n      dup2\n      mstore\n      0x20\n      add\n      dup3\n      dup1\n      sload\n      tag_31\n      swap1\n      tag_30\n      jump\t// in\n    tag_31:\n      dup1\n      iszero\n      tag_32\n      jumpi\n      dup1\n      0x1f\n      lt\n      tag_33\n      jumpi\n      0x0100\n      dup1\n      dup4\n      sload\n      div\n      mul\n      dup4\n      mstore\n      swap2\n      0x20\n      add\n      swap2\n      jump(tag_32)\n    tag_33:\n      dup3\n      add\n      swap2\n      swap1\n      0x00\n      mstore\n      keccak256(0x00, 0x20)\n      swap1\n    tag_34:\n      dup2\n      sload\n      dup2\n      mstore\n      swap1\n      0x01\n      add\n      swap1\n      0x20\n      add\n      dup1\n      dup4\n      gt\n      tag_34\n      jumpi\n      dup3\n      swap1\n      sub\n      0x1f\n      and\n      dup3\n      add\n      swap2\n    tag_32:\n      pop\n      pop\n      pop\n      pop\n      pop\n      dup2\n      jump\t// out\n        /* \"#utility.yul\":7:82   */\n    tag_35:\n        /* \"#utility.yul\":40:46   */\n      0x00\n        /* \"#utility.yul\":73:75   */\n      0x40\n        /* \"#utility.yul\":67:76   */\n      mload\n        /* \"#utility.yul\":57:76   */\n      swap1\n      pop\n        /* \"#utility.yul\":7:82   */\n      swap1\n      jump\t// out\n        /* \"#utility.yul\":88:205   */\n    tag_36:\n        /* \"#utility.yul\":197:198   */\n      0x00\n        /* \"#utility.yul\":194:195   */\n      dup1\n        /* \"#utility.yul\":187:199   */\n      revert\n        /* \"#utility.yul\":211:328   */\n    tag_37:\n        /* \"#utility.yul\":320:321   */\n      0x00\n        /* \"#utility.yul\":317:318   */\n      dup1\n        /* \"#utility.yul\":310:322   */\n      revert\n        /* \"#utility.yul\":334:451   */\n    tag_38:\n        /* \"#utility.yul\":443:444   */\n      0x00\n        /* \"#utility.yul\":440:441   */\n      dup1\n        /* \"#utility.yul\":433:445   */\n      revert\n        /* \"#utility.yul\":457:574   */\n    tag_39:\n        /* \"#utility.yul\":566:567   */\n      0x00\n        /* \"#utility.yul\":563:564   */\n      dup1\n        /* \"#utility.yul\":556:568   */\n      revert\n        /* \"#utility.yul\":580:682   */\n    tag_40:\n        /* \"#utility.yul\":621:627   */\n      0x00\n        /* \"#utility.yul\":672:674   */\n      0x1f\n        /* \"#utility.yul\":668:675   */\n      not\n        /* \"#utility.yul\":663:665   */\n      0x1f\n        /* \"#utility.yul\":656:661   */\n      dup4\n        /* \"#utility.yul\":652:666   */\n      add\n        /* \"#utility.yul\":648:676   */\n      and\n        /* \"#utility.yul\":638:676   */\n      swap1\n      pop\n        /* \"#utility.yul\":580:682   */\n      swap2\n      swap1\n      pop\n      jump\t// out\n        /* \"#utility.yul\":688:868   */\n    tag_41:\n        /* \"#utility.yul\":736:813   */\n      0x4e487b7100000000000000000000000000000000000000000000000000000000\n        /* \"#utility.yul\":733:734   */\n      0x00\n        /* \"#utility.yul\":726:814   */\n      mstore\n        /* \"#utility.yul\":833:837   */\n      0x41\n        /* \"#utility.yul\":830:831   */\n      0x04\n        /* \"#utility.yul\":823:838   */\n      mstore\n        /* \"#utility.yul\":857:861   */\n      0x24\n        /* \"#utility.yul\":854:855   */\n      0x00\n        /* \"#utility.yul\":847:862   */\n      revert\n        /* \"#utility.yul\":874:1155   */\n    tag_42:\n        /* \"#utility.yul\":957:984   */\n      tag_83\n        /* \"#utility.yul\":979:983   */\n      dup3\n        /* \"#utility.yul\":957:984   */\n      tag_40\n      jump\t// in\n    tag_83:\n        /* \"#utility.yul\":949:955   */\n      dup2\n        /* \"#utility.yul\":945:985   */\n      add\n        /* \"#utility.yul\":1087:1093   */\n      dup2\n        /* \"#utility.yul\":1075:1085   */\n      dup2\n        /* \"#utility.yul\":1072:1094   */\n      lt\n        /* \"#utility.yul\":1051:1069   */\n      0xffffffffffffffff\n        /* \"#utility.yul\":1039:1049   */\n      dup3\n        /* \"#utility.yul\":1036:1070   */\n      gt\n        /* \"#utility.yul\":1033:1095   */\n      or\n        /* \"#utility.yul\":1030:1118   */\n      iszero\n      tag_84\n      jumpi\n        /* \"#utility.yul\":1098:1116   */\n      tag_85\n      tag_41\n      jump\t// in\n    tag_85:\n        /* \"#utility.yul\":1030:1118   */\n    tag_84:\n        /* \"#utility.yul\":1138:1148   */\n      dup1\n        /* \"#utility.yul\":1134:1136   */\n      0x40\n        /* \"#utility.yul\":1127:1149   */\n      mstore\n        /* \"#utility.yul\":917:1155   */\n      pop\n        /* \"#utility.yul\":874:1155   */\n      pop\n      pop\n      jump\t// out\n        /* \"#utility.yul\":1161:1290   */\n    tag_43:\n        /* \"#utility.yul\":1195:1201   */\n      0x00\n        /* \"#utility.yul\":1222:1242   */\n      tag_87\n      tag_35\n      jump\t// in\n    tag_87:\n        /* \"#utility.yul\":1212:1242   */\n      swap1\n      pop\n        /* \"#utility.yul\":1251:1284   */\n      tag_88\n        /* \"#utility.yul\":1279:1283   */\n      dup3\n        /* \"#utility.yul\":1271:1277   */\n      dup3\n        /* \"#utility.yul\":1251:1284   */\n      tag_42\n      jump\t// in\n    tag_88:\n        /* \"#utility.yul\":1161:1290   */\n      swap2\n      swap1\n      pop\n      jump\t// out\n        /* \"#utility.yul\":1296:1604   */\n    tag_44:\n        /* \"#utility.yul\":1358:1362   */\n      0x00\n        /* \"#utility.yul\":1448:1466   */\n      0xffffffffffffffff\n        /* \"#utility.yul\":1440:1446   */\n      dup3\n        /* \"#utility.yul\":1437:1467   */\n      gt\n        /* \"#utility.yul\":1434:1490   */\n      iszero\n      tag_90\n      jumpi\n        /* \"#utility.yul\":1470:1488   */\n      tag_91\n      tag_41\n      jump\t// in\n    tag_91:\n        /* \"#utility.yul\":1434:1490   */\n    tag_90:\n        /* \"#utility.yul\":1508:1537   */\n      tag_92\n        /* \"#utility.yul\":1530:1536   */\n      dup3\n        /* \"#utility.yul\":1508:1537   */\n      tag_40\n      jump\t// in\n    tag_92:\n        /* \"#utility.yul\":1500:1537   */\n      swap1\n      pop\n        /* \"#utility.yul\":1592:1596   */\n      0x20\n        /* \"#utility.yul\":1586:1590   */\n      dup2\n        /* \"#utility.yul\":1582:1597   */\n      add\n        /* \"#utility.yul\":1574:1597   */\n      swap1\n      pop\n        /* \"#utility.yul\":1296:1604   */\n      swap2\n      swap1\n      pop\n      jump\t// out\n        /* \"#utility.yul\":1610:1758   */\n    tag_45:\n        /* \"#utility.yul\":1708:1714   */\n      dup3\n        /* \"#utility.yul\":1703:1706   */\n      dup2\n        /* \"#utility.yul\":1698:1701   */\n      dup4\n        /* \"#utility.yul\":1685:1715   */\n      calldatacopy\n        /* \"#utility.yul\":1749:1750   */\n      0x00\n        /* \"#utility.yul\":1740:1746   */\n      dup4\n        /* \"#utility.yul\":1735:1738   */\n      dup4\n        /* \"#utility.yul\":1731:1747   */\n      add\n        /* \"#utility.yul\":1724:1751   */\n      mstore\n        /* \"#utility.yul\":1610:1758   */\n      pop\n      pop\n      pop\n      jump\t// out\n        /* \"#utility.yul\":1764:2189   */\n    tag_46:\n        /* \"#utility.yul\":1842:1847   */\n      0x00\n        /* \"#utility.yul\":1867:1933   */\n      tag_95\n        /* \"#utility.yul\":1883:1932   */\n      tag_96\n        /* \"#utility.yul\":1925:1931   */\n      dup5\n        /* \"#utility.yul\":1883:1932   */\n      tag_44\n      jump\t// in\n    tag_96:\n        /* \"#utility.yul\":1867:1933   */\n      tag_43\n      jump\t// in\n    tag_95:\n        /* \"#utility.yul\":1858:1933   */\n      swap1\n      pop\n        /* \"#utility.yul\":1956:1962   */\n      dup3\n        /* \"#utility.yul\":1949:1954   */\n      dup2\n        /* \"#utility.yul\":1942:1963   */\n      mstore\n        /* \"#utility.yul\":1994:1998   */\n      0x20\n        /* \"#utility.yul\":1987:1992   */\n      dup2\n        /* \"#utility.yul\":1983:1999   */\n      add\n        /* \"#utility.yul\":2032:2035   */\n      dup5\n        /* \"#utility.yul\":2023:2029   */\n      dup5\n        /* \"#utility.yul\":2018:2021   */\n      dup5\n        /* \"#utility.yul\":2014:2030   */\n      add\n        /* \"#utility.yul\":2011:2036   */\n      gt\n        /* \"#utility.yul\":2008:2120   */\n      iszero\n      tag_97\n      jumpi\n        /* \"#utility.yul\":2039:2118   */\n      tag_98\n      tag_39\n      jump\t// in\n    tag_98:\n        /* \"#utility.yul\":2008:2120   */\n    tag_97:\n        /* \"#utility.yul\":2129:2183   */\n      tag_99\n        /* \"#utility.yul\":2176:2182   */\n      dup5\n        /* \"#utility.yul\":2171:2174   */\n      dup3\n        /* \"#utility.yul\":2166:2169   */\n      dup6\n        /* \"#utility.yul\":2129:2183   */\n      tag_45\n      jump\t// in\n    tag_99:\n        /* \"#utility.yul\":1848:2189   */\n      pop\n        /* \"#utility.yul\":1764:2189   */\n      swap4\n      swap3\n      pop\n      pop\n      pop\n      jump\t// out\n        /* \"#utility.yul\":2209:2549   */\n    tag_47:\n        /* \"#utility.yul\":2265:2270   */\n      0x00\n        /* \"#utility.yul\":2314:2317   */\n      dup3\n        /* \"#utility.yul\":2307:2311   */\n      0x1f\n        /* \"#utility.yul\":2299:2305   */\n      dup4\n        /* \"#utility.yul\":2295:2312   */\n      add\n        /* \"#utility.yul\":2291:2318   */\n      slt\n        /* \"#utility.yul\":2281:2403   */\n      tag_101\n      jumpi\n        /* \"#utility.yul\":2322:2401   */\n      tag_102\n      tag_38\n      jump\t// in\n    tag_102:\n        /* \"#utility.yul\":2281:2403   */\n    tag_101:\n        /* \"#utility.yul\":2439:2445   */\n      dup2\n        /* \"#utility.yul\":2426:2446   */\n      calldataload\n        /* \"#utility.yul\":2464:2543   */\n      tag_103\n        /* \"#utility.yul\":2539:2542   */\n      dup5\n        /* \"#utility.yul\":2531:2537   */\n      dup3\n        /* \"#utility.yul\":2524:2528   */\n      0x20\n        /* \"#utility.yul\":2516:2522   */\n      dup7\n        /* \"#utility.yul\":2512:2529   */\n      add\n        /* \"#utility.yul\":2464:2543   */\n      tag_46\n      jump\t// in\n    tag_103:\n        /* \"#utility.yul\":2455:2543   */\n      swap2\n      pop\n        /* \"#utility.yul\":2271:2549   */\n      pop\n        /* \"#utility.yul\":2209:2549   */\n      swap3\n      swap2\n      pop\n      pop\n      jump\t// out\n        /* \"#utility.yul\":2555:3064   */\n    tag_9:\n        /* \"#utility.yul\":2624:2630   */\n      0x00\n        /* \"#utility.yul\":2673:2675   */\n      0x20\n        /* \"#utility.yul\":2661:2670   */\n      dup3\n        /* \"#utility.yul\":2652:2659   */\n      dup5\n        /* \"#utility.yul\":2648:2671   */\n      sub\n        /* \"#utility.yul\":2644:2676   */\n      slt\n        /* \"#utility.yul\":2641:2760   */\n      iszero\n      tag_105\n      jumpi\n        /* \"#utility.yul\":2679:2758   */\n      tag_106\n      tag_36\n      jump\t// in\n    tag_106:\n        /* \"#utility.yul\":2641:2760   */\n    tag_105:\n        /* \"#utility.yul\":2827:2828   */\n      0x00\n        /* \"#utility.yul\":2816:2825   */\n      dup3\n        /* \"#utility.yul\":2812:2829   */\n      add\n        /* \"#utility.yul\":2799:2830   */\n      calldataload\n        /* \"#utility.yul\":2857:2875   */\n      0xffffffffffffffff\n        /* \"#utility.yul\":2849:2855   */\n      dup2\n        /* \"#utility.yul\":2846:2876   */\n      gt\n        /* \"#utility.yul\":2843:2960   */\n      iszero\n      tag_107\n      jumpi\n        /* \"#utility.yul\":2879:2958   */\n      tag_108\n      tag_37\n      jump\t// in\n    tag_108:\n        /* \"#utility.yul\":2843:2960   */\n    tag_107:\n        /* \"#utility.yul\":2984:3047   */\n      tag_109\n        /* \"#utility.yul\":3039:3046   */\n      dup5\n        /* \"#utility.yul\":3030:3036   */\n      dup3\n        /* \"#utility.yul\":3019:3028   */\n      dup6\n        /* \"#utility.yul\":3015:3037   */\n      add\n        /* \"#utility.yul\":2984:3047   */\n      tag_47\n      jump\t// in\n    tag_109:\n        /* \"#utility.yul\":2974:3047   */\n      swap2\n      pop\n        /* \"#utility.yul\":2770:3057   */\n      pop\n        /* \"#utility.yul\":2555:3064   */\n      swap3\n      swap2\n      pop\n      pop\n      jump\t// out\n        /* \"#utility.yul\":3070:3196   */\n    tag_48:\n        /* \"#utility.yul\":3107:3114   */\n      0x00\n        /* \"#utility.yul\":3147:3189   */\n      0xffffffffffffffffffffffffffffffffffffffff\n        /* \"#utility.yul\":3140:3145   */\n      dup3\n        /* \"#utility.yul\":3136:3190   */\n      and\n        /* \"#utility.yul\":3125:3190   */\n      swap1\n      pop\n        /* \"#utility.yul\":3070:3196   */\n      swap2\n      swap1\n      pop\n      jump\t// out\n        /* \"#utility.yul\":3202:3298   */\n    tag_49:\n        /* \"#utility.yul\":3239:3246   */\n      0x00\n        /* \"#utility.yul\":3268:3292   */\n      tag_112\n        /* \"#utility.yul\":3286:3291   */\n      dup3\n        /* \"#utility.yul\":3268:3292   */\n      tag_48\n      jump\t// in\n    tag_112:\n        /* \"#utility.yul\":3257:3292   */\n      swap1\n      pop\n        /* \"#utility.yul\":3202:3298   */\n      swap2\n      swap1\n      pop\n      jump\t// out\n        /* \"#utility.yul\":3304:3422   */\n    tag_50:\n        /* \"#utility.yul\":3391:3415   */\n      tag_114\n        /* \"#utility.yul\":3409:3414   */\n      dup2\n        /* \"#utility.yul\":3391:3415   */\n      tag_49\n      jump\t// in\n    tag_114:\n        /* \"#utility.yul\":3386:3389   */\n      dup3\n        /* \"#utility.yul\":3379:3416   */\n      mstore\n        /* \"#utility.yul\":3304:3422   */\n      pop\n      pop\n      jump\t// out\n        /* \"#utility.yul\":3428:3650   */\n    tag_14:\n        /* \"#utility.yul\":3521:3525   */\n      0x00\n        /* \"#utility.yul\":3559:3561   */\n      0x20\n        /* \"#utility.yul\":3548:3557   */\n      dup3\n        /* \"#utility.yul\":3544:3562   */\n      add\n        /* \"#utility.yul\":3536:3562   */\n      swap1\n      pop\n        /* \"#utility.yul\":3572:3643   */\n      tag_116\n        /* \"#utility.yul\":3640:3641   */\n      0x00\n        /* \"#utility.yul\":3629:3638   */\n      dup4\n        /* \"#utility.yul\":3625:3642   */\n      add\n        /* \"#utility.yul\":3616:3622   */\n      dup5\n        /* \"#utility.yul\":3572:3643   */\n      tag_50\n      jump\t// in\n    tag_116:\n        /* \"#utility.yul\":3428:3650   */\n      swap3\n      swap2\n      pop\n      pop\n      jump\t// out\n        /* \"#utility.yul\":3656:3733   */\n    tag_51:\n        /* \"#utility.yul\":3693:3700   */\n      0x00\n        /* \"#utility.yul\":3722:3727   */\n      dup2\n        /* \"#utility.yul\":3711:3727   */\n      swap1\n      pop\n        /* \"#utility.yul\":3656:3733   */\n      swap2\n      swap1\n      pop\n      jump\t// out\n        /* \"#utility.yul\":3739:3857   */\n    tag_52:\n        /* \"#utility.yul\":3826:3850   */\n      tag_119\n        /* \"#utility.yul\":3844:3849   */\n      dup2\n        /* \"#utility.yul\":3826:3850   */\n      tag_51\n      jump\t// in\n    tag_119:\n        /* \"#utility.yul\":3821:3824   */\n      dup3\n        /* \"#utility.yul\":3814:3851   */\n      mstore\n        /* \"#utility.yul\":3739:3857   */\n      pop\n      pop\n      jump\t// out\n        /* \"#utility.yul\":3863:4085   */\n    tag_18:\n        /* \"#utility.yul\":3956:3960   */\n      0x00\n        /* \"#utility.yul\":3994:3996   */\n      0x20\n        /* \"#utility.yul\":3983:3992   */\n      dup3\n        /* \"#utility.yul\":3979:3997   */\n      add\n        /* \"#utility.yul\":3971:3997   */\n      swap1\n      pop\n        /* \"#utility.yul\":4007:4078   */\n      tag_121\n        /* \"#utility.yul\":4075:4076   */\n      0x00\n        /* \"#utility.yul\":4064:4073   */\n      dup4\n        /* \"#utility.yul\":4060:4077   */\n      add\n        /* \"#utility.yul\":4051:4057   */\n      dup5\n        /* \"#utility.yul\":4007:4078   */\n      tag_52\n      jump\t// in\n    tag_121:\n        /* \"#utility.yul\":3863:4085   */\n      swap3\n      swap2\n      pop\n      pop\n      jump\t// out\n        /* \"#utility.yul\":4091:4190   */\n    tag_53:\n        /* \"#utility.yul\":4143:4149   */\n      0x00\n        /* \"#utility.yul\":4177:4182   */\n      dup2\n        /* \"#utility.yul\":4171:4183   */\n      mload\n        /* \"#utility.yul\":4161:4183   */\n      swap1\n      pop\n        /* \"#utility.yul\":4091:4190   */\n      swap2\n      swap1\n      pop\n      jump\t// out\n        /* \"#utility.yul\":4196:4365   */\n    tag_54:\n        /* \"#utility.yul\":4280:4291   */\n      0x00\n        /* \"#utility.yul\":4314:4320   */\n      dup3\n        /* \"#utility.yul\":4309:4312   */\n      dup3\n        /* \"#utility.yul\":4302:4321   */\n      mstore\n        /* \"#utility.yul\":4354:4358   */\n      0x20\n        /* \"#utility.yul\":4349:4352   */\n      dup3\n        /* \"#utility.yul\":4345:4359   */\n      add\n        /* \"#utility.yul\":4330:4359   */\n      swap1\n      pop\n        /* \"#utility.yul\":4196:4365   */\n      swap3\n      swap2\n      pop\n      pop\n      jump\t// out\n        /* \"#utility.yul\":4371:4510   */\n    tag_55:\n        /* \"#utility.yul\":4460:4466   */\n      dup3\n        /* \"#utility.yul\":4455:4458   */\n      dup2\n        /* \"#utility.yul\":4450:4453   */\n      dup4\n        /* \"#utility.yul\":4444:4467   */\n      mcopy\n        /* \"#utility.yul\":4501:4502   */\n      0x00\n        /* \"#utility.yul\":4492:4498   */\n      dup4\n        /* \"#utility.yul\":4487:4490   */\n      dup4\n        /* \"#utility.yul\":4483:4499   */\n      add\n        /* \"#utility.yul\":4476:4503   */\n      mstore\n        /* \"#utility.yul\":4371:4510   */\n      pop\n      pop\n      pop\n      jump\t// out\n        /* \"#utility.yul\":4516:4893   */\n    tag_56:\n        /* \"#utility.yul\":4604:4607   */\n      0x00\n        /* \"#utility.yul\":4632:4671   */\n      tag_126\n        /* \"#utility.yul\":4665:4670   */\n      dup3\n        /* \"#utility.yul\":4632:4671   */\n      tag_53\n      jump\t// in\n    tag_126:\n        /* \"#utility.yul\":4687:4758   */\n      tag_127\n        /* \"#utility.yul\":4751:4757   */\n      dup2\n        /* \"#utility.yul\":4746:4749   */\n      dup6\n        /* \"#utility.yul\":4687:4758   */\n      tag_54\n      jump\t// in\n    tag_127:\n        /* \"#utility.yul\":4680:4758   */\n      swap4\n      pop\n        /* \"#utility.yul\":4767:4832   */\n      tag_128\n        /* \"#utility.yul\":4825:4831   */\n      dup2\n        /* \"#utility.yul\":4820:4823   */\n      dup6\n        /* \"#utility.yul\":4813:4817   */\n      0x20\n        /* \"#utility.yul\":4806:4811   */\n      dup7\n        /* \"#utility.yul\":4802:4818   */\n      add\n        /* \"#utility.yul\":4767:4832   */\n      tag_55\n      jump\t// in\n    tag_128:\n        /* \"#utility.yul\":4857:4886   */\n      tag_129\n        /* \"#utility.yul\":4879:4885   */\n      dup2\n        /* \"#utility.yul\":4857:4886   */\n      tag_40\n      jump\t// in\n    tag_129:\n        /* \"#utility.yul\":4852:4855   */\n      dup5\n        /* \"#utility.yul\":4848:4887   */\n      add\n        /* \"#utility.yul\":4841:4887   */\n      swap2\n      pop\n        /* \"#utility.yul\":4608:4893   */\n      pop\n        /* \"#utility.yul\":4516:4893   */\n      swap3\n      swap2\n      pop\n      pop\n      jump\t// out\n        /* \"#utility.yul\":4899:5212   */\n    tag_22:\n        /* \"#utility.yul\":5012:5016   */\n      0x00\n        /* \"#utility.yul\":5050:5052   */\n      0x20\n        /* \"#utility.yul\":5039:5048   */\n      dup3\n        /* \"#utility.yul\":5035:5053   */\n      add\n        /* \"#utility.yul\":5027:5053   */\n      swap1\n      pop\n        /* \"#utility.yul\":5099:5108   */\n      dup2\n        /* \"#utility.yul\":5093:5097   */\n      dup2\n        /* \"#utility.yul\":5089:5109   */\n      sub\n        /* \"#utility.yul\":5085:5086   */\n      0x00\n        /* \"#utility.yul\":5074:5083   */\n      dup4\n        /* \"#utility.yul\":5070:5087   */\n      add\n        /* \"#utility.yul\":5063:5110   */\n      mstore\n        /* \"#utility.yul\":5127:5205   */\n      tag_131\n        /* \"#utility.yul\":5200:5204   */\n      dup2\n        /* \"#utility.yul\":5191:5197   */\n      dup5\n        /* \"#utility.yul\":5127:5205   */\n      tag_56\n      jump\t// in\n    tag_131:\n        /* \"#utility.yul\":5119:5205   */\n      swap1\n      pop\n        /* \"#utility.yul\":4899:5212   */\n      swap3\n      swap2\n      pop\n      pop\n      jump\t// out\n        /* \"#utility.yul\":5218:5398   */\n    tag_57:\n        /* \"#utility.yul\":5266:5343   */\n      0x4e487b7100000000000000000000000000000000000000000000000000000000\n        /* \"#utility.yul\":5263:5264   */\n      0x00\n        /* \"#utility.yul\":5256:5344   */\n      mstore\n        /* \"#utility.yul\":5363:5367   */\n      0x11\n        /* \"#utility.yul\":5360:5361   */\n      0x04\n        /* \"#utility.yul\":5353:5368   */\n      mstore\n        /* \"#utility.yul\":5387:5391   */\n      0x24\n        /* \"#utility.yul\":5384:5385   */\n      0x00\n        /* \"#utility.yul\":5377:5392   */\n      revert\n        /* \"#utility.yul\":5404:5637   */\n    tag_26:\n        /* \"#utility.yul\":5443:5446   */\n      0x00\n        /* \"#utility.yul\":5466:5490   */\n      tag_134\n        /* \"#utility.yul\":5484:5489   */\n      dup3\n        /* \"#utility.yul\":5466:5490   */\n      tag_51\n      jump\t// in\n    tag_134:\n        /* \"#utility.yul\":5457:5490   */\n      swap2\n      pop\n        /* \"#utility.yul\":5512:5578   */\n      0xffffffffffffffffffffffffffffffffffffffffffffffffffffffffffffffff\n        /* \"#utility.yul\":5505:5510   */\n      dup3\n        /* \"#utility.yul\":5502:5579   */\n      sub\n        /* \"#utility.yul\":5499:5602   */\n      tag_135\n      jumpi\n        /* \"#utility.yul\":5582:5600   */\n      tag_136\n      tag_57\n      jump\t// in\n    tag_136:\n        /* \"#utility.yul\":5499:5602   */\n    tag_135:\n        /* \"#utility.yul\":5629:5630   */\n      0x01\n        /* \"#utility.yul\":5622:5627   */\n      dup3\n        /* \"#utility.yul\":5618:5631   */\n      add\n        /* \"#utility.yul\":5611:5631   */\n      swap1\n      pop\n        /* \"#utility.yul\":5404:5637   */\n      swap2\n      swap1\n      pop\n      jump\t// out\n        /* \"#utility.yul\":5643:5823   */\n    tag_58:\n        /* \"#utility.yul\":5691:5768   */\n      0x4e487b7100000000000000000000000000000000000000000000000000000000\n        /* \"#utility.yul\":5688:5689   */\n      0x00\n        /* \"#utility.yul\":5681:5769   */\n      mstore\n        /* \"#utility.yul\":5788:5792   */\n      0x22\n        /* \"#utility.yul\":5785:5786   */\n      0x04\n        /* \"#utility.yul\":5778:5793   */\n      mstore\n        /* \"#utility.yul\":5812:5816   */\n      0x24\n        /* \"#utility.yul\":5809:5810   */\n      0x00\n        /* \"#utility.yul\":5802:5817   */\n      revert\n        /* \"#utility.yul\":5829:6149   */\n    tag_30:\n        /* \"#utility.yul\":5873:5879   */\n      0x00\n        /* \"#utility.yul\":5910:5911   */\n      0x02\n        /* \"#utility.yul\":5904:5908   */\n      dup3\n        /* \"#utility.yul\":5900:5912   */\n      div\n        /* \"#utility.yul\":5890:5912   */\n      swap1\n      pop\n        /* \"#utility.yul\":5957:5958   */\n      0x01\n        /* \"#utility.yul\":5951:5955   */\n      dup3\n        /* \"#utility.yul\":5947:5959   */\n      and\n        /* \"#utility.yul\":5978:5996   */\n      dup1\n        /* \"#utility.yul\":5968:6049   */\n      tag_139\n      jumpi\n        /* \"#utility.yul\":6034:6038   */\n      0x7f\n        /* \"#utility.yul\":6026:6032   */\n      dup3\n        /* \"#utility.yul\":6022:6039   */\n      and\n        /* \"#utility.yul\":6012:6039   */\n      swap2\n      pop\n        /* \"#utility.yul\":5968:6049   */\n    tag_139:\n        /* \"#utility.yul\":6096:6098   */\n      0x20\n        /* \"#utility.yul\":6088:6094   */\n      dup3\n        /* \"#utility.yul\":6085:6099   */\n      lt\n        /* \"#utility.yul\":6065:6083   */\n      dup2\n        /* \"#utility.yul\":6062:6100   */\n      sub\n        /* \"#utility.yul\":6059:6143   */\n      tag_140\n      jumpi\n        /* \"#utility.yul\":6115:6133   */\n      tag_141\n      tag_58\n      jump\t// in\n    tag_141:\n        /* \"#utility.yul\":6059:6143   */\n    tag_140:\n        /* \"#utility.yul\":5880:6149   */\n      pop\n        /* \"#utility.yul\":5829:6149   */\n      swap2\n      swap1\n      pop\n      jump\t// out\n        /* \"#utility.yul\":6155:6296   */\n    tag_59:\n        /* \"#utility.yul\":6204:6208   */\n      0x00\n        /* \"#utility.yul\":6227:6230   */\n      dup2\n        /* \"#utility.yul\":6219:6230   */\n      swap1\n      pop\n        /* \"#utility.yul\":6250:6253   */\n      dup2\n        /* \"#utility.yul\":6247:6248   */\n      0x00\n        /* \"#utility.yul\":6240:6254   */\n      mstore\n        /* \"#utility.yul\":6284:6288   */\n      0x20\n        /* \"#utility.yul\":6281:6282   */\n      0x00\n        /* \"#utility.yul\":6271:6289   */\n      keccak256\n        /* \"#utility.yul\":6263:6289   */\n      swap1\n      pop\n        /* \"#utility.yul\":6155:6296   */\n      swap2\n      swap1\n      pop\n      jump\t// out\n        /* \"#utility.yul\":6302:6395   */\n    tag_60:\n        /* \"#utility.yul\":6339:6345   */\n      0x00\n        /* \"#utility.yul\":6386:6388   */\n      0x20\n        /* \"#utility.yul\":6381:6383   */\n      0x1f\n        /* \"#utility.yul\":6374:6379   */\n      dup4\n        /* \"#utility.yul\":6370:6384   */\n      add\n        /* \"#utility.yul\":6366:6389   */\n      div\n        /* \"#utility.yul\":6356:6389   */\n      swap1\n      pop\n        /* \"#utility.yul\":6302:6395   */\n      swap2\n      swap1\n      pop\n      jump\t// out\n        /* \"#utility.yul\":6401:6508   */\n    tag_61:\n        /* \"#utility.yul\":6445:6453   */\n      0x00\n        /* \"#utility.yul\":6495:6500   */\n      dup3\n        /* \"#utility.yul\":6489:6493   */\n      dup3\n        /* \"#utility.yul\":6485:6501   */\n      shl\n        /* \"#utility.yul\":6464:6501   */\n      swap1\n      pop\n        /* \"#utility.yul\":6401:6508   */\n      swap3\n      swap2\n      pop\n      pop\n      jump\t// out\n        /* \"#utility.yul\":6514:6907   */\n    tag_62:\n        /* \"#utility.yul\":6583:6589   */\n      0x00\n        /* \"#utility.yul\":6633:6634   */\n      0x08\n        /* \"#utility.yul\":6621:6631   */\n      dup4\n        /* \"#utility.yul\":6617:6635   */\n      mul\n        /* \"#utility.yul\":6656:6753   */\n      tag_146\n        /* \"#utility.yul\":6686:6752   */\n      0xffffffffffffffffffffffffffffffffffffffffffffffffffffffffffffffff\n        /* \"#utility.yul\":6675:6684   */\n      dup3\n        /* \"#utility.yul\":6656:6753   */\n      tag_61\n      jump\t// in\n    tag_146:\n        /* \"#utility.yul\":6774:6813   */\n      tag_147\n        /* \"#utility.yul\":6804:6812   */\n      dup7\n        /* \"#utility.yul\":6793:6802   */\n      dup4\n        /* \"#utility.yul\":6774:6813   */\n      tag_61\n      jump\t// in\n    tag_147:\n        /* \"#utility.yul\":6762:6813   */\n      swap6\n      pop\n        /* \"#utility.yul\":6846:6850   */\n      dup1\n        /* \"#utility.yul\":6842:6851   */\n      not\n        /* \"#utility.yul\":6835:6840   */\n      dup5\n        /* \"#utility.yul\":6831:6852   */\n      and\n        /* \"#utility.yul\":6822:6852   */\n      swap4\n      pop\n        /* \"#utility.yul\":6895:6899   */\n      dup1\n        /* \"#utility.yul\":6885:6893   */\n      dup7\n        /* \"#utility.yul\":6881:6900   */\n      and\n        /* \"#utility.yul\":6874:6879   */\n      dup5\n        /* \"#utility.yul\":6871:6901   */\n      or\n        /* \"#utility.yul\":6861:6901   */\n      swap3\n      pop\n        /* \"#utility.yul\":6590:6907   */\n      pop\n      pop\n        /* \"#utility.yul\":6514:6907   */\n      swap4\n      swap3\n      pop\n      pop\n      pop\n      jump\t// out\n        /* \"#utility.yul\":6913:6973   */\n    tag_63:\n        /* \"#utility.yul\":6941:6944   */\n      0x00\n        /* \"#utility.yul\":6962:6967   */\n      dup2\n        /* \"#utility.yul\":6955:6967   */\n      swap1\n      pop\n        /* \"#utility.yul\":6913:6973   */\n      swap2\n      swap1\n      pop\n      jump\t// out\n        /* \"#utility.yul\":6979:7121   */\n    tag_64:\n        /* \"#utility.yul\":7029:7038   */\n      0x00\n        /* \"#utility.yul\":7062:7115   */\n      tag_150\n        /* \"#utility.yul\":7080:7114   */\n      tag_151\n        /* \"#utility.yul\":7089:7113   */\n      tag_152\n        /* \"#utility.yul\":7107:7112   */\n      dup5\n        /* \"#utility.yul\":7089:7113   */\n      tag_51\n      jump\t// in\n    tag_152:\n        /* \"#utility.yul\":7080:7114   */\n      tag_63\n      jump\t// in\n    tag_151:\n        /* \"#utility.yul\":7062:7115   */\n      tag_51\n      jump\t// in\n    tag_150:\n        /* \"#utility.yul\":7049:7115   */\n      swap1\n      pop\n        /* \"#utility.yul\":6979:7121   */\n      swap2\n      swap1\n      pop\n      jump\t// out\n        /* \"#utility.yul\":7127:7202   */\n    tag_65:\n        /* \"#utility.yul\":7170:7173   */\n      0x00\n        /* \"#utility.yul\":7191:7196   */\n      dup2\n        /* \"#utility.yul\":7184:7196   */\n      swap1\n      pop\n        /* \"#utility.yul\":7127:7202   */\n      swap2\n      swap1\n      pop\n      jump\t// out\n        /* \"#utility.yul\":7208:7477   */\n    tag_66:\n        /* \"#utility.yul\":7318:7357   */\n      tag_155\n        /* \"#utility.yul\":7349:7356   */\n      dup4\n        /* \"#utility.yul\":7318:7357   */\n      tag_64\n      jump\t// in\n    tag_155:\n        /* \"#utility.yul\":7379:7470   */\n      tag_156\n        /* \"#utility.yul\":7428:7469   */\n      tag_157\n        /* \"#utility.yul\":7452:7468   */\n      dup3\n        /* \"#utility.yul\":7428:7469   */\n      tag_65\n      jump\t// in\n    tag_157:\n        /* \"#utility.yul\":7420:7426   */\n      dup5\n        /* \"#utility.yul\":7413:7417   */\n      dup5\n        /* \"#utility.yul\":7407:7418   */\n      sload\n        /* \"#utility.yul\":7379:7470   */\n      tag_62\n      jump\t// in\n    tag_156:\n        /* \"#utility.yul\":7373:7377   */\n      dup3\n        /* \"#utility.yul\":7366:7471   */\n      sstore\n        /* \"#utility.yul\":7284:7477   */\n      pop\n        /* \"#utility.yul\":7208:7477   */\n      pop\n      pop\n      pop\n      jump\t// out\n        /* \"#utility.yul\":7483:7556   */\n    tag_67:\n        /* \"#utility.yul\":7528:7531   */\n      0x00\n        /* \"#utility.yul\":7483:7556   */\n      swap1\n      jump\t// out\n        /* \"#utility.yul\":7562:7751   */\n    tag_68:\n        /* \"#utility.yul\":7639:7671   */\n      tag_160\n      tag_67\n      jump\t// in\n    tag_160:\n        /* \"#utility.yul\":7680:7745   */\n      tag_161\n        /* \"#utility.yul\":7738:7744   */\n      dup2\n        /* \"#utility.yul\":7730:7736   */\n      dup5\n        /* \"#utility.yul\":7724:7728   */\n      dup5\n        /* \"#utility.yul\":7680:7745   */\n      tag_66\n      jump\t// in\n    tag_161:\n        /* \"#utility.yul\":7615:7751   */\n      pop\n        /* \"#utility.yul\":7562:7751   */\n      pop\n      pop\n      jump\t// out\n        /* \"#utility.yul\":7757:7943   */\n    tag_69:\n        /* \"#utility.yul\":7817:7937   */\n    tag_163:\n        /* \"#utility.yul\":7834:7837   */\n      dup2\n        /* \"#utility.yul\":7827:7832   */\n      dup2\n        /* \"#utility.yul\":7824:7838   */\n      lt\n        /* \"#utility.yul\":7817:7937   */\n      iszero\n      tag_165\n      jumpi\n        /* \"#utility.yul\":7888:7927   */\n      tag_166\n        /* \"#utility.yul\":7925:7926   */\n      0x00\n        /* \"#utility.yul\":7918:7923   */\n      dup3\n        /* \"#utility.yul\":7888:7927   */\n      tag_68\n      jump\t// in\n    tag_166:\n        /* \"#utility.yul\":7861:7862   */\n      0x01\n        /* \"#utility.yul\":7854:7859   */\n      dup2\n        /* \"#utility.yul\":7850:7863   */\n      add\n        /* \"#utility.yul\":7841:7863   */\n      swap1\n      pop\n        /* \"#utility.yul\":7817:7937   */\n      jump(tag_163)\n    tag_165:\n        /* \"#utility.yul\":7757:7943   */\n      pop\n      pop\n      jump\t// out\n        /* \"#utility.yul\":7949:8492   */\n    tag_70:\n        /* \"#utility.yul\":8050:8052   */\n      0x1f\n        /* \"#utility.yul\":8045:8048   */\n      dup3\n        /* \"#utility.yul\":8042:8053   */\n      gt\n        /* \"#utility.yul\":8039:8485   */\n      iszero\n      tag_168\n      jumpi\n        /* \"#utility.yul\":8084:8122   */\n      tag_169\n        /* \"#utility.yul\":8116:8121   */\n      dup2\n        /* \"#utility.yul\":8084:8122   */\n      tag_59\n      jump\t// in\n    tag_169:\n        /* \"#utility.yul\":8168:8197   */\n      tag_170\n        /* \"#utility.yul\":8186:8196   */\n      dup5\n        /* \"#utility.yul\":8168:8197   */\n      tag_60\n      jump\t// in\n    tag_170:\n        /* \"#utility.yul\":8158:8166   */\n      dup2\n        /* \"#utility.yul\":8154:8198   */\n      add\n        /* \"#utility.yul\":8351:8353   */\n      0x20\n        /* \"#utility.yul\":8339:8349   */\n      dup6\n        /* \"#utility.yul\":8336:8354   */\n      lt\n        /* \"#utility.yul\":8333:8382   */\n      iszero\n      tag_171\n      jumpi\n        /* \"#utility.yul\":8372:8380   */\n      dup2\n        /* \"#utility.yul\":8357:8380   */\n      swap1\n      pop\n        /* \"#utility.yul\":8333:8382   */\n    tag_171:\n        /* \"#utility.yul\":8395:8475   */\n      tag_172\n        /* \"#utility.yul\":8451:8473   */\n      tag_173\n        /* \"#utility.yul\":8469:8472   */\n      dup6\n        /* \"#utility.yul\":8451:8473   */\n      tag_60\n      jump\t// in\n    tag_173:\n        /* \"#utility.yul\":8441:8449   */\n      dup4\n        /* \"#utility.yul\":8437:8474   */\n      add\n        /* \"#utility.yul\":8424:8435   */\n      dup3\n        /* \"#utility.yul\":8395:8475   */\n      tag_69\n      jump\t// in\n    tag_172:\n        /* \"#utility.yul\":8054:8485   */\n      pop\n      pop\n        /* \"#utility.yul\":8039:8485   */\n    tag_168:\n        /* \"#utility.yul\":7949:8492   */\n      pop\n      pop\n      pop\n      jump\t// out\n        /* \"#utility.yul\":8498:8615   */\n    tag_71:\n        /* \"#utility.yul\":8552:8560   */\n      0x00\n        /* \"#utility.yul\":8602:8607   */\n      dup3\n        /* \"#utility.yul\":8596:8600   */\n      dup3\n        /* \"#utility.yul\":8592:8608   */\n      shr\n        /* \"#utility.yul\":8571:8608   */\n      swap1\n      pop\n        /* \"#utility.yul\":8498:8615   */\n      swap3\n      swap2\n      pop\n      pop\n      jump\t// out\n        /* \"#utility.yul\":8621:8790   */\n    tag_72:\n        /* \"#utility.yul\":8665:8671   */\n      0x00\n        /* \"#utility.yul\":8698:8749   */\n      tag_176\n        /* \"#utility.yul\":8746:8747   */\n      0x00\n        /* \"#utility.yul\":8742:8748   */\n      not\n        /* \"#utility.yul\":8734:8739   */\n      dup5\n        /* \"#utility.yul\":8731:8732   */\n      0x08\n        /* \"#utility.yul\":8727:8740   */\n      mul\n        /* \"#utility.yul\":8698:8749   */\n      tag_71\n      jump\t// in\n    tag_176:\n        /* \"#utility.yul\":8694:8750   */\n      not\n        /* \"#utility.yul\":8779:8783   */\n      dup1\n        /* \"#utility.yul\":8773:8777   */\n      dup4\n        /* \"#utility.yul\":8769:8784   */\n      and\n        /* \"#utility.yul\":8759:8784   */\n      swap2\n      pop\n        /* \"#utility.yul\":8672:8790   */\n      pop\n        /* \"#utility.yul\":8621:8790   */\n      swap3\n      swap2\n      pop\n      pop\n      jump\t// out\n        /* \"#utility.yul\":8795:9090   */\n    tag_73:\n        /* \"#utility.yul\":8871:8875   */\n      0x00\n        /* \"#utility.yul\":9017:9046   */\n      tag_178\n        /* \"#utility.yul\":9042:9045   */\n      dup4\n        /* \"#utility.yul\":9036:9040   */\n      dup4\n        /* \"#utility.yul\":9017:9046   */\n      tag_72\n      jump\t// in\n    tag_178:\n        /* \"#utility.yul\":9009:9046   */\n      swap2\n      pop\n        /* \"#utility.yul\":9079:9082   */\n      dup3\n        /* \"#utility.yul\":9076:9077   */\n      0x02\n        /* \"#utility.yul\":9072:9083   */\n      mul\n        /* \"#utility.yul\":9066:9070   */\n      dup3\n        /* \"#utility.yul\":9063:9084   */\n      or\n        /* \"#utility.yul\":9055:9084   */\n      swap1\n      pop\n        /* \"#utility.yul\":8795:9090   */\n      swap3\n      swap2\n      pop\n      pop\n      jump\t// out\n        /* \"#utility.yul\":9095:10490   */\n    tag_28:\n        /* \"#utility.yul\":9212:9249   */\n      tag_180\n        /* \"#utility.yul\":9245:9248   */\n      dup3\n        /* \"#utility.yul\":9212:9249   */\n      tag_53\n      jump\t// in\n    tag_180:\n        /* \"#utility.yul\":9314:9332   */\n      0xffffffffffffffff\n        /* \"#utility.yul\":9306:9312   */\n      dup2\n        /* \"#utility.yul\":9303:9333   */\n      gt\n        /* \"#utility.yul\":9300:9356   */\n      iszero\n      tag_181\n      jumpi\n        /* \"#utility.yul\":9336:9354   */\n      tag_182\n      tag_41\n      jump\t// in\n    tag_182:\n        /* \"#utility.yul\":9300:9356   */\n    tag_181:\n        /* \"#utility.yul\":9380:9418   */\n      tag_183\n        /* \"#utility.yul\":9412:9416   */\n      dup3\n        /* \"#utility.yul\":9406:9417   */\n      sload\n        /* \"#utility.yul\":9380:9418   */\n      tag_30\n      jump\t// in\n    tag_183:\n        /* \"#utility.yul\":9465:9532   */\n      tag_184\n        /* \"#utility.yul\":9525:9531   */\n      dup3\n        /* \"#utility.yul\":9517:9523   */\n      dup3\n        /* \"#utility.yul\":9511:9515   */\n      dup6\n        /* \"#utility.yul\":9465:9532   */\n      tag_70\n      jump\t// in\n    tag_184:\n        /* \"#utility.yul\":9559:9560   */\n      0x00\n        /* \"#utility.yul\":9583:9587   */\n      0x20\n        /* \"#utility.yul\":9570:9587   */\n      swap1\n      pop\n        /* \"#utility.yul\":9615:9617   */\n      0x1f\n        /* \"#utility.yul\":9607:9613   */\n      dup4\n        /* \"#utility.yul\":9604:9618   */\n      gt\n        /* \"#utility.yul\":9632:9633   */\n      0x01\n        /* \"#utility.yul\":9627:10245   */\n      dup2\n      eq\n      tag_186\n      jumpi\n        /* \"#utility.yul\":10289:10290   */\n      0x00\n        /* \"#utility.yul\":10306:10312   */\n      dup5\n        /* \"#utility.yul\":10303:10380   */\n      iszero\n      tag_187\n      jumpi\n        /* \"#utility.yul\":10355:10364   */\n      dup3\n        /* \"#utility.yul\":10350:10353   */\n      dup8\n        /* \"#utility.yul\":10346:10365   */\n      add\n        /* \"#utility.yul\":10340:10366   */\n      mload\n        /* \"#utility.yul\":10331:10366   */\n      swap1\n      pop\n        /* \"#utility.yul\":10303:10380   */\n    tag_187:\n        /* \"#utility.yul\":10406:10473   */\n      tag_188\n        /* \"#utility.yul\":10466:10472   */\n      dup6\n        /* \"#utility.yul\":10459:10464   */\n      dup3\n        /* \"#utility.yul\":10406:10473   */\n      tag_73\n      jump\t// in\n    tag_188:\n        /* \"#utility.yul\":10400:10404   */\n      dup7\n        /* \"#utility.yul\":10393:10474   */\n      sstore\n        /* \"#utility.yul\":10262:10484   */\n      pop\n        /* \"#utility.yul\":9597:10484   */\n      jump(tag_185)\n        /* \"#utility.yul\":9627:10245   */\n    tag_186:\n        /* \"#utility.yul\":9679:9683   */\n      0x1f\n        /* \"#utility.yul\":9675:9684   */\n      not\n        /* \"#utility.yul\":9667:9673   */\n      dup5\n        /* \"#utility.yul\":9663:9685   */\n      and\n        /* \"#utility.yul\":9713:9750   */\n      tag_189\n        /* \"#utility.yul\":9745:9749   */\n      dup7\n        /* \"#utility.yul\":9713:9750   */\n      tag_59\n      jump\t// in\n    tag_189:\n        /* \"#utility.yul\":9772:9773   */\n      0x00\n        /* \"#utility.yul\":9786:9994   */\n    tag_190:\n        /* \"#utility.yul\":9800:9807   */\n      dup3\n        /* \"#utility.yul\":9797:9798   */\n      dup2\n        /* \"#utility.yul\":9794:9808   */\n      lt\n        /* \"#utility.yul\":9786:9994   */\n      iszero\n      tag_192\n      jumpi\n        /* \"#utility.yul\":9879:9888   */\n      dup5\n        /* \"#utility.yul\":9874:9877   */\n      dup10\n        /* \"#utility.yul\":9870:9889   */\n      add\n        /* \"#utility.yul\":9864:9890   */\n      mload\n        /* \"#utility.yul\":9856:9862   */\n      dup3\n        /* \"#utility.yul\":9849:9891   */\n      sstore\n        /* \"#utility.yul\":9930:9931   */\n      0x01\n        /* \"#utility.yul\":9922:9928   */\n      dup3\n        /* \"#utility.yul\":9918:9932   */\n      add\n        /* \"#utility.yul\":9908:9932   */\n      swap2\n      pop\n        /* \"#utility.yul\":9977:9979   */\n      0x20\n        /* \"#utility.yul\":9966:9975   */\n      dup6\n        /* \"#utility.yul\":9962:9980   */\n      add\n        /* \"#utility.yul\":9949:9980   */\n      swap5\n      pop\n        /* \"#utility.yul\":9823:9827   */\n      0x20\n        /* \"#utility.yul\":9820:9821   */\n      dup2\n        /* \"#utility.yul\":9816:9828   */\n      add\n        /* \"#utility.yul\":9811:9828   */\n      swap1\n      pop\n        /* \"#utility.yul\":9786:9994   */\n      jump(tag_190)\n    tag_192:\n        /* \"#utility.yul\":10022:10028   */\n      dup7\n        /* \"#utility.yul\":10013:10020   */\n      dup4\n        /* \"#utility.yul\":10010:10029   */\n      lt\n        /* \"#utility.yul\":10007:10186   */\n      iszero\n      tag_193\n      jumpi\n        /* \"#utility.yul\":10080:10089   */\n      dup5\n        /* \"#utility.yul\":10075:10078   */\n      dup10\n        /* \"#utility.yul\":10071:10090   */\n      add\n        /* \"#utility.yul\":10065:10091   */\n      mload\n        /* \"#utility.yul\":10123:10171   */\n      tag_194\n        /* \"#utility.yul\":10165:10169   */\n      0x1f\n        /* \"#utility.yul\":10157:10163   */\n      dup10\n        /* \"#utility.yul\":10153:10170   */\n      and\n        /* \"#utility.yul\":10142:10151   */\n      dup3\n        /* \"#utility.yul\":10123:10171   */\n      tag_72\n      jump\t// in\n    tag_194:\n        /* \"#utility.yul\":10115:10121   */\n      dup4\n        /* \"#utility.yul\":10108:10172   */\n      sstore\n        /* \"#utility.yul\":10030:10186   */\n      pop\n        /* \"#utility.yul\":10007:10186   */\n    tag_193:\n        /* \"#utility.yul\":10232:10233   */\n      0x01\n        /* \"#utility.yul\":10228:10229   */\n      0x02\n        /* \"#utility.yul\":10220:10226   */\n      dup9\n        /* \"#utility.yul\":10216:10230   */\n      mul\n        /* \"#utility.yul\":10212:10234   */\n      add\n        /* \"#utility.yul\":10206:10210   */\n      dup9\n        /* \"#utility.yul\":10199:10235   */\n      sstore\n        /* \"#utility.yul\":9634:10245   */\n      pop\n      pop\n      pop\n        /* \"#utility.yul\":9597:10484   */\n    tag_185:\n      pop\n        /* \"#utility.yul\":9187:10490   */\n      pop\n      pop\n      pop\n        /* \"#utility.yul\":9095:10490   */\n      pop\n      pop\n      jump\t// out\n\n    auxdata: 0xa2646970667358221220ac7624d27fa26fd98e8c7cce197861cdd3507281af577660fd683c988b3569c864736f6c634300081a0033\n}\n",
				"bytecode": {
					"linkReferences": {},
					"object": "6080604052348015600e575f80fd5b50335f806101000a81548173ffffffffffffffffffffffffffffffffffffffff021916908373ffffffffffffffffffffffffffffffffffffffff1602179055506108068061005b5f395ff3fe608060405234801561000f575f80fd5b506004361061004a575f3560e01c80631923be241461004e5780638da5cb5b1461006a578063aaf4389a14610088578063e21f37ce146100a6575b5f80fd5b61006860048036038101906100639190610343565b6100c4565b005b610072610141565b60405161007f91906103c9565b60405180910390f35b610090610164565b60405161009d91906103fa565b60405180910390f35b6100ae61016a565b6040516100bb9190610473565b60405180910390f35b5f8054906101000a900473ffffffffffffffffffffffffffffffffffffffff1673ffffffffffffffffffffffffffffffffffffffff163373ffffffffffffffffffffffffffffffffffffffff160361013e5760025f815480929190610128906104c0565b9190505550806001908161013c9190610701565b505b50565b5f8054906101000a900473ffffffffffffffffffffffffffffffffffffffff1681565b60025481565b6001805461017790610534565b80601f01602080910402602001604051908101604052809291908181526020018280546101a390610534565b80156101ee5780601f106101c5576101008083540402835291602001916101ee565b820191905f5260205f20905b8154815290600101906020018083116101d157829003601f168201915b505050505081565b5f604051905090565b5f80fd5b5f80fd5b5f80fd5b5f80fd5b5f601f19601f8301169050919050565b7f4e487b71000000000000000000000000000000000000000000000000000000005f52604160045260245ffd5b6102558261020f565b810181811067ffffffffffffffff821117156102745761027361021f565b5b80604052505050565b5f6102866101f6565b9050610292828261024c565b919050565b5f67ffffffffffffffff8211156102b1576102b061021f565b5b6102ba8261020f565b9050602081019050919050565b828183375f83830152505050565b5f6102e76102e284610297565b61027d565b9050828152602081018484840111156103035761030261020b565b5b61030e8482856102c7565b509392505050565b5f82601f83011261032a57610329610207565b5b813561033a8482602086016102d5565b91505092915050565b5f60208284031215610358576103576101ff565b5b5f82013567ffffffffffffffff81111561037557610374610203565b5b61038184828501610316565b91505092915050565b5f73ffffffffffffffffffffffffffffffffffffffff82169050919050565b5f6103b38261038a565b9050919050565b6103c3816103a9565b82525050565b5f6020820190506103dc5f8301846103ba565b92915050565b5f819050919050565b6103f4816103e2565b82525050565b5f60208201905061040d5f8301846103eb565b92915050565b5f81519050919050565b5f82825260208201905092915050565b8281835e5f83830152505050565b5f61044582610413565b61044f818561041d565b935061045f81856020860161042d565b6104688161020f565b840191505092915050565b5f6020820190508181035f83015261048b818461043b565b905092915050565b7f4e487b71000000000000000000000000000000000000000000000000000000005f52601160045260245ffd5b5f6104ca826103e2565b91507fffffffffffffffffffffffffffffffffffffffffffffffffffffffffffffffff82036104fc576104fb610493565b5b600182019050919050565b7f4e487b71000000000000000000000000000000000000000000000000000000005f52602260045260245ffd5b5f600282049050600182168061054b57607f821691505b60208210810361055e5761055d610507565b5b50919050565b5f819050815f5260205f209050919050565b5f6020601f8301049050919050565b5f82821b905092915050565b5f600883026105c07fffffffffffffffffffffffffffffffffffffffffffffffffffffffffffffffff82610585565b6105ca8683610585565b95508019841693508086168417925050509392505050565b5f819050919050565b5f6106056106006105fb846103e2565b6105e2565b6103e2565b9050919050565b5f819050919050565b61061e836105eb565b61063261062a8261060c565b848454610591565b825550505050565b5f90565b61064661063a565b610651818484610615565b505050565b5b81811015610674576106695f8261063e565b600181019050610657565b5050565b601f8211156106b95761068a81610564565b61069384610576565b810160208510156106a2578190505b6106b66106ae85610576565b830182610656565b50505b505050565b5f82821c905092915050565b5f6106d95f19846008026106be565b1980831691505092915050565b5f6106f183836106ca565b9150826002028217905092915050565b61070a82610413565b67ffffffffffffffff8111156107235761072261021f565b5b61072d8254610534565b610738828285610678565b5f60209050601f831160018114610769575f8415610757578287015190505b61076185826106e6565b8655506107c8565b601f19841661077786610564565b5f5b8281101561079e57848901518255600182019150602085019450602081019050610779565b868310156107bb57848901516107b7601f8916826106ca565b8355505b6001600288020188555050505b50505050505056fea2646970667358221220ac7624d27fa26fd98e8c7cce197861cdd3507281af577660fd683c988b3569c864736f6c634300081a0033",
					"opcodes": "PUSH1 0x80 PUSH1 0x40 MSTORE CALLVALUE DUP1 ISZERO PUSH1 0xE JUMPI PUSH0 DUP1 REVERT JUMPDEST POP CALLER PUSH0 DUP1 PUSH2 0x100 EXP DUP2 SLOAD DUP2 PUSH20 0xFFFFFFFFFFFFFFFFFFFFFFFFFFFFFFFFFFFFFFFF MUL NOT AND SWAP1 DUP4 PUSH20 0xFFFFFFFFFFFFFFFFFFFFFFFFFFFFFFFFFFFFFFFF AND MUL OR SWAP1 SSTORE POP PUSH2 0x806 DUP1 PUSH2 0x5B PUSH0 CODECOPY PUSH0 RETURN INVALID PUSH1 0x80 PUSH1 0x40 MSTORE CALLVALUE DUP1 ISZERO PUSH2 0xF JUMPI PUSH0 DUP1 REVERT JUMPDEST POP PUSH1 0x4 CALLDATASIZE LT PUSH2 0x4A JUMPI PUSH0 CALLDATALOAD PUSH1 0xE0 SHR DUP1 PUSH4 0x1923BE24 EQ PUSH2 0x4E JUMPI DUP1 PUSH4 0x8DA5CB5B EQ PUSH2 0x6A JUMPI DUP1 PUSH4 0xAAF4389A EQ PUSH2 0x88 JUMPI DUP1 PUSH4 0xE21F37CE EQ PUSH2 0xA6 JUMPI JUMPDEST PUSH0 DUP1 REVERT JUMPDEST PUSH2 0x68 PUSH1 0x4 DUP1 CALLDATASIZE SUB DUP2 ADD SWAP1 PUSH2 0x63 SWAP2 SWAP1 PUSH2 0x343 JUMP JUMPDEST PUSH2 0xC4 JUMP JUMPDEST STOP JUMPDEST PUSH2 0x72 PUSH2 0x141 JUMP JUMPDEST PUSH1 0x40 MLOAD PUSH2 0x7F SWAP2 SWAP1 PUSH2 0x3C9 JUMP JUMPDEST PUSH1 0x40 MLOAD DUP1 SWAP2 SUB SWAP1 RETURN JUMPDEST PUSH2 0x90 PUSH2 0x164 JUMP JUMPDEST PUSH1 0x40 MLOAD PUSH2 0x9D SWAP2 SWAP1 PUSH2 0x3FA JUMP JUMPDEST PUSH1 0x40 MLOAD DUP1 SWAP2 SUB SWAP1 RETURN JUMPDEST PUSH2 0xAE PUSH2 0x16A JUMP JUMPDEST PUSH1 0x40 MLOAD PUSH2 0xBB SWAP2 SWAP1 PUSH2 0x473 JUMP JUMPDEST PUSH1 0x40 MLOAD DUP1 SWAP2 SUB SWAP1 RETURN JUMPDEST PUSH0 DUP1 SLOAD SWAP1 PUSH2 0x100 EXP SWAP1 DIV PUSH20 0xFFFFFFFFFFFFFFFFFFFFFFFFFFFFFFFFFFFFFFFF AND PUSH20 0xFFFFFFFFFFFFFFFFFFFFFFFFFFFFFFFFFFFFFFFF AND CALLER PUSH20 0xFFFFFFFFFFFFFFFFFFFFFFFFFFFFFFFFFFFFFFFF AND SUB PUSH2 0x13E JUMPI PUSH1 0x2 PUSH0 DUP2 SLOAD DUP1 SWAP3 SWAP2 SWAP1 PUSH2 0x128 SWAP1 PUSH2 0x4C0 JUMP JUMPDEST SWAP2 SWAP1 POP SSTORE POP DUP1 PUSH1 0x1 SWAP1 DUP2 PUSH2 0x13C SWAP2 SWAP1 PUSH2 0x701 JUMP JUMPDEST POP JUMPDEST POP JUMP JUMPDEST PUSH0 DUP1 SLOAD SWAP1 PUSH2 0x100 EXP SWAP1 DIV PUSH20 0xFFFFFFFFFFFFFFFFFFFFFFFFFFFFFFFFFFFFFFFF AND DUP2 JUMP JUMPDEST PUSH1 0x2 SLOAD DUP2 JUMP JUMPDEST PUSH1 0x1 DUP1 SLOAD PUSH2 0x177 SWAP1 PUSH2 0x534 JUMP JUMPDEST DUP1 PUSH1 0x1F ADD PUSH1 0x20 DUP1 SWAP2 DIV MUL PUSH1 0x20 ADD PUSH1 0x40 MLOAD SWAP1 DUP2 ADD PUSH1 0x40 MSTORE DUP1 SWAP3 SWAP2 SWAP1 DUP2 DUP2 MSTORE PUSH1 0x20 ADD DUP3 DUP1 SLOAD PUSH2 0x1A3 SWAP1 PUSH2 0x534 JUMP JUMPDEST DUP1 ISZERO PUSH2 0x1EE JUMPI DUP1 PUSH1 0x1F LT PUSH2 0x1C5 JUMPI PUSH2 0x100 DUP1 DUP4 SLOAD DIV MUL DUP4 MSTORE SWAP2 PUSH1 0x20 ADD SWAP2 PUSH2 0x1EE JUMP JUMPDEST DUP3 ADD SWAP2 SWAP1 PUSH0 MSTORE PUSH1 0x20 PUSH0 KECCAK256 SWAP1 JUMPDEST DUP2 SLOAD DUP2 MSTORE SWAP1 PUSH1 0x1 ADD SWAP1 PUSH1 0x20 ADD DUP1 DUP4 GT PUSH2 0x1D1 JUMPI DUP3 SWAP1 SUB PUSH1 0x1F AND DUP3 ADD SWAP2 JUMPDEST POP POP POP POP POP DUP2 JUMP JUMPDEST PUSH0 PUSH1 0x40 MLOAD SWAP1 POP SWAP1 JUMP JUMPDEST PUSH0 DUP1 REVERT JUMPDEST PUSH0 DUP1 REVERT JUMPDEST PUSH0 DUP1 REVERT JUMPDEST PUSH0 DUP1 REVERT JUMPDEST PUSH0 PUSH1 0x1F NOT PUSH1 0x1F DUP4 ADD AND SWAP1 POP SWAP2 SWAP1 POP JUMP JUMPDEST PUSH32 0x4E487B7100000000000000000000000000000000000000000000000000000000 PUSH0 MSTORE PUSH1 0x41 PUSH1 0x4 MSTORE PUSH1 0x24 PUSH0 REVERT JUMPDEST PUSH2 0x255 DUP3 PUSH2 0x20F JUMP JUMPDEST DUP2 ADD DUP2 DUP2 LT PUSH8 0xFFFFFFFFFFFFFFFF DUP3 GT OR ISZERO PUSH2 0x274 JUMPI PUSH2 0x273 PUSH2 0x21F JUMP JUMPDEST JUMPDEST DUP1 PUSH1 0x40 MSTORE POP POP POP JUMP JUMPDEST PUSH0 PUSH2 0x286 PUSH2 0x1F6 JUMP JUMPDEST SWAP1 POP PUSH2 0x292 DUP3 DUP3 PUSH2 0x24C JUMP JUMPDEST SWAP2 SWAP1 POP JUMP JUMPDEST PUSH0 PUSH8 0xFFFFFFFFFFFFFFFF DUP3 GT ISZERO PUSH2 0x2B1 JUMPI PUSH2 0x2B0 PUSH2 0x21F JUMP JUMPDEST JUMPDEST PUSH2 0x2BA DUP3 PUSH2 0x20F JUMP JUMPDEST SWAP1 POP PUSH1 0x20 DUP2 ADD SWAP1 POP SWAP2 SWAP1 POP JUMP JUMPDEST DUP3 DUP2 DUP4 CALLDATACOPY PUSH0 DUP4 DUP4 ADD MSTORE POP POP POP JUMP JUMPDEST PUSH0 PUSH2 0x2E7 PUSH2 0x2E2 DUP5 PUSH2 0x297 JUMP JUMPDEST PUSH2 0x27D JUMP JUMPDEST SWAP1 POP DUP3 DUP2 MSTORE PUSH1 0x20 DUP2 ADD DUP5 DUP5 DUP5 ADD GT ISZERO PUSH2 0x303 JUMPI PUSH2 0x302 PUSH2 0x20B JUMP JUMPDEST JUMPDEST PUSH2 0x30E DUP5 DUP3 DUP6 PUSH2 0x2C7 JUMP JUMPDEST POP SWAP4 SWAP3 POP POP POP JUMP JUMPDEST PUSH0 DUP3 PUSH1 0x1F DUP4 ADD SLT PUSH2 0x32A JUMPI PUSH2 0x329 PUSH2 0x207 JUMP JUMPDEST JUMPDEST DUP2 CALLDATALOAD PUSH2 0x33A DUP5 DUP3 PUSH1 0x20 DUP7 ADD PUSH2 0x2D5 JUMP JUMPDEST SWAP2 POP POP SWAP3 SWAP2 POP POP JUMP JUMPDEST PUSH0 PUSH1 0x20 DUP3 DUP5 SUB SLT ISZERO PUSH2 0x358 JUMPI PUSH2 0x357 PUSH2 0x1FF JUMP JUMPDEST JUMPDEST PUSH0 DUP3 ADD CALLDATALOAD PUSH8 0xFFFFFFFFFFFFFFFF DUP2 GT ISZERO PUSH2 0x375 JUMPI PUSH2 0x374 PUSH2 0x203 JUMP JUMPDEST JUMPDEST PUSH2 0x381 DUP5 DUP3 DUP6 ADD PUSH2 0x316 JUMP JUMPDEST SWAP2 POP POP SWAP3 SWAP2 POP POP JUMP JUMPDEST PUSH0 PUSH20 0xFFFFFFFFFFFFFFFFFFFFFFFFFFFFFFFFFFFFFFFF DUP3 AND SWAP1 POP SWAP2 SWAP1 POP JUMP JUMPDEST PUSH0 PUSH2 0x3B3 DUP3 PUSH2 0x38A JUMP JUMPDEST SWAP1 POP SWAP2 SWAP1 POP JUMP JUMPDEST PUSH2 0x3C3 DUP2 PUSH2 0x3A9 JUMP JUMPDEST DUP3 MSTORE POP POP JUMP JUMPDEST PUSH0 PUSH1 0x20 DUP3 ADD SWAP1 POP PUSH2 0x3DC PUSH0 DUP4 ADD DUP5 PUSH2 0x3BA JUMP JUMPDEST SWAP3 SWAP2 POP POP JUMP JUMPDEST PUSH0 DUP2 SWAP1 POP SWAP2 SWAP1 POP JUMP JUMPDEST PUSH2 0x3F4 DUP2 PUSH2 0x3E2 JUMP JUMPDEST DUP3 MSTORE POP POP JUMP JUMPDEST PUSH0 PUSH1 0x20 DUP3 ADD SWAP1 POP PUSH2 0x40D PUSH0 DUP4 ADD DUP5 PUSH2 0x3EB JUMP JUMPDEST SWAP3 SWAP2 POP POP JUMP JUMPDEST PUSH0 DUP2 MLOAD SWAP1 POP SWAP2 SWAP1 POP JUMP JUMPDEST PUSH0 DUP3 DUP3 MSTORE PUSH1 0x20 DUP3 ADD SWAP1 POP SWAP3 SWAP2 POP POP JUMP JUMPDEST DUP3 DUP2 DUP4 MCOPY PUSH0 DUP4 DUP4 ADD MSTORE POP POP POP JUMP JUMPDEST PUSH0 PUSH2 0x445 DUP3 PUSH2 0x413 JUMP JUMPDEST PUSH2 0x44F DUP2 DUP6 PUSH2 0x41D JUMP JUMPDEST SWAP4 POP PUSH2 0x45F DUP2 DUP6 PUSH1 0x20 DUP7 ADD PUSH2 0x42D JUMP JUMPDEST PUSH2 0x468 DUP2 PUSH2 0x20F JUMP JUMPDEST DUP5 ADD SWAP2 POP POP SWAP3 SWAP2 POP POP JUMP JUMPDEST PUSH0 PUSH1 0x20 DUP3 ADD SWAP1 POP DUP2 DUP2 SUB PUSH0 DUP4 ADD MSTORE PUSH2 0x48B DUP2 DUP5 PUSH2 0x43B JUMP JUMPDEST SWAP1 POP SWAP3 SWAP2 POP POP JUMP JUMPDEST PUSH32 0x4E487B7100000000000000000000000000000000000000000000000000000000 PUSH0 MSTORE PUSH1 0x11 PUSH1 0x4 MSTORE PUSH1 0x24 PUSH0 REVERT JUMPDEST PUSH0 PUSH2 0x4CA DUP3 PUSH2 0x3E2 JUMP JUMPDEST SWAP2 POP PUSH32 0xFFFFFFFFFFFFFFFFFFFFFFFFFFFFFFFFFFFFFFFFFFFFFFFFFFFFFFFFFFFFFFFF DUP3 SUB PUSH2 0x4FC JUMPI PUSH2 0x4FB PUSH2 0x493 JUMP JUMPDEST JUMPDEST PUSH1 0x1 DUP3 ADD SWAP1 POP SWAP2 SWAP1 POP JUMP JUMPDEST PUSH32 0x4E487B7100000000000000000000000000000000000000000000000000000000 PUSH0 MSTORE PUSH1 0x22 PUSH1 0x4 MSTORE PUSH1 0x24 PUSH0 REVERT JUMPDEST PUSH0 PUSH1 0x2 DUP3 DIV SWAP1 POP PUSH1 0x1 DUP3 AND DUP1 PUSH2 0x54B JUMPI PUSH1 0x7F DUP3 AND SWAP2 POP JUMPDEST PUSH1 0x20 DUP3 LT DUP2 SUB PUSH2 0x55E JUMPI PUSH2 0x55D PUSH2 0x507 JUMP JUMPDEST JUMPDEST POP SWAP2 SWAP1 POP JUMP JUMPDEST PUSH0 DUP2 SWAP1 POP DUP2 PUSH0 MSTORE PUSH1 0x20 PUSH0 KECCAK256 SWAP1 POP SWAP2 SWAP1 POP JUMP JUMPDEST PUSH0 PUSH1 0x20 PUSH1 0x1F DUP4 ADD DIV SWAP1 POP SWAP2 SWAP1 POP JUMP JUMPDEST PUSH0 DUP3 DUP3 SHL SWAP1 POP SWAP3 SWAP2 POP POP JUMP JUMPDEST PUSH0 PUSH1 0x8 DUP4 MUL PUSH2 0x5C0 PUSH32 0xFFFFFFFFFFFFFFFFFFFFFFFFFFFFFFFFFFFFFFFFFFFFFFFFFFFFFFFFFFFFFFFF DUP3 PUSH2 0x585 JUMP JUMPDEST PUSH2 0x5CA DUP7 DUP4 PUSH2 0x585 JUMP JUMPDEST SWAP6 POP DUP1 NOT DUP5 AND SWAP4 POP DUP1 DUP7 AND DUP5 OR SWAP3 POP POP POP SWAP4 SWAP3 POP POP POP JUMP JUMPDEST PUSH0 DUP2 SWAP1 POP SWAP2 SWAP1 POP JUMP JUMPDEST PUSH0 PUSH2 0x605 PUSH2 0x600 PUSH2 0x5FB DUP5 PUSH2 0x3E2 JUMP JUMPDEST PUSH2 0x5E2 JUMP JUMPDEST PUSH2 0x3E2 JUMP JUMPDEST SWAP1 POP SWAP2 SWAP1 POP JUMP JUMPDEST PUSH0 DUP2 SWAP1 POP SWAP2 SWAP1 POP JUMP JUMPDEST PUSH2 0x61E DUP4 PUSH2 0x5EB JUMP JUMPDEST PUSH2 0x632 PUSH2 0x62A DUP3 PUSH2 0x60C JUMP JUMPDEST DUP5 DUP5 SLOAD PUSH2 0x591 JUMP JUMPDEST DUP3 SSTORE POP POP POP POP JUMP JUMPDEST PUSH0 SWAP1 JUMP JUMPDEST PUSH2 0x646 PUSH2 0x63A JUMP JUMPDEST PUSH2 0x651 DUP2 DUP5 DUP5 PUSH2 0x615 JUMP JUMPDEST POP POP POP JUMP JUMPDEST JUMPDEST DUP2 DUP2 LT ISZERO PUSH2 0x674 JUMPI PUSH2 0x669 PUSH0 DUP3 PUSH2 0x63E JUMP JUMPDEST PUSH1 0x1 DUP2 ADD SWAP1 POP PUSH2 0x657 JUMP JUMPDEST POP POP JUMP JUMPDEST PUSH1 0x1F DUP3 GT ISZERO PUSH2 0x6B9 JUMPI PUSH2 0x68A DUP2 PUSH2 0x564 JUMP JUMPDEST PUSH2 0x693 DUP5 PUSH2 0x576 JUMP JUMPDEST DUP2 ADD PUSH1 0x20 DUP6 LT ISZERO PUSH2 0x6A2 JUMPI DUP2 SWAP1 POP JUMPDEST PUSH2 0x6B6 PUSH2 0x6AE DUP6 PUSH2 0x576 JUMP JUMPDEST DUP4 ADD DUP3 PUSH2 0x656 JUMP JUMPDEST POP POP JUMPDEST POP POP POP JUMP JUMPDEST PUSH0 DUP3 DUP3 SHR SWAP1 POP SWAP3 SWAP2 POP POP JUMP JUMPDEST PUSH0 PUSH2 0x6D9 PUSH0 NOT DUP5 PUSH1 0x8 MUL PUSH2 0x6BE JUMP JUMPDEST NOT DUP1 DUP4 AND SWAP2 POP POP SWAP3 SWAP2 POP POP JUMP JUMPDEST PUSH0 PUSH2 0x6F1 DUP4 DUP4 PUSH2 0x6CA JUMP JUMPDEST SWAP2 POP DUP3 PUSH1 0x2 MUL DUP3 OR SWAP1 POP SWAP3 SWAP2 POP POP JUMP JUMPDEST PUSH2 0x70A DUP3 PUSH2 0x413 JUMP JUMPDEST PUSH8 0xFFFFFFFFFFFFFFFF DUP2 GT ISZERO PUSH2 0x723 JUMPI PUSH2 0x722 PUSH2 0x21F JUMP JUMPDEST JUMPDEST PUSH2 0x72D DUP3 SLOAD PUSH2 0x534 JUMP JUMPDEST PUSH2 0x738 DUP3 DUP3 DUP6 PUSH2 0x678 JUMP JUMPDEST PUSH0 PUSH1 0x20 SWAP1 POP PUSH1 0x1F DUP4 GT PUSH1 0x1 DUP2 EQ PUSH2 0x769 JUMPI PUSH0 DUP5 ISZERO PUSH2 0x757 JUMPI DUP3 DUP8 ADD MLOAD SWAP1 POP JUMPDEST PUSH2 0x761 DUP6 DUP3 PUSH2 0x6E6 JUMP JUMPDEST DUP7 SSTORE POP PUSH2 0x7C8 JUMP JUMPDEST PUSH1 0x1F NOT DUP5 AND PUSH2 0x777 DUP7 PUSH2 0x564 JUMP JUMPDEST PUSH0 JUMPDEST DUP3 DUP2 LT ISZERO PUSH2 0x79E JUMPI DUP5 DUP10 ADD MLOAD DUP3 SSTORE PUSH1 0x1 DUP3 ADD SWAP2 POP PUSH1 0x20 DUP6 ADD SWAP5 POP PUSH1 0x20 DUP2 ADD SWAP1 POP PUSH2 0x779 JUMP JUMPDEST DUP7 DUP4 LT ISZERO PUSH2 0x7BB JUMPI DUP5 DUP10 ADD MLOAD PUSH2 0x7B7 PUSH1 0x1F DUP10 AND DUP3 PUSH2 0x6CA JUMP JUMPDEST DUP4 SSTORE POP JUMPDEST PUSH1 0x1 PUSH1 0x2 DUP9 MUL ADD DUP9 SSTORE POP POP POP JUMPDEST POP POP POP POP POP POP JUMP INVALID LOG2 PUSH5 0x6970667358 0x22 SLT KECCAK256 0xAC PUSH23 0x24D27FA26FD98E8C7CCE197861CDD3507281AF577660FD PUSH9 0x3C988B3569C864736F PUSH13 0x634300081A0033000000000000 "
				},
				"gasEstimates": {
					"creation": {
						"codeDepositCost": "410800",
						"executionCost": "24712",
						"totalCost": "435512"
					},
					"external": {
						"changeCounter()": "2447",
						"message()": "infinite",
						"owner()": "2505",
						"updateMessage(string)": "infinite"
					}
				},
				"methodIdentifiers": {
					"changeCounter()": "aaf4389a",
					"message()": "e21f37ce",
					"owner()": "8da5cb5b",
					"updateMessage(string)": "1923be24"
				}
			},
			"storageLayout": {
				"storage": [
					{
						"astId": 3,
						"contract": "contracts/blockchainMessenger.sol:blockchainMessenger",
						"label": "owner",
						"offset": 0,
						"slot": "0",
						"type": "t_address"
					},
					{
						"astId": 5,
						"contract": "contracts/blockchainMessenger.sol:blockchainMessenger",
						"label": "message",
						"offset": 0,
						"slot": "1",
						"type": "t_string_storage"
					},
					{
						"astId": 7,
						"contract": "contracts/blockchainMessenger.sol:blockchainMessenger",
						"label": "changeCounter",
						"offset": 0,
						"slot": "2",
						"type": "t_uint256"
					}
				],
				"types": {
					"t_address": {
						"encoding": "inplace",
						"label": "address",
						"numberOfBytes": "20"
					},
					"t_string_storage": {
						"encoding": "bytes",
						"label": "string",
						"numberOfBytes": "32"
					},
					"t_uint256": {
						"encoding": "inplace",
						"label": "uint256",
						"numberOfBytes": "32"
					}
				}
			},
			"userdoc": {
				"kind": "user",
				"methods": {},
				"version": 1
			}
		}
	}
}